{
  "address": "0x361eAD17b17406657b20a28527F70bfea245bc9c",
  "abi": [
    {
      "inputs": [],
      "stateMutability": "nonpayable",
      "type": "constructor"
    },
    {
      "anonymous": false,
      "inputs": [
        {
          "indexed": true,
          "internalType": "uint256",
          "name": "isbn",
          "type": "uint256"
        }
      ],
      "name": "BookAdded",
      "type": "event"
    },
    {
      "inputs": [
        {
          "internalType": "uint256",
          "name": "_tahunBuat",
          "type": "uint256"
        },
        {
          "internalType": "string",
          "name": "_judul",
          "type": "string"
        },
        {
          "internalType": "string",
          "name": "_penulis",
          "type": "string"
        }
      ],
      "name": "addBook",
      "outputs": [],
      "stateMutability": "nonpayable",
      "type": "function"
    },
    {
      "inputs": [],
      "name": "bookLength",
      "outputs": [
        {
          "internalType": "uint256",
          "name": "",
          "type": "uint256"
        }
      ],
      "stateMutability": "view",
      "type": "function"
    },
    {
      "inputs": [
        {
          "internalType": "uint256",
          "name": "_isbn",
          "type": "uint256"
        }
      ],
      "name": "deleteBook",
      "outputs": [],
      "stateMutability": "nonpayable",
      "type": "function"
    },
    {
      "inputs": [
        {
          "internalType": "uint256",
          "name": "_isbn",
          "type": "uint256"
        }
      ],
      "name": "getBookDetail",
      "outputs": [
        {
          "internalType": "uint256",
          "name": "",
          "type": "uint256"
        },
        {
          "internalType": "uint256",
          "name": "",
          "type": "uint256"
        },
        {
          "internalType": "string",
          "name": "",
          "type": "string"
        },
        {
          "internalType": "string",
          "name": "",
          "type": "string"
        }
      ],
      "stateMutability": "view",
      "type": "function"
    },
    {
      "inputs": [
        {
          "internalType": "uint256",
          "name": "index",
          "type": "uint256"
        }
      ],
      "name": "getISBNByIndex",
      "outputs": [
        {
          "internalType": "uint256",
          "name": "",
          "type": "uint256"
        }
      ],
      "stateMutability": "view",
      "type": "function"
    },
    {
      "inputs": [
        {
          "internalType": "uint256",
          "name": "_isbn",
          "type": "uint256"
        },
        {
          "internalType": "uint256",
          "name": "_tahunBuat",
          "type": "uint256"
        },
        {
          "internalType": "string",
          "name": "_judul",
          "type": "string"
        },
        {
          "internalType": "string",
          "name": "_penulis",
          "type": "string"
        }
      ],
      "name": "updateBook",
      "outputs": [],
      "stateMutability": "nonpayable",
      "type": "function"
    }
  ],
  "transactionHash": "0xa10e0b44aa1673135baa87e61c443422ede055a84906a52c80c92feac06588f6",
  "args": [],
  "numDeployments": 1,
  "solcInputHash": "cec287c6b588c73cca2505412d5d2487",
  "bytecode": "0x608060405234801561001057600080fd5b50600380546001600160a01b03191633179055610be5806100326000396000f3fe608060405234801561001057600080fd5b50600436106100625760003560e01c8063028414f21461006757806312c98bdc1461007c5780632151fb38146100a257806341e7a262146100b557806382c553bb146100c8578063b1790c35146100d0575b600080fd5b61007a6100753660046108fe565b6100f3565b005b61008f61008a366004610978565b610279565b6040519081526020015b60405180910390f35b61007a6100b0366004610978565b6102f2565b61007a6100c3366004610991565b6104c3565b60025461008f565b6100e36100de366004610978565b61062b565b6040516100999493929190610a61565b6003546001600160a01b031633146101265760405162461bcd60e51b815260040161011d90610a9d565b60405180910390fd5b6000610130610782565b9050604051806080016040528082815260200187815260200186868080601f016020809104026020016040519081016040528093929190818152602001838380828437600092019190915250505090825250604080516020601f8701819004810282018101909252858152918101919086908690819084018382808284376000920182905250939094525050838152600160208181526040928390208551815585820151928101929092559184015180519193506101f59260028501929101906107df565b50606082015180516102119160038401916020909101906107df565b50506002805460018101825560009182527f405787fa12a823e0f2b7631cc41b3ba8828b3321ca811111fa75cd3aa3bb5ace018390556040518392507ff28b4f7e52e9859ee83d34999feac48c8198ba0fc5b0d867ae01064191e7484c9190a2505050505050565b60025460009082106102cd5760405162461bcd60e51b815260206004820152601760248201527f496e64656b732062756b7520746964616b2076616c6964000000000000000000604482015260640161011d565b600282815481106102e0576102e0610ae1565b90600052602060002001549050919050565b6003546001600160a01b0316331461031c5760405162461bcd60e51b815260040161011d90610a9d565b60008181526001602052604090205481146103705760405162461bcd60e51b8152602060048201526014602482015273213ab5ba903a34b230b5903234ba32b6bab5b0b760611b604482015260640161011d565b60008181526001602081905260408220828155908101829055906103976002830182610863565b6103a5600383016000610863565b5060009050805b6002548110156103f45782600282815481106103ca576103ca610ae1565b9060005260206000200154036103e2578091506103f4565b806103ec81610b0d565b9150506103ac565b5060025481106104465760405162461bcd60e51b815260206004820152601b60248201527f496e64656b732062756b7520746964616b20646974656d756b616e0000000000604482015260640161011d565b60025460009061045890600190610b26565b90506002818154811061046d5761046d610ae1565b90600052602060002001546002838154811061048b5761048b610ae1565b60009182526020909120015560028054806104a8576104a8610b3d565b60019003818190600052602060002001600090559055505050565b6003546001600160a01b031633146104ed5760405162461bcd60e51b815260040161011d90610a9d565b60008681526001602052604090205486146105415760405162461bcd60e51b8152602060048201526014602482015273213ab5ba903a34b230b5903234ba32b6bab5b0b760611b604482015260640161011d565b604051806080016040528087815260200186815260200185858080601f016020809104026020016040519081016040528093929190818152602001838380828437600092019190915250505090825250604080516020601f8601819004810282018101909252848152918101919085908590819084018382808284376000920182905250939094525050888152600160208181526040928390208551815585820151928101929092559184015180519193506106049260028501929101906107df565b50606082015180516106209160038401916020909101906107df565b505050505050505050565b600080606080600060016000878152602001908152602001600020905080600001548160010154826002018360030181805461066690610b53565b80601f016020809104026020016040519081016040528092919081815260200182805461069290610b53565b80156106df5780601f106106b4576101008083540402835291602001916106df565b820191906000526020600020905b8154815290600101906020018083116106c257829003601f168201915b505050505091508080546106f290610b53565b80601f016020809104026020016040519081016040528092919081815260200182805461071e90610b53565b801561076b5780601f106107405761010080835404028352916020019161076b565b820191906000526020600020905b81548152906001019060200180831161074e57829003601f168201915b505050505090509450945094509450509193509193565b60008054818061079183610b0d565b9190505550600080546040516020016107ac91815260200190565b60408051601f198184030181529190528051602090910120905060006107d86509184e72a00083610b8d565b9392505050565b8280546107eb90610b53565b90600052602060002090601f01602090048101928261080d5760008555610853565b82601f1061082657805160ff1916838001178555610853565b82800160010185558215610853579182015b82811115610853578251825591602001919060010190610838565b5061085f9291506108a0565b5090565b50805461086f90610b53565b6000825580601f1061087f575050565b601f01602090049060005260206000209081019061089d91906108a0565b50565b5b8082111561085f57600081556001016108a1565b60008083601f8401126108c757600080fd5b50813567ffffffffffffffff8111156108df57600080fd5b6020830191508360208285010111156108f757600080fd5b9250929050565b60008060008060006060868803121561091657600080fd5b85359450602086013567ffffffffffffffff8082111561093557600080fd5b61094189838a016108b5565b9096509450604088013591508082111561095a57600080fd5b50610967888289016108b5565b969995985093965092949392505050565b60006020828403121561098a57600080fd5b5035919050565b600080600080600080608087890312156109aa57600080fd5b8635955060208701359450604087013567ffffffffffffffff808211156109d057600080fd5b6109dc8a838b016108b5565b909650945060608901359150808211156109f557600080fd5b50610a0289828a016108b5565b979a9699509497509295939492505050565b6000815180845260005b81811015610a3a57602081850181015186830182015201610a1e565b81811115610a4c576000602083870101525b50601f01601f19169290920160200192915050565b848152836020820152608060408201526000610a806080830185610a14565b8281036060840152610a928185610a14565b979650505050505050565b60208082526024908201527f48616e79612061646d696e2079616e67206461706174206d656c616b756b616e60408201526320696e6960e01b606082015260800190565b634e487b7160e01b600052603260045260246000fd5b634e487b7160e01b600052601160045260246000fd5b600060018201610b1f57610b1f610af7565b5060010190565b600082821015610b3857610b38610af7565b500390565b634e487b7160e01b600052603160045260246000fd5b600181811c90821680610b6757607f821691505b602082108103610b8757634e487b7160e01b600052602260045260246000fd5b50919050565b600082610baa57634e487b7160e01b600052601260045260246000fd5b50069056fea2646970667358221220d7274619b4e98ef7e287b5b52b79b5cbdf3074fda1203d32505036ec4a13bbbc64736f6c634300080d0033",
  "devdoc": {
    "kind": "dev",
    "methods": {},
    "version": 1
  },
  "userdoc": {
    "kind": "user",
    "methods": {},
    "version": 1
  },
  "storageLayout": {
    "storage": [
      {
        "astId": 3,
        "contract": "contracts/Perpustakaan.sol:Perpustakaan",
        "label": "nonce",
        "offset": 0,
        "slot": "0",
        "type": "t_uint256"
      },
      {
        "astId": 17,
        "contract": "contracts/Perpustakaan.sol:Perpustakaan",
        "label": "books",
        "offset": 0,
        "slot": "1",
        "type": "t_mapping(t_uint256,t_struct(Book)12_storage)"
      },
      {
        "astId": 20,
        "contract": "contracts/Perpustakaan.sol:Perpustakaan",
        "label": "bookISBNs",
        "offset": 0,
        "slot": "2",
        "type": "t_array(t_uint256)dyn_storage"
      },
      {
        "astId": 22,
        "contract": "contracts/Perpustakaan.sol:Perpustakaan",
        "label": "admin",
        "offset": 0,
        "slot": "3",
        "type": "t_address"
      }
    ],
    "types": {
      "t_address": {
        "encoding": "inplace",
        "label": "address",
        "numberOfBytes": "20"
      },
      "t_array(t_uint256)dyn_storage": {
        "base": "t_uint256",
        "encoding": "dynamic_array",
        "label": "uint256[]",
        "numberOfBytes": "32"
      },
      "t_mapping(t_uint256,t_struct(Book)12_storage)": {
        "encoding": "mapping",
        "key": "t_uint256",
        "label": "mapping(uint256 => struct Perpustakaan.Book)",
        "numberOfBytes": "32",
        "value": "t_struct(Book)12_storage"
      },
      "t_string_storage": {
        "encoding": "bytes",
        "label": "string",
        "numberOfBytes": "32"
      },
      "t_struct(Book)12_storage": {
        "encoding": "inplace",
        "label": "struct Perpustakaan.Book",
        "members": [
          {
            "astId": 5,
            "contract": "contracts/Perpustakaan.sol:Perpustakaan",
            "label": "isbn",
            "offset": 0,
            "slot": "0",
            "type": "t_uint256"
          },
          {
            "astId": 7,
            "contract": "contracts/Perpustakaan.sol:Perpustakaan",
            "label": "tahunBuat",
            "offset": 0,
            "slot": "1",
            "type": "t_uint256"
          },
          {
            "astId": 9,
            "contract": "contracts/Perpustakaan.sol:Perpustakaan",
            "label": "judul",
            "offset": 0,
            "slot": "2",
            "type": "t_string_storage"
          },
          {
            "astId": 11,
            "contract": "contracts/Perpustakaan.sol:Perpustakaan",
            "label": "penulis",
            "offset": 0,
            "slot": "3",
            "type": "t_string_storage"
          }
        ],
        "numberOfBytes": "128"
      },
      "t_uint256": {
        "encoding": "inplace",
        "label": "uint256",
        "numberOfBytes": "32"
      }
    }
  }
}