{
	"contracts/Perpustakaan.sol": {
		"Perpustakaan": {
			"abi": [
				{
					"inputs": [],
					"stateMutability": "nonpayable",
					"type": "constructor"
				},
				{
					"inputs": [
						{
							"internalType": "uint256",
							"name": "_tahunBuat",
							"type": "uint256"
						},
						{
							"internalType": "string",
							"name": "_judul",
							"type": "string"
						},
						{
							"internalType": "string",
							"name": "_penulis",
							"type": "string"
						}
					],
					"name": "addBook",
					"outputs": [],
					"stateMutability": "nonpayable",
					"type": "function"
				},
				{
					"inputs": [],
					"name": "admin",
					"outputs": [
						{
							"internalType": "address",
							"name": "",
							"type": "address"
						}
					],
					"stateMutability": "view",
					"type": "function"
				},
				{
					"inputs": [
						{
							"internalType": "uint256",
							"name": "",
							"type": "uint256"
						}
					],
					"name": "bookISBNs",
					"outputs": [
						{
							"internalType": "uint256",
							"name": "",
							"type": "uint256"
						}
					],
					"stateMutability": "view",
					"type": "function"
				},
				{
					"inputs": [
						{
							"internalType": "uint256",
							"name": "",
							"type": "uint256"
						}
					],
					"name": "books",
					"outputs": [
						{
							"internalType": "uint256",
							"name": "isbn",
							"type": "uint256"
						},
						{
							"internalType": "uint256",
							"name": "tahunBuat",
							"type": "uint256"
						},
						{
							"internalType": "string",
							"name": "judul",
							"type": "string"
						},
						{
							"internalType": "string",
							"name": "penulis",
							"type": "string"
						}
					],
					"stateMutability": "view",
					"type": "function"
				},
				{
					"inputs": [
						{
							"internalType": "uint256",
							"name": "_isbn",
							"type": "uint256"
						}
					],
					"name": "deleteBook",
					"outputs": [],
					"stateMutability": "nonpayable",
					"type": "function"
				},
				{
					"inputs": [],
					"name": "generateRandomIsbn",
					"outputs": [
						{
							"internalType": "uint256",
							"name": "",
							"type": "uint256"
						}
					],
					"stateMutability": "nonpayable",
					"type": "function"
				},
				{
					"inputs": [
						{
							"internalType": "uint256",
							"name": "_isbn",
							"type": "uint256"
						}
					],
					"name": "getBook",
					"outputs": [
						{
							"internalType": "bool",
							"name": "",
							"type": "bool"
						}
					],
					"stateMutability": "view",
					"type": "function"
				},
				{
					"inputs": [
						{
							"internalType": "uint256",
							"name": "_isbn",
							"type": "uint256"
						},
						{
							"internalType": "uint256",
							"name": "_tahunBuat",
							"type": "uint256"
						},
						{
							"internalType": "string",
							"name": "_judul",
							"type": "string"
						},
						{
							"internalType": "string",
							"name": "_penulis",
							"type": "string"
						}
					],
					"name": "updateBook",
					"outputs": [],
					"stateMutability": "nonpayable",
					"type": "function"
				}
			],
			"devdoc": {
				"kind": "dev",
				"methods": {},
				"version": 1
			},
			"evm": {
				"assembly": "    /* \"contracts/Perpustakaan.sol\":60:2323  contract Perpustakaan {... */\n  mstore(0x40, 0x80)\n    /* \"contracts/Perpustakaan.sol\":518:569  constructor() {... */\n  callvalue\n  dup1\n  iszero\n  tag_1\n  jumpi\n  0x00\n  dup1\n  revert\ntag_1:\n  pop\n    /* \"contracts/Perpustakaan.sol\":551:561  msg.sender */\n  caller\n    /* \"contracts/Perpustakaan.sol\":543:548  admin */\n  0x03\n  0x00\n    /* \"contracts/Perpustakaan.sol\":543:561  admin = msg.sender */\n  0x0100\n  exp\n  dup2\n  sload\n  dup2\n  0xffffffffffffffffffffffffffffffffffffffff\n  mul\n  not\n  and\n  swap1\n  dup4\n  0xffffffffffffffffffffffffffffffffffffffff\n  and\n  mul\n  or\n  swap1\n  sstore\n  pop\n    /* \"contracts/Perpustakaan.sol\":60:2323  contract Perpustakaan {... */\n  dataSize(sub_0)\n  dup1\n  dataOffset(sub_0)\n  0x00\n  codecopy\n  0x00\n  return\nstop\n\nsub_0: assembly {\n        /* \"contracts/Perpustakaan.sol\":60:2323  contract Perpustakaan {... */\n      mstore(0x40, 0x80)\n      callvalue\n      dup1\n      iszero\n      tag_1\n      jumpi\n      0x00\n      dup1\n      revert\n    tag_1:\n      pop\n      jumpi(tag_2, lt(calldatasize, 0x04))\n      shr(0xe0, calldataload(0x00))\n      dup1\n      0x8c6e4344\n      gt\n      tag_11\n      jumpi\n      dup1\n      0x8c6e4344\n      eq\n      tag_7\n      jumpi\n      dup1\n      0x9542835c\n      eq\n      tag_8\n      jumpi\n      dup1\n      0xe0ff5b8b\n      eq\n      tag_9\n      jumpi\n      dup1\n      0xf851a440\n      eq\n      tag_10\n      jumpi\n      jump(tag_2)\n    tag_11:\n      dup1\n      0x028414f2\n      eq\n      tag_3\n      jumpi\n      dup1\n      0x2151fb38\n      eq\n      tag_4\n      jumpi\n      dup1\n      0x41e7a262\n      eq\n      tag_5\n      jumpi\n      dup1\n      0x68744046\n      eq\n      tag_6\n      jumpi\n    tag_2:\n      0x00\n      dup1\n      revert\n        /* \"contracts/Perpustakaan.sol\":826:1082  function addBook(uint256 _tahunBuat, string calldata _judul, string calldata _penulis) external onlyAdmin {... */\n    tag_3:\n      tag_12\n      0x04\n      dup1\n      calldatasize\n      sub\n      dup2\n      add\n      swap1\n      tag_13\n      swap2\n      swap1\n      tag_14\n      jump\t// in\n    tag_13:\n      tag_15\n      jump\t// in\n    tag_12:\n      stop\n        /* \"contracts/Perpustakaan.sol\":1367:2174  function deleteBook(uint256 _isbn) external onlyAdmin {... */\n    tag_4:\n      tag_16\n      0x04\n      dup1\n      calldatasize\n      sub\n      dup2\n      add\n      swap1\n      tag_17\n      swap2\n      swap1\n      tag_18\n      jump\t// in\n    tag_17:\n      tag_19\n      jump\t// in\n    tag_16:\n      stop\n        /* \"contracts/Perpustakaan.sol\":1090:1359  function updateBook(uint256 _isbn, uint256 _tahunBuat, string calldata _judul, string calldata _penulis) external onlyAdmin {... */\n    tag_5:\n      tag_20\n      0x04\n      dup1\n      calldatasize\n      sub\n      dup2\n      add\n      swap1\n      tag_21\n      swap2\n      swap1\n      tag_22\n      jump\t// in\n    tag_21:\n      tag_23\n      jump\t// in\n    tag_20:\n      stop\n        /* \"contracts/Perpustakaan.sol\":250:287  mapping(uint256 => Book) public books */\n    tag_6:\n      tag_24\n      0x04\n      dup1\n      calldatasize\n      sub\n      dup2\n      add\n      swap1\n      tag_25\n      swap2\n      swap1\n      tag_18\n      jump\t// in\n    tag_25:\n      tag_26\n      jump\t// in\n    tag_24:\n      mload(0x40)\n      tag_27\n      swap5\n      swap4\n      swap3\n      swap2\n      swap1\n      tag_28\n      jump\t// in\n    tag_27:\n      mload(0x40)\n      dup1\n      swap2\n      sub\n      swap1\n      return\n        /* \"contracts/Perpustakaan.sol\":294:320  uint256[] public bookISBNs */\n    tag_7:\n      tag_29\n      0x04\n      dup1\n      calldatasize\n      sub\n      dup2\n      add\n      swap1\n      tag_30\n      swap2\n      swap1\n      tag_18\n      jump\t// in\n    tag_30:\n      tag_31\n      jump\t// in\n    tag_29:\n      mload(0x40)\n      tag_32\n      swap2\n      swap1\n      tag_33\n      jump\t// in\n    tag_32:\n      mload(0x40)\n      dup1\n      swap2\n      sub\n      swap1\n      return\n        /* \"contracts/Perpustakaan.sol\":577:818  function generateRandomIsbn() public returns (uint256) {... */\n    tag_8:\n      tag_34\n      tag_35\n      jump\t// in\n    tag_34:\n      mload(0x40)\n      tag_36\n      swap2\n      swap1\n      tag_33\n      jump\t// in\n    tag_36:\n      mload(0x40)\n      dup1\n      swap2\n      sub\n      swap1\n      return\n        /* \"contracts/Perpustakaan.sol\":2182:2320  function getBook(uint256 _isbn) public view returns (bool){... */\n    tag_9:\n      tag_37\n      0x04\n      dup1\n      calldatasize\n      sub\n      dup2\n      add\n      swap1\n      tag_38\n      swap2\n      swap1\n      tag_18\n      jump\t// in\n    tag_38:\n      tag_39\n      jump\t// in\n    tag_37:\n      mload(0x40)\n      tag_40\n      swap2\n      swap1\n      tag_41\n      jump\t// in\n    tag_40:\n      mload(0x40)\n      dup1\n      swap2\n      sub\n      swap1\n      return\n        /* \"contracts/Perpustakaan.sol\":363:383  address public admin */\n    tag_10:\n      tag_42\n      tag_43\n      jump\t// in\n    tag_42:\n      mload(0x40)\n      tag_44\n      swap2\n      swap1\n      tag_45\n      jump\t// in\n    tag_44:\n      mload(0x40)\n      dup1\n      swap2\n      sub\n      swap1\n      return\n        /* \"contracts/Perpustakaan.sol\":826:1082  function addBook(uint256 _tahunBuat, string calldata _judul, string calldata _penulis) external onlyAdmin {... */\n    tag_15:\n        /* \"contracts/Perpustakaan.sol\":444:449  admin */\n      0x03\n      0x00\n      swap1\n      sload\n      swap1\n      0x0100\n      exp\n      swap1\n      div\n      0xffffffffffffffffffffffffffffffffffffffff\n      and\n        /* \"contracts/Perpustakaan.sol\":430:449  msg.sender == admin */\n      0xffffffffffffffffffffffffffffffffffffffff\n      and\n        /* \"contracts/Perpustakaan.sol\":430:440  msg.sender */\n      caller\n        /* \"contracts/Perpustakaan.sol\":430:449  msg.sender == admin */\n      0xffffffffffffffffffffffffffffffffffffffff\n      and\n      eq\n        /* \"contracts/Perpustakaan.sol\":422:490  require(msg.sender == admin, \"Hanya admin yang dapat melakukan ini\") */\n      tag_47\n      jumpi\n      mload(0x40)\n      0x08c379a000000000000000000000000000000000000000000000000000000000\n      dup2\n      mstore\n      0x04\n      add\n      tag_48\n      swap1\n      tag_49\n      jump\t// in\n    tag_48:\n      mload(0x40)\n      dup1\n      swap2\n      sub\n      swap1\n      revert\n    tag_47:\n        /* \"contracts/Perpustakaan.sol\":943:955  uint256 isbn */\n      0x00\n        /* \"contracts/Perpustakaan.sol\":958:978  generateRandomIsbn() */\n      tag_51\n        /* \"contracts/Perpustakaan.sol\":958:976  generateRandomIsbn */\n      tag_35\n        /* \"contracts/Perpustakaan.sol\":958:978  generateRandomIsbn() */\n      jump\t// in\n    tag_51:\n        /* \"contracts/Perpustakaan.sol\":943:978  uint256 isbn = generateRandomIsbn() */\n      swap1\n      pop\n        /* \"contracts/Perpustakaan.sol\":1003:1043  Book(isbn, _tahunBuat, _judul, _penulis) */\n      mload(0x40)\n      dup1\n      0x80\n      add\n      0x40\n      mstore\n      dup1\n        /* \"contracts/Perpustakaan.sol\":1008:1012  isbn */\n      dup3\n        /* \"contracts/Perpustakaan.sol\":1003:1043  Book(isbn, _tahunBuat, _judul, _penulis) */\n      dup2\n      mstore\n      0x20\n      add\n        /* \"contracts/Perpustakaan.sol\":1014:1024  _tahunBuat */\n      dup8\n        /* \"contracts/Perpustakaan.sol\":1003:1043  Book(isbn, _tahunBuat, _judul, _penulis) */\n      dup2\n      mstore\n      0x20\n      add\n        /* \"contracts/Perpustakaan.sol\":1026:1032  _judul */\n      dup7\n      dup7\n        /* \"contracts/Perpustakaan.sol\":1003:1043  Book(isbn, _tahunBuat, _judul, _penulis) */\n      dup1\n      dup1\n      0x1f\n      add\n      0x20\n      dup1\n      swap2\n      div\n      mul\n      0x20\n      add\n      mload(0x40)\n      swap1\n      dup2\n      add\n      0x40\n      mstore\n      dup1\n      swap4\n      swap3\n      swap2\n      swap1\n      dup2\n      dup2\n      mstore\n      0x20\n      add\n      dup4\n      dup4\n      dup1\n      dup3\n      dup5\n      calldatacopy\n      0x00\n      dup2\n      dup5\n      add\n      mstore\n      not(0x1f)\n      0x1f\n      dup3\n      add\n      and\n      swap1\n      pop\n      dup1\n      dup4\n      add\n      swap3\n      pop\n      pop\n      pop\n      pop\n      pop\n      pop\n      pop\n      dup2\n      mstore\n      0x20\n      add\n        /* \"contracts/Perpustakaan.sol\":1034:1042  _penulis */\n      dup5\n      dup5\n        /* \"contracts/Perpustakaan.sol\":1003:1043  Book(isbn, _tahunBuat, _judul, _penulis) */\n      dup1\n      dup1\n      0x1f\n      add\n      0x20\n      dup1\n      swap2\n      div\n      mul\n      0x20\n      add\n      mload(0x40)\n      swap1\n      dup2\n      add\n      0x40\n      mstore\n      dup1\n      swap4\n      swap3\n      swap2\n      swap1\n      dup2\n      dup2\n      mstore\n      0x20\n      add\n      dup4\n      dup4\n      dup1\n      dup3\n      dup5\n      calldatacopy\n      0x00\n      dup2\n      dup5\n      add\n      mstore\n      not(0x1f)\n      0x1f\n      dup3\n      add\n      and\n      swap1\n      pop\n      dup1\n      dup4\n      add\n      swap3\n      pop\n      pop\n      pop\n      pop\n      pop\n      pop\n      pop\n      dup2\n      mstore\n      pop\n        /* \"contracts/Perpustakaan.sol\":989:994  books */\n      0x01\n        /* \"contracts/Perpustakaan.sol\":989:1000  books[isbn] */\n      0x00\n        /* \"contracts/Perpustakaan.sol\":995:999  isbn */\n      dup4\n        /* \"contracts/Perpustakaan.sol\":989:1000  books[isbn] */\n      dup2\n      mstore\n      0x20\n      add\n      swap1\n      dup2\n      mstore\n      0x20\n      add\n      0x00\n      keccak256\n        /* \"contracts/Perpustakaan.sol\":989:1043  books[isbn] = Book(isbn, _tahunBuat, _judul, _penulis) */\n      0x00\n      dup3\n      add\n      mload\n      dup2\n      0x00\n      add\n      sstore\n      0x20\n      dup3\n      add\n      mload\n      dup2\n      0x01\n      add\n      sstore\n      0x40\n      dup3\n      add\n      mload\n      dup2\n      0x02\n      add\n      swap1\n      dup2\n      tag_52\n      swap2\n      swap1\n      tag_53\n      jump\t// in\n    tag_52:\n      pop\n      0x60\n      dup3\n      add\n      mload\n      dup2\n      0x03\n      add\n      swap1\n      dup2\n      tag_54\n      swap2\n      swap1\n      tag_53\n      jump\t// in\n    tag_54:\n      pop\n      swap1\n      pop\n      pop\n        /* \"contracts/Perpustakaan.sol\":1054:1063  bookISBNs */\n      0x02\n        /* \"contracts/Perpustakaan.sol\":1069:1073  isbn */\n      dup2\n        /* \"contracts/Perpustakaan.sol\":1054:1074  bookISBNs.push(isbn) */\n      swap1\n      dup1\n      0x01\n      dup2\n      sload\n      add\n      dup1\n      dup3\n      sstore\n      dup1\n      swap2\n      pop\n      pop\n      0x01\n      swap1\n      sub\n      swap1\n      0x00\n      mstore\n      keccak256(0x00, 0x20)\n      add\n      0x00\n      swap1\n      swap2\n      swap1\n      swap2\n      swap1\n      swap2\n      pop\n      sstore\n        /* \"contracts/Perpustakaan.sol\":932:1082  {... */\n      pop\n        /* \"contracts/Perpustakaan.sol\":826:1082  function addBook(uint256 _tahunBuat, string calldata _judul, string calldata _penulis) external onlyAdmin {... */\n      pop\n      pop\n      pop\n      pop\n      pop\n      jump\t// out\n        /* \"contracts/Perpustakaan.sol\":1367:2174  function deleteBook(uint256 _isbn) external onlyAdmin {... */\n    tag_19:\n        /* \"contracts/Perpustakaan.sol\":444:449  admin */\n      0x03\n      0x00\n      swap1\n      sload\n      swap1\n      0x0100\n      exp\n      swap1\n      div\n      0xffffffffffffffffffffffffffffffffffffffff\n      and\n        /* \"contracts/Perpustakaan.sol\":430:449  msg.sender == admin */\n      0xffffffffffffffffffffffffffffffffffffffff\n      and\n        /* \"contracts/Perpustakaan.sol\":430:440  msg.sender */\n      caller\n        /* \"contracts/Perpustakaan.sol\":430:449  msg.sender == admin */\n      0xffffffffffffffffffffffffffffffffffffffff\n      and\n      eq\n        /* \"contracts/Perpustakaan.sol\":422:490  require(msg.sender == admin, \"Hanya admin yang dapat melakukan ini\") */\n      tag_57\n      jumpi\n      mload(0x40)\n      0x08c379a000000000000000000000000000000000000000000000000000000000\n      dup2\n      mstore\n      0x04\n      add\n      tag_58\n      swap1\n      tag_49\n      jump\t// in\n    tag_58:\n      mload(0x40)\n      dup1\n      swap2\n      sub\n      swap1\n      revert\n    tag_57:\n        /* \"contracts/Perpustakaan.sol\":1461:1466  _isbn */\n      dup1\n        /* \"contracts/Perpustakaan.sol\":1440:1445  books */\n      0x01\n        /* \"contracts/Perpustakaan.sol\":1440:1452  books[_isbn] */\n      0x00\n        /* \"contracts/Perpustakaan.sol\":1446:1451  _isbn */\n      dup4\n        /* \"contracts/Perpustakaan.sol\":1440:1452  books[_isbn] */\n      dup2\n      mstore\n      0x20\n      add\n      swap1\n      dup2\n      mstore\n      0x20\n      add\n      0x00\n      keccak256\n        /* \"contracts/Perpustakaan.sol\":1440:1457  books[_isbn].isbn */\n      0x00\n      add\n      sload\n        /* \"contracts/Perpustakaan.sol\":1440:1466  books[_isbn].isbn == _isbn */\n      eq\n        /* \"contracts/Perpustakaan.sol\":1432:1491  require(books[_isbn].isbn == _isbn, \"Buku tidak ditemukan\") */\n      tag_60\n      jumpi\n      mload(0x40)\n      0x08c379a000000000000000000000000000000000000000000000000000000000\n      dup2\n      mstore\n      0x04\n      add\n      tag_61\n      swap1\n      tag_62\n      jump\t// in\n    tag_61:\n      mload(0x40)\n      dup1\n      swap2\n      sub\n      swap1\n      revert\n    tag_60:\n        /* \"contracts/Perpustakaan.sol\":1547:1552  books */\n      0x01\n        /* \"contracts/Perpustakaan.sol\":1547:1559  books[_isbn] */\n      0x00\n        /* \"contracts/Perpustakaan.sol\":1553:1558  _isbn */\n      dup3\n        /* \"contracts/Perpustakaan.sol\":1547:1559  books[_isbn] */\n      dup2\n      mstore\n      0x20\n      add\n      swap1\n      dup2\n      mstore\n      0x20\n      add\n      0x00\n      keccak256\n      0x00\n        /* \"contracts/Perpustakaan.sol\":1540:1559  delete books[_isbn] */\n      dup1\n      dup3\n      add\n      0x00\n      swap1\n      sstore\n      0x01\n      dup3\n      add\n      0x00\n      swap1\n      sstore\n      0x02\n      dup3\n      add\n      0x00\n      tag_63\n      swap2\n      swap1\n      tag_64\n      jump\t// in\n    tag_63:\n      0x03\n      dup3\n      add\n      0x00\n      tag_65\n      swap2\n      swap1\n      tag_64\n      jump\t// in\n    tag_65:\n      pop\n      pop\n        /* \"contracts/Perpustakaan.sol\":1644:1665  uint256 indexToDelete */\n      0x00\n        /* \"contracts/Perpustakaan.sol\":1681:1690  uint256 i */\n      dup1\n        /* \"contracts/Perpustakaan.sol\":1693:1694  0 */\n      0x00\n        /* \"contracts/Perpustakaan.sol\":1681:1694  uint256 i = 0 */\n      swap1\n      pop\n        /* \"contracts/Perpustakaan.sol\":1676:1852  for (uint256 i = 0; i < bookISBNs.length; i++) {... */\n    tag_66:\n        /* \"contracts/Perpustakaan.sol\":1700:1709  bookISBNs */\n      0x02\n        /* \"contracts/Perpustakaan.sol\":1700:1716  bookISBNs.length */\n      dup1\n      sload\n      swap1\n      pop\n        /* \"contracts/Perpustakaan.sol\":1696:1697  i */\n      dup2\n        /* \"contracts/Perpustakaan.sol\":1696:1716  i < bookISBNs.length */\n      lt\n        /* \"contracts/Perpustakaan.sol\":1676:1852  for (uint256 i = 0; i < bookISBNs.length; i++) {... */\n      iszero\n      tag_67\n      jumpi\n        /* \"contracts/Perpustakaan.sol\":1758:1763  _isbn */\n      dup3\n        /* \"contracts/Perpustakaan.sol\":1742:1751  bookISBNs */\n      0x02\n        /* \"contracts/Perpustakaan.sol\":1752:1753  i */\n      dup3\n        /* \"contracts/Perpustakaan.sol\":1742:1754  bookISBNs[i] */\n      dup2\n      sload\n      dup2\n      lt\n      tag_69\n      jumpi\n      tag_70\n      tag_71\n      jump\t// in\n    tag_70:\n    tag_69:\n      swap1\n      0x00\n      mstore\n      keccak256(0x00, 0x20)\n      add\n      sload\n        /* \"contracts/Perpustakaan.sol\":1742:1763  bookISBNs[i] == _isbn */\n      sub\n        /* \"contracts/Perpustakaan.sol\":1738:1841  if (bookISBNs[i] == _isbn) {... */\n      tag_73\n      jumpi\n        /* \"contracts/Perpustakaan.sol\":1800:1801  i */\n      dup1\n        /* \"contracts/Perpustakaan.sol\":1784:1801  indexToDelete = i */\n      swap2\n      pop\n        /* \"contracts/Perpustakaan.sol\":1820:1825  break */\n      jump(tag_67)\n        /* \"contracts/Perpustakaan.sol\":1738:1841  if (bookISBNs[i] == _isbn) {... */\n    tag_73:\n        /* \"contracts/Perpustakaan.sol\":1718:1721  i++ */\n      dup1\n      dup1\n      tag_74\n      swap1\n      tag_75\n      jump\t// in\n    tag_74:\n      swap2\n      pop\n      pop\n        /* \"contracts/Perpustakaan.sol\":1676:1852  for (uint256 i = 0; i < bookISBNs.length; i++) {... */\n      jump(tag_66)\n    tag_67:\n      pop\n        /* \"contracts/Perpustakaan.sol\":1886:1895  bookISBNs */\n      0x02\n        /* \"contracts/Perpustakaan.sol\":1886:1902  bookISBNs.length */\n      dup1\n      sload\n      swap1\n      pop\n        /* \"contracts/Perpustakaan.sol\":1870:1883  indexToDelete */\n      dup2\n        /* \"contracts/Perpustakaan.sol\":1870:1902  indexToDelete < bookISBNs.length */\n      lt\n        /* \"contracts/Perpustakaan.sol\":1862:1934  require(indexToDelete < bookISBNs.length, \"Indeks buku tidak ditemukan\") */\n      tag_76\n      jumpi\n      mload(0x40)\n      0x08c379a000000000000000000000000000000000000000000000000000000000\n      dup2\n      mstore\n      0x04\n      add\n      tag_77\n      swap1\n      tag_78\n      jump\t// in\n    tag_77:\n      mload(0x40)\n      dup1\n      swap2\n      sub\n      swap1\n      revert\n    tag_76:\n        /* \"contracts/Perpustakaan.sol\":2042:2059  uint256 lastIndex */\n      0x00\n        /* \"contracts/Perpustakaan.sol\":2081:2082  1 */\n      0x01\n        /* \"contracts/Perpustakaan.sol\":2062:2071  bookISBNs */\n      0x02\n        /* \"contracts/Perpustakaan.sol\":2062:2078  bookISBNs.length */\n      dup1\n      sload\n      swap1\n      pop\n        /* \"contracts/Perpustakaan.sol\":2062:2082  bookISBNs.length - 1 */\n      tag_79\n      swap2\n      swap1\n      tag_80\n      jump\t// in\n    tag_79:\n        /* \"contracts/Perpustakaan.sol\":2042:2082  uint256 lastIndex = bookISBNs.length - 1 */\n      swap1\n      pop\n        /* \"contracts/Perpustakaan.sol\":2120:2129  bookISBNs */\n      0x02\n        /* \"contracts/Perpustakaan.sol\":2130:2139  lastIndex */\n      dup2\n        /* \"contracts/Perpustakaan.sol\":2120:2140  bookISBNs[lastIndex] */\n      dup2\n      sload\n      dup2\n      lt\n      tag_81\n      jumpi\n      tag_82\n      tag_71\n      jump\t// in\n    tag_82:\n    tag_81:\n      swap1\n      0x00\n      mstore\n      keccak256(0x00, 0x20)\n      add\n      sload\n        /* \"contracts/Perpustakaan.sol\":2093:2102  bookISBNs */\n      0x02\n        /* \"contracts/Perpustakaan.sol\":2103:2116  indexToDelete */\n      dup4\n        /* \"contracts/Perpustakaan.sol\":2093:2117  bookISBNs[indexToDelete] */\n      dup2\n      sload\n      dup2\n      lt\n      tag_84\n      jumpi\n      tag_85\n      tag_71\n      jump\t// in\n    tag_85:\n    tag_84:\n      swap1\n      0x00\n      mstore\n      keccak256(0x00, 0x20)\n      add\n        /* \"contracts/Perpustakaan.sol\":2093:2140  bookISBNs[indexToDelete] = bookISBNs[lastIndex] */\n      dup2\n      swap1\n      sstore\n      pop\n        /* \"contracts/Perpustakaan.sol\":2151:2160  bookISBNs */\n      0x02\n        /* \"contracts/Perpustakaan.sol\":2151:2166  bookISBNs.pop() */\n      dup1\n      sload\n      dup1\n      tag_87\n      jumpi\n      tag_88\n      tag_89\n      jump\t// in\n    tag_88:\n    tag_87:\n      0x01\n      swap1\n      sub\n      dup2\n      dup2\n      swap1\n      0x00\n      mstore\n      keccak256(0x00, 0x20)\n      add\n      0x00\n      swap1\n      sstore\n      swap1\n      sstore\n        /* \"contracts/Perpustakaan.sol\":1421:2174  {... */\n      pop\n      pop\n        /* \"contracts/Perpustakaan.sol\":1367:2174  function deleteBook(uint256 _isbn) external onlyAdmin {... */\n      pop\n      jump\t// out\n        /* \"contracts/Perpustakaan.sol\":1090:1359  function updateBook(uint256 _isbn, uint256 _tahunBuat, string calldata _judul, string calldata _penulis) external onlyAdmin {... */\n    tag_23:\n        /* \"contracts/Perpustakaan.sol\":444:449  admin */\n      0x03\n      0x00\n      swap1\n      sload\n      swap1\n      0x0100\n      exp\n      swap1\n      div\n      0xffffffffffffffffffffffffffffffffffffffff\n      and\n        /* \"contracts/Perpustakaan.sol\":430:449  msg.sender == admin */\n      0xffffffffffffffffffffffffffffffffffffffff\n      and\n        /* \"contracts/Perpustakaan.sol\":430:440  msg.sender */\n      caller\n        /* \"contracts/Perpustakaan.sol\":430:449  msg.sender == admin */\n      0xffffffffffffffffffffffffffffffffffffffff\n      and\n      eq\n        /* \"contracts/Perpustakaan.sol\":422:490  require(msg.sender == admin, \"Hanya admin yang dapat melakukan ini\") */\n      tag_92\n      jumpi\n      mload(0x40)\n      0x08c379a000000000000000000000000000000000000000000000000000000000\n      dup2\n      mstore\n      0x04\n      add\n      tag_93\n      swap1\n      tag_49\n      jump\t// in\n    tag_93:\n      mload(0x40)\n      dup1\n      swap2\n      sub\n      swap1\n      revert\n    tag_92:\n        /* \"contracts/Perpustakaan.sol\":1254:1259  _isbn */\n      dup6\n        /* \"contracts/Perpustakaan.sol\":1233:1238  books */\n      0x01\n        /* \"contracts/Perpustakaan.sol\":1233:1245  books[_isbn] */\n      0x00\n        /* \"contracts/Perpustakaan.sol\":1239:1244  _isbn */\n      dup9\n        /* \"contracts/Perpustakaan.sol\":1233:1245  books[_isbn] */\n      dup2\n      mstore\n      0x20\n      add\n      swap1\n      dup2\n      mstore\n      0x20\n      add\n      0x00\n      keccak256\n        /* \"contracts/Perpustakaan.sol\":1233:1250  books[_isbn].isbn */\n      0x00\n      add\n      sload\n        /* \"contracts/Perpustakaan.sol\":1233:1259  books[_isbn].isbn == _isbn */\n      eq\n        /* \"contracts/Perpustakaan.sol\":1225:1284  require(books[_isbn].isbn == _isbn, \"Buku tidak ditemukan\") */\n      tag_95\n      jumpi\n      mload(0x40)\n      0x08c379a000000000000000000000000000000000000000000000000000000000\n      dup2\n      mstore\n      0x04\n      add\n      tag_96\n      swap1\n      tag_62\n      jump\t// in\n    tag_96:\n      mload(0x40)\n      dup1\n      swap2\n      sub\n      swap1\n      revert\n    tag_95:\n        /* \"contracts/Perpustakaan.sol\":1310:1351  Book(_isbn, _tahunBuat, _judul, _penulis) */\n      mload(0x40)\n      dup1\n      0x80\n      add\n      0x40\n      mstore\n      dup1\n        /* \"contracts/Perpustakaan.sol\":1315:1320  _isbn */\n      dup8\n        /* \"contracts/Perpustakaan.sol\":1310:1351  Book(_isbn, _tahunBuat, _judul, _penulis) */\n      dup2\n      mstore\n      0x20\n      add\n        /* \"contracts/Perpustakaan.sol\":1322:1332  _tahunBuat */\n      dup7\n        /* \"contracts/Perpustakaan.sol\":1310:1351  Book(_isbn, _tahunBuat, _judul, _penulis) */\n      dup2\n      mstore\n      0x20\n      add\n        /* \"contracts/Perpustakaan.sol\":1334:1340  _judul */\n      dup6\n      dup6\n        /* \"contracts/Perpustakaan.sol\":1310:1351  Book(_isbn, _tahunBuat, _judul, _penulis) */\n      dup1\n      dup1\n      0x1f\n      add\n      0x20\n      dup1\n      swap2\n      div\n      mul\n      0x20\n      add\n      mload(0x40)\n      swap1\n      dup2\n      add\n      0x40\n      mstore\n      dup1\n      swap4\n      swap3\n      swap2\n      swap1\n      dup2\n      dup2\n      mstore\n      0x20\n      add\n      dup4\n      dup4\n      dup1\n      dup3\n      dup5\n      calldatacopy\n      0x00\n      dup2\n      dup5\n      add\n      mstore\n      not(0x1f)\n      0x1f\n      dup3\n      add\n      and\n      swap1\n      pop\n      dup1\n      dup4\n      add\n      swap3\n      pop\n      pop\n      pop\n      pop\n      pop\n      pop\n      pop\n      dup2\n      mstore\n      0x20\n      add\n        /* \"contracts/Perpustakaan.sol\":1342:1350  _penulis */\n      dup4\n      dup4\n        /* \"contracts/Perpustakaan.sol\":1310:1351  Book(_isbn, _tahunBuat, _judul, _penulis) */\n      dup1\n      dup1\n      0x1f\n      add\n      0x20\n      dup1\n      swap2\n      div\n      mul\n      0x20\n      add\n      mload(0x40)\n      swap1\n      dup2\n      add\n      0x40\n      mstore\n      dup1\n      swap4\n      swap3\n      swap2\n      swap1\n      dup2\n      dup2\n      mstore\n      0x20\n      add\n      dup4\n      dup4\n      dup1\n      dup3\n      dup5\n      calldatacopy\n      0x00\n      dup2\n      dup5\n      add\n      mstore\n      not(0x1f)\n      0x1f\n      dup3\n      add\n      and\n      swap1\n      pop\n      dup1\n      dup4\n      add\n      swap3\n      pop\n      pop\n      pop\n      pop\n      pop\n      pop\n      pop\n      dup2\n      mstore\n      pop\n        /* \"contracts/Perpustakaan.sol\":1295:1300  books */\n      0x01\n        /* \"contracts/Perpustakaan.sol\":1295:1307  books[_isbn] */\n      0x00\n        /* \"contracts/Perpustakaan.sol\":1301:1306  _isbn */\n      dup9\n        /* \"contracts/Perpustakaan.sol\":1295:1307  books[_isbn] */\n      dup2\n      mstore\n      0x20\n      add\n      swap1\n      dup2\n      mstore\n      0x20\n      add\n      0x00\n      keccak256\n        /* \"contracts/Perpustakaan.sol\":1295:1351  books[_isbn] = Book(_isbn, _tahunBuat, _judul, _penulis) */\n      0x00\n      dup3\n      add\n      mload\n      dup2\n      0x00\n      add\n      sstore\n      0x20\n      dup3\n      add\n      mload\n      dup2\n      0x01\n      add\n      sstore\n      0x40\n      dup3\n      add\n      mload\n      dup2\n      0x02\n      add\n      swap1\n      dup2\n      tag_97\n      swap2\n      swap1\n      tag_53\n      jump\t// in\n    tag_97:\n      pop\n      0x60\n      dup3\n      add\n      mload\n      dup2\n      0x03\n      add\n      swap1\n      dup2\n      tag_98\n      swap2\n      swap1\n      tag_53\n      jump\t// in\n    tag_98:\n      pop\n      swap1\n      pop\n      pop\n        /* \"contracts/Perpustakaan.sol\":1090:1359  function updateBook(uint256 _isbn, uint256 _tahunBuat, string calldata _judul, string calldata _penulis) external onlyAdmin {... */\n      pop\n      pop\n      pop\n      pop\n      pop\n      pop\n      jump\t// out\n        /* \"contracts/Perpustakaan.sol\":250:287  mapping(uint256 => Book) public books */\n    tag_26:\n      mstore(0x20, 0x01)\n      dup1\n      0x00\n      mstore\n      keccak256(0x00, 0x40)\n      0x00\n      swap2\n      pop\n      swap1\n      pop\n      dup1\n      0x00\n      add\n      sload\n      swap1\n      dup1\n      0x01\n      add\n      sload\n      swap1\n      dup1\n      0x02\n      add\n      dup1\n      sload\n      tag_99\n      swap1\n      tag_100\n      jump\t// in\n    tag_99:\n      dup1\n      0x1f\n      add\n      0x20\n      dup1\n      swap2\n      div\n      mul\n      0x20\n      add\n      mload(0x40)\n      swap1\n      dup2\n      add\n      0x40\n      mstore\n      dup1\n      swap3\n      swap2\n      swap1\n      dup2\n      dup2\n      mstore\n      0x20\n      add\n      dup3\n      dup1\n      sload\n      tag_101\n      swap1\n      tag_100\n      jump\t// in\n    tag_101:\n      dup1\n      iszero\n      tag_102\n      jumpi\n      dup1\n      0x1f\n      lt\n      tag_103\n      jumpi\n      0x0100\n      dup1\n      dup4\n      sload\n      div\n      mul\n      dup4\n      mstore\n      swap2\n      0x20\n      add\n      swap2\n      jump(tag_102)\n    tag_103:\n      dup3\n      add\n      swap2\n      swap1\n      0x00\n      mstore\n      keccak256(0x00, 0x20)\n      swap1\n    tag_104:\n      dup2\n      sload\n      dup2\n      mstore\n      swap1\n      0x01\n      add\n      swap1\n      0x20\n      add\n      dup1\n      dup4\n      gt\n      tag_104\n      jumpi\n      dup3\n      swap1\n      sub\n      0x1f\n      and\n      dup3\n      add\n      swap2\n    tag_102:\n      pop\n      pop\n      pop\n      pop\n      pop\n      swap1\n      dup1\n      0x03\n      add\n      dup1\n      sload\n      tag_105\n      swap1\n      tag_100\n      jump\t// in\n    tag_105:\n      dup1\n      0x1f\n      add\n      0x20\n      dup1\n      swap2\n      div\n      mul\n      0x20\n      add\n      mload(0x40)\n      swap1\n      dup2\n      add\n      0x40\n      mstore\n      dup1\n      swap3\n      swap2\n      swap1\n      dup2\n      dup2\n      mstore\n      0x20\n      add\n      dup3\n      dup1\n      sload\n      tag_106\n      swap1\n      tag_100\n      jump\t// in\n    tag_106:\n      dup1\n      iszero\n      tag_107\n      jumpi\n      dup1\n      0x1f\n      lt\n      tag_108\n      jumpi\n      0x0100\n      dup1\n      dup4\n      sload\n      div\n      mul\n      dup4\n      mstore\n      swap2\n      0x20\n      add\n      swap2\n      jump(tag_107)\n    tag_108:\n      dup3\n      add\n      swap2\n      swap1\n      0x00\n      mstore\n      keccak256(0x00, 0x20)\n      swap1\n    tag_109:\n      dup2\n      sload\n      dup2\n      mstore\n      swap1\n      0x01\n      add\n      swap1\n      0x20\n      add\n      dup1\n      dup4\n      gt\n      tag_109\n      jumpi\n      dup3\n      swap1\n      sub\n      0x1f\n      and\n      dup3\n      add\n      swap2\n    tag_107:\n      pop\n      pop\n      pop\n      pop\n      pop\n      swap1\n      pop\n      dup5\n      jump\t// out\n        /* \"contracts/Perpustakaan.sol\":294:320  uint256[] public bookISBNs */\n    tag_31:\n      0x02\n      dup2\n      dup2\n      sload\n      dup2\n      lt\n      tag_110\n      jumpi\n      0x00\n      dup1\n      revert\n    tag_110:\n      swap1\n      0x00\n      mstore\n      keccak256(0x00, 0x20)\n      add\n      0x00\n      swap2\n      pop\n      swap1\n      pop\n      sload\n      dup2\n      jump\t// out\n        /* \"contracts/Perpustakaan.sol\":577:818  function generateRandomIsbn() public returns (uint256) {... */\n    tag_35:\n        /* \"contracts/Perpustakaan.sol\":623:630  uint256 */\n      0x00\n        /* \"contracts/Perpustakaan.sol\":643:648  nonce */\n      dup1\n      0x00\n        /* \"contracts/Perpustakaan.sol\":643:650  nonce++ */\n      dup2\n      sload\n      dup1\n      swap3\n      swap2\n      swap1\n      tag_113\n      swap1\n      tag_75\n      jump\t// in\n    tag_113:\n      swap2\n      swap1\n      pop\n      sstore\n      pop\n        /* \"contracts/Perpustakaan.sol\":661:680  bytes32 combineData */\n      0x00\n        /* \"contracts/Perpustakaan.sol\":714:719  nonce */\n      dup1\n      sload\n        /* \"contracts/Perpustakaan.sol\":693:720  abi.encodePacked('', nonce) */\n      add(0x20, mload(0x40))\n      tag_114\n      swap2\n      swap1\n      tag_115\n      jump\t// in\n    tag_114:\n      mload(0x40)\n      0x20\n      dup2\n      dup4\n      sub\n      sub\n      dup2\n      mstore\n      swap1\n      0x40\n      mstore\n        /* \"contracts/Perpustakaan.sol\":683:721  keccak256(abi.encodePacked('', nonce)) */\n      dup1\n      mload\n      swap1\n      0x20\n      add\n      keccak256\n        /* \"contracts/Perpustakaan.sol\":661:721  bytes32 combineData = keccak256(abi.encodePacked('', nonce)) */\n      swap1\n      pop\n        /* \"contracts/Perpustakaan.sol\":732:750  uint256 randomIsbn */\n      0x00\n        /* \"contracts/Perpustakaan.sol\":776:782  10**13 */\n      0x09184e72a000\n        /* \"contracts/Perpustakaan.sol\":761:772  combineData */\n      dup3\n        /* \"contracts/Perpustakaan.sol\":753:773  uint256(combineData) */\n      0x00\n      shr\n        /* \"contracts/Perpustakaan.sol\":753:782  uint256(combineData) % 10**13 */\n      tag_116\n      swap2\n      swap1\n      tag_117\n      jump\t// in\n    tag_116:\n        /* \"contracts/Perpustakaan.sol\":732:782  uint256 randomIsbn = uint256(combineData) % 10**13 */\n      swap1\n      pop\n        /* \"contracts/Perpustakaan.sol\":800:810  randomIsbn */\n      dup1\n        /* \"contracts/Perpustakaan.sol\":793:810  return randomIsbn */\n      swap3\n      pop\n      pop\n      pop\n        /* \"contracts/Perpustakaan.sol\":577:818  function generateRandomIsbn() public returns (uint256) {... */\n      swap1\n      jump\t// out\n        /* \"contracts/Perpustakaan.sol\":2182:2320  function getBook(uint256 _isbn) public view returns (bool){... */\n    tag_39:\n        /* \"contracts/Perpustakaan.sol\":2235:2239  bool */\n      0x00\n        /* \"contracts/Perpustakaan.sol\":2275:2276  0 */\n      dup1\n        /* \"contracts/Perpustakaan.sol\":2254:2259  books */\n      0x01\n        /* \"contracts/Perpustakaan.sol\":2254:2266  books[_isbn] */\n      0x00\n        /* \"contracts/Perpustakaan.sol\":2260:2265  _isbn */\n      dup5\n        /* \"contracts/Perpustakaan.sol\":2254:2266  books[_isbn] */\n      dup2\n      mstore\n      0x20\n      add\n      swap1\n      dup2\n      mstore\n      0x20\n      add\n      0x00\n      keccak256\n        /* \"contracts/Perpustakaan.sol\":2254:2271  books[_isbn].isbn */\n      0x00\n      add\n      sload\n        /* \"contracts/Perpustakaan.sol\":2254:2276  books[_isbn].isbn == 0 */\n      sub\n        /* \"contracts/Perpustakaan.sol\":2251:2290  if(books[_isbn].isbn == 0) return false */\n      tag_119\n      jumpi\n        /* \"contracts/Perpustakaan.sol\":2285:2290  false */\n      0x00\n        /* \"contracts/Perpustakaan.sol\":2278:2290  return false */\n      swap1\n      pop\n      jump(tag_118)\n        /* \"contracts/Perpustakaan.sol\":2251:2290  if(books[_isbn].isbn == 0) return false */\n    tag_119:\n        /* \"contracts/Perpustakaan.sol\":2308:2312  true */\n      0x01\n        /* \"contracts/Perpustakaan.sol\":2301:2312  return true */\n      swap1\n      pop\n        /* \"contracts/Perpustakaan.sol\":2182:2320  function getBook(uint256 _isbn) public view returns (bool){... */\n    tag_118:\n      swap2\n      swap1\n      pop\n      jump\t// out\n        /* \"contracts/Perpustakaan.sol\":363:383  address public admin */\n    tag_43:\n      0x03\n      0x00\n      swap1\n      sload\n      swap1\n      0x0100\n      exp\n      swap1\n      div\n      0xffffffffffffffffffffffffffffffffffffffff\n      and\n      dup2\n      jump\t// out\n    tag_64:\n      pop\n      dup1\n      sload\n      tag_120\n      swap1\n      tag_100\n      jump\t// in\n    tag_120:\n      0x00\n      dup3\n      sstore\n      dup1\n      0x1f\n      lt\n      tag_122\n      jumpi\n      pop\n      jump(tag_121)\n    tag_122:\n      0x1f\n      add\n      0x20\n      swap1\n      div\n      swap1\n      0x00\n      mstore\n      keccak256(0x00, 0x20)\n      swap1\n      dup2\n      add\n      swap1\n      tag_123\n      swap2\n      swap1\n      tag_124\n      jump\t// in\n    tag_123:\n    tag_121:\n      pop\n      jump\t// out\n    tag_124:\n    tag_125:\n      dup1\n      dup3\n      gt\n      iszero\n      tag_126\n      jumpi\n      0x00\n      dup2\n      0x00\n      swap1\n      sstore\n      pop\n      0x01\n      add\n      jump(tag_125)\n    tag_126:\n      pop\n      swap1\n      jump\t// out\n        /* \"#utility.yul\":88:205   */\n    tag_128:\n        /* \"#utility.yul\":197:198   */\n      0x00\n        /* \"#utility.yul\":194:195   */\n      dup1\n        /* \"#utility.yul\":187:199   */\n      revert\n        /* \"#utility.yul\":211:328   */\n    tag_129:\n        /* \"#utility.yul\":320:321   */\n      0x00\n        /* \"#utility.yul\":317:318   */\n      dup1\n        /* \"#utility.yul\":310:322   */\n      revert\n        /* \"#utility.yul\":334:411   */\n    tag_130:\n        /* \"#utility.yul\":371:378   */\n      0x00\n        /* \"#utility.yul\":400:405   */\n      dup2\n        /* \"#utility.yul\":389:405   */\n      swap1\n      pop\n        /* \"#utility.yul\":334:411   */\n      swap2\n      swap1\n      pop\n      jump\t// out\n        /* \"#utility.yul\":417:539   */\n    tag_131:\n        /* \"#utility.yul\":490:514   */\n      tag_184\n        /* \"#utility.yul\":508:513   */\n      dup2\n        /* \"#utility.yul\":490:514   */\n      tag_130\n      jump\t// in\n    tag_184:\n        /* \"#utility.yul\":483:488   */\n      dup2\n        /* \"#utility.yul\":480:515   */\n      eq\n        /* \"#utility.yul\":470:533   */\n      tag_185\n      jumpi\n        /* \"#utility.yul\":529:530   */\n      0x00\n        /* \"#utility.yul\":526:527   */\n      dup1\n        /* \"#utility.yul\":519:531   */\n      revert\n        /* \"#utility.yul\":470:533   */\n    tag_185:\n        /* \"#utility.yul\":417:539   */\n      pop\n      jump\t// out\n        /* \"#utility.yul\":545:684   */\n    tag_132:\n        /* \"#utility.yul\":591:596   */\n      0x00\n        /* \"#utility.yul\":629:635   */\n      dup2\n        /* \"#utility.yul\":616:636   */\n      calldataload\n        /* \"#utility.yul\":607:636   */\n      swap1\n      pop\n        /* \"#utility.yul\":645:678   */\n      tag_187\n        /* \"#utility.yul\":672:677   */\n      dup2\n        /* \"#utility.yul\":645:678   */\n      tag_131\n      jump\t// in\n    tag_187:\n        /* \"#utility.yul\":545:684   */\n      swap3\n      swap2\n      pop\n      pop\n      jump\t// out\n        /* \"#utility.yul\":690:807   */\n    tag_133:\n        /* \"#utility.yul\":799:800   */\n      0x00\n        /* \"#utility.yul\":796:797   */\n      dup1\n        /* \"#utility.yul\":789:801   */\n      revert\n        /* \"#utility.yul\":813:930   */\n    tag_134:\n        /* \"#utility.yul\":922:923   */\n      0x00\n        /* \"#utility.yul\":919:920   */\n      dup1\n        /* \"#utility.yul\":912:924   */\n      revert\n        /* \"#utility.yul\":936:1053   */\n    tag_135:\n        /* \"#utility.yul\":1045:1046   */\n      0x00\n        /* \"#utility.yul\":1042:1043   */\n      dup1\n        /* \"#utility.yul\":1035:1047   */\n      revert\n        /* \"#utility.yul\":1073:1626   */\n    tag_136:\n        /* \"#utility.yul\":1131:1139   */\n      0x00\n        /* \"#utility.yul\":1141:1147   */\n      dup1\n        /* \"#utility.yul\":1191:1194   */\n      dup4\n        /* \"#utility.yul\":1184:1188   */\n      0x1f\n        /* \"#utility.yul\":1176:1182   */\n      dup5\n        /* \"#utility.yul\":1172:1189   */\n      add\n        /* \"#utility.yul\":1168:1195   */\n      slt\n        /* \"#utility.yul\":1158:1280   */\n      tag_192\n      jumpi\n        /* \"#utility.yul\":1199:1278   */\n      tag_193\n      tag_133\n      jump\t// in\n    tag_193:\n        /* \"#utility.yul\":1158:1280   */\n    tag_192:\n        /* \"#utility.yul\":1312:1318   */\n      dup3\n        /* \"#utility.yul\":1299:1319   */\n      calldataload\n        /* \"#utility.yul\":1289:1319   */\n      swap1\n      pop\n        /* \"#utility.yul\":1342:1360   */\n      0xffffffffffffffff\n        /* \"#utility.yul\":1334:1340   */\n      dup2\n        /* \"#utility.yul\":1331:1361   */\n      gt\n        /* \"#utility.yul\":1328:1445   */\n      iszero\n      tag_194\n      jumpi\n        /* \"#utility.yul\":1364:1443   */\n      tag_195\n      tag_134\n      jump\t// in\n    tag_195:\n        /* \"#utility.yul\":1328:1445   */\n    tag_194:\n        /* \"#utility.yul\":1478:1482   */\n      0x20\n        /* \"#utility.yul\":1470:1476   */\n      dup4\n        /* \"#utility.yul\":1466:1483   */\n      add\n        /* \"#utility.yul\":1454:1483   */\n      swap2\n      pop\n        /* \"#utility.yul\":1532:1535   */\n      dup4\n        /* \"#utility.yul\":1524:1528   */\n      0x01\n        /* \"#utility.yul\":1516:1522   */\n      dup3\n        /* \"#utility.yul\":1512:1529   */\n      mul\n        /* \"#utility.yul\":1502:1510   */\n      dup4\n        /* \"#utility.yul\":1498:1530   */\n      add\n        /* \"#utility.yul\":1495:1536   */\n      gt\n        /* \"#utility.yul\":1492:1620   */\n      iszero\n      tag_196\n      jumpi\n        /* \"#utility.yul\":1539:1618   */\n      tag_197\n      tag_135\n      jump\t// in\n    tag_197:\n        /* \"#utility.yul\":1492:1620   */\n    tag_196:\n        /* \"#utility.yul\":1073:1626   */\n      swap3\n      pop\n      swap3\n      swap1\n      pop\n      jump\t// out\n        /* \"#utility.yul\":1632:2651   */\n    tag_14:\n        /* \"#utility.yul\":1733:1739   */\n      0x00\n        /* \"#utility.yul\":1741:1747   */\n      dup1\n        /* \"#utility.yul\":1749:1755   */\n      0x00\n        /* \"#utility.yul\":1757:1763   */\n      dup1\n        /* \"#utility.yul\":1765:1771   */\n      0x00\n        /* \"#utility.yul\":1814:1816   */\n      0x60\n        /* \"#utility.yul\":1802:1811   */\n      dup7\n        /* \"#utility.yul\":1793:1800   */\n      dup9\n        /* \"#utility.yul\":1789:1812   */\n      sub\n        /* \"#utility.yul\":1785:1817   */\n      slt\n        /* \"#utility.yul\":1782:1901   */\n      iszero\n      tag_199\n      jumpi\n        /* \"#utility.yul\":1820:1899   */\n      tag_200\n      tag_128\n      jump\t// in\n    tag_200:\n        /* \"#utility.yul\":1782:1901   */\n    tag_199:\n        /* \"#utility.yul\":1940:1941   */\n      0x00\n        /* \"#utility.yul\":1965:2018   */\n      tag_201\n        /* \"#utility.yul\":2010:2017   */\n      dup9\n        /* \"#utility.yul\":2001:2007   */\n      dup3\n        /* \"#utility.yul\":1990:1999   */\n      dup10\n        /* \"#utility.yul\":1986:2008   */\n      add\n        /* \"#utility.yul\":1965:2018   */\n      tag_132\n      jump\t// in\n    tag_201:\n        /* \"#utility.yul\":1955:2018   */\n      swap6\n      pop\n        /* \"#utility.yul\":1911:2028   */\n      pop\n        /* \"#utility.yul\":2095:2097   */\n      0x20\n        /* \"#utility.yul\":2084:2093   */\n      dup7\n        /* \"#utility.yul\":2080:2098   */\n      add\n        /* \"#utility.yul\":2067:2099   */\n      calldataload\n        /* \"#utility.yul\":2126:2144   */\n      0xffffffffffffffff\n        /* \"#utility.yul\":2118:2124   */\n      dup2\n        /* \"#utility.yul\":2115:2145   */\n      gt\n        /* \"#utility.yul\":2112:2229   */\n      iszero\n      tag_202\n      jumpi\n        /* \"#utility.yul\":2148:2227   */\n      tag_203\n      tag_129\n      jump\t// in\n    tag_203:\n        /* \"#utility.yul\":2112:2229   */\n    tag_202:\n        /* \"#utility.yul\":2261:2326   */\n      tag_204\n        /* \"#utility.yul\":2318:2325   */\n      dup9\n        /* \"#utility.yul\":2309:2315   */\n      dup3\n        /* \"#utility.yul\":2298:2307   */\n      dup10\n        /* \"#utility.yul\":2294:2316   */\n      add\n        /* \"#utility.yul\":2261:2326   */\n      tag_136\n      jump\t// in\n    tag_204:\n        /* \"#utility.yul\":2243:2326   */\n      swap5\n      pop\n      swap5\n      pop\n        /* \"#utility.yul\":2038:2336   */\n      pop\n        /* \"#utility.yul\":2403:2405   */\n      0x40\n        /* \"#utility.yul\":2392:2401   */\n      dup7\n        /* \"#utility.yul\":2388:2406   */\n      add\n        /* \"#utility.yul\":2375:2407   */\n      calldataload\n        /* \"#utility.yul\":2434:2452   */\n      0xffffffffffffffff\n        /* \"#utility.yul\":2426:2432   */\n      dup2\n        /* \"#utility.yul\":2423:2453   */\n      gt\n        /* \"#utility.yul\":2420:2537   */\n      iszero\n      tag_205\n      jumpi\n        /* \"#utility.yul\":2456:2535   */\n      tag_206\n      tag_129\n      jump\t// in\n    tag_206:\n        /* \"#utility.yul\":2420:2537   */\n    tag_205:\n        /* \"#utility.yul\":2569:2634   */\n      tag_207\n        /* \"#utility.yul\":2626:2633   */\n      dup9\n        /* \"#utility.yul\":2617:2623   */\n      dup3\n        /* \"#utility.yul\":2606:2615   */\n      dup10\n        /* \"#utility.yul\":2602:2624   */\n      add\n        /* \"#utility.yul\":2569:2634   */\n      tag_136\n      jump\t// in\n    tag_207:\n        /* \"#utility.yul\":2551:2634   */\n      swap3\n      pop\n      swap3\n      pop\n        /* \"#utility.yul\":2346:2644   */\n      pop\n        /* \"#utility.yul\":1632:2651   */\n      swap3\n      swap6\n      pop\n      swap3\n      swap6\n      swap1\n      swap4\n      pop\n      jump\t// out\n        /* \"#utility.yul\":2657:2986   */\n    tag_18:\n        /* \"#utility.yul\":2716:2722   */\n      0x00\n        /* \"#utility.yul\":2765:2767   */\n      0x20\n        /* \"#utility.yul\":2753:2762   */\n      dup3\n        /* \"#utility.yul\":2744:2751   */\n      dup5\n        /* \"#utility.yul\":2740:2763   */\n      sub\n        /* \"#utility.yul\":2736:2768   */\n      slt\n        /* \"#utility.yul\":2733:2852   */\n      iszero\n      tag_209\n      jumpi\n        /* \"#utility.yul\":2771:2850   */\n      tag_210\n      tag_128\n      jump\t// in\n    tag_210:\n        /* \"#utility.yul\":2733:2852   */\n    tag_209:\n        /* \"#utility.yul\":2891:2892   */\n      0x00\n        /* \"#utility.yul\":2916:2969   */\n      tag_211\n        /* \"#utility.yul\":2961:2968   */\n      dup5\n        /* \"#utility.yul\":2952:2958   */\n      dup3\n        /* \"#utility.yul\":2941:2950   */\n      dup6\n        /* \"#utility.yul\":2937:2959   */\n      add\n        /* \"#utility.yul\":2916:2969   */\n      tag_132\n      jump\t// in\n    tag_211:\n        /* \"#utility.yul\":2906:2969   */\n      swap2\n      pop\n        /* \"#utility.yul\":2862:2979   */\n      pop\n        /* \"#utility.yul\":2657:2986   */\n      swap3\n      swap2\n      pop\n      pop\n      jump\t// out\n        /* \"#utility.yul\":2992:4157   */\n    tag_22:\n        /* \"#utility.yul\":3102:3108   */\n      0x00\n        /* \"#utility.yul\":3110:3116   */\n      dup1\n        /* \"#utility.yul\":3118:3124   */\n      0x00\n        /* \"#utility.yul\":3126:3132   */\n      dup1\n        /* \"#utility.yul\":3134:3140   */\n      0x00\n        /* \"#utility.yul\":3142:3148   */\n      dup1\n        /* \"#utility.yul\":3191:3194   */\n      0x80\n        /* \"#utility.yul\":3179:3188   */\n      dup8\n        /* \"#utility.yul\":3170:3177   */\n      dup10\n        /* \"#utility.yul\":3166:3189   */\n      sub\n        /* \"#utility.yul\":3162:3195   */\n      slt\n        /* \"#utility.yul\":3159:3279   */\n      iszero\n      tag_213\n      jumpi\n        /* \"#utility.yul\":3198:3277   */\n      tag_214\n      tag_128\n      jump\t// in\n    tag_214:\n        /* \"#utility.yul\":3159:3279   */\n    tag_213:\n        /* \"#utility.yul\":3318:3319   */\n      0x00\n        /* \"#utility.yul\":3343:3396   */\n      tag_215\n        /* \"#utility.yul\":3388:3395   */\n      dup10\n        /* \"#utility.yul\":3379:3385   */\n      dup3\n        /* \"#utility.yul\":3368:3377   */\n      dup11\n        /* \"#utility.yul\":3364:3386   */\n      add\n        /* \"#utility.yul\":3343:3396   */\n      tag_132\n      jump\t// in\n    tag_215:\n        /* \"#utility.yul\":3333:3396   */\n      swap7\n      pop\n        /* \"#utility.yul\":3289:3406   */\n      pop\n        /* \"#utility.yul\":3445:3447   */\n      0x20\n        /* \"#utility.yul\":3471:3524   */\n      tag_216\n        /* \"#utility.yul\":3516:3523   */\n      dup10\n        /* \"#utility.yul\":3507:3513   */\n      dup3\n        /* \"#utility.yul\":3496:3505   */\n      dup11\n        /* \"#utility.yul\":3492:3514   */\n      add\n        /* \"#utility.yul\":3471:3524   */\n      tag_132\n      jump\t// in\n    tag_216:\n        /* \"#utility.yul\":3461:3524   */\n      swap6\n      pop\n        /* \"#utility.yul\":3416:3534   */\n      pop\n        /* \"#utility.yul\":3601:3603   */\n      0x40\n        /* \"#utility.yul\":3590:3599   */\n      dup8\n        /* \"#utility.yul\":3586:3604   */\n      add\n        /* \"#utility.yul\":3573:3605   */\n      calldataload\n        /* \"#utility.yul\":3632:3650   */\n      0xffffffffffffffff\n        /* \"#utility.yul\":3624:3630   */\n      dup2\n        /* \"#utility.yul\":3621:3651   */\n      gt\n        /* \"#utility.yul\":3618:3735   */\n      iszero\n      tag_217\n      jumpi\n        /* \"#utility.yul\":3654:3733   */\n      tag_218\n      tag_129\n      jump\t// in\n    tag_218:\n        /* \"#utility.yul\":3618:3735   */\n    tag_217:\n        /* \"#utility.yul\":3767:3832   */\n      tag_219\n        /* \"#utility.yul\":3824:3831   */\n      dup10\n        /* \"#utility.yul\":3815:3821   */\n      dup3\n        /* \"#utility.yul\":3804:3813   */\n      dup11\n        /* \"#utility.yul\":3800:3822   */\n      add\n        /* \"#utility.yul\":3767:3832   */\n      tag_136\n      jump\t// in\n    tag_219:\n        /* \"#utility.yul\":3749:3832   */\n      swap5\n      pop\n      swap5\n      pop\n        /* \"#utility.yul\":3544:3842   */\n      pop\n        /* \"#utility.yul\":3909:3911   */\n      0x60\n        /* \"#utility.yul\":3898:3907   */\n      dup8\n        /* \"#utility.yul\":3894:3912   */\n      add\n        /* \"#utility.yul\":3881:3913   */\n      calldataload\n        /* \"#utility.yul\":3940:3958   */\n      0xffffffffffffffff\n        /* \"#utility.yul\":3932:3938   */\n      dup2\n        /* \"#utility.yul\":3929:3959   */\n      gt\n        /* \"#utility.yul\":3926:4043   */\n      iszero\n      tag_220\n      jumpi\n        /* \"#utility.yul\":3962:4041   */\n      tag_221\n      tag_129\n      jump\t// in\n    tag_221:\n        /* \"#utility.yul\":3926:4043   */\n    tag_220:\n        /* \"#utility.yul\":4075:4140   */\n      tag_222\n        /* \"#utility.yul\":4132:4139   */\n      dup10\n        /* \"#utility.yul\":4123:4129   */\n      dup3\n        /* \"#utility.yul\":4112:4121   */\n      dup11\n        /* \"#utility.yul\":4108:4130   */\n      add\n        /* \"#utility.yul\":4075:4140   */\n      tag_136\n      jump\t// in\n    tag_222:\n        /* \"#utility.yul\":4057:4140   */\n      swap3\n      pop\n      swap3\n      pop\n        /* \"#utility.yul\":3852:4150   */\n      pop\n        /* \"#utility.yul\":2992:4157   */\n      swap3\n      swap6\n      pop\n      swap3\n      swap6\n      pop\n      swap3\n      swap6\n      jump\t// out\n        /* \"#utility.yul\":4163:4281   */\n    tag_137:\n        /* \"#utility.yul\":4250:4274   */\n      tag_224\n        /* \"#utility.yul\":4268:4273   */\n      dup2\n        /* \"#utility.yul\":4250:4274   */\n      tag_130\n      jump\t// in\n    tag_224:\n        /* \"#utility.yul\":4245:4248   */\n      dup3\n        /* \"#utility.yul\":4238:4275   */\n      mstore\n        /* \"#utility.yul\":4163:4281   */\n      pop\n      pop\n      jump\t// out\n        /* \"#utility.yul\":4287:4386   */\n    tag_138:\n        /* \"#utility.yul\":4339:4345   */\n      0x00\n        /* \"#utility.yul\":4373:4378   */\n      dup2\n        /* \"#utility.yul\":4367:4379   */\n      mload\n        /* \"#utility.yul\":4357:4379   */\n      swap1\n      pop\n        /* \"#utility.yul\":4287:4386   */\n      swap2\n      swap1\n      pop\n      jump\t// out\n        /* \"#utility.yul\":4392:4561   */\n    tag_139:\n        /* \"#utility.yul\":4476:4487   */\n      0x00\n        /* \"#utility.yul\":4510:4516   */\n      dup3\n        /* \"#utility.yul\":4505:4508   */\n      dup3\n        /* \"#utility.yul\":4498:4517   */\n      mstore\n        /* \"#utility.yul\":4550:4554   */\n      0x20\n        /* \"#utility.yul\":4545:4548   */\n      dup3\n        /* \"#utility.yul\":4541:4555   */\n      add\n        /* \"#utility.yul\":4526:4555   */\n      swap1\n      pop\n        /* \"#utility.yul\":4392:4561   */\n      swap3\n      swap2\n      pop\n      pop\n      jump\t// out\n        /* \"#utility.yul\":4567:4813   */\n    tag_140:\n        /* \"#utility.yul\":4648:4649   */\n      0x00\n        /* \"#utility.yul\":4658:4771   */\n    tag_228:\n        /* \"#utility.yul\":4672:4678   */\n      dup4\n        /* \"#utility.yul\":4669:4670   */\n      dup2\n        /* \"#utility.yul\":4666:4679   */\n      lt\n        /* \"#utility.yul\":4658:4771   */\n      iszero\n      tag_230\n      jumpi\n        /* \"#utility.yul\":4757:4758   */\n      dup1\n        /* \"#utility.yul\":4752:4755   */\n      dup3\n        /* \"#utility.yul\":4748:4759   */\n      add\n        /* \"#utility.yul\":4742:4760   */\n      mload\n        /* \"#utility.yul\":4738:4739   */\n      dup2\n        /* \"#utility.yul\":4733:4736   */\n      dup5\n        /* \"#utility.yul\":4729:4740   */\n      add\n        /* \"#utility.yul\":4722:4761   */\n      mstore\n        /* \"#utility.yul\":4694:4696   */\n      0x20\n        /* \"#utility.yul\":4691:4692   */\n      dup2\n        /* \"#utility.yul\":4687:4697   */\n      add\n        /* \"#utility.yul\":4682:4697   */\n      swap1\n      pop\n        /* \"#utility.yul\":4658:4771   */\n      jump(tag_228)\n    tag_230:\n        /* \"#utility.yul\":4805:4806   */\n      0x00\n        /* \"#utility.yul\":4796:4802   */\n      dup5\n        /* \"#utility.yul\":4791:4794   */\n      dup5\n        /* \"#utility.yul\":4787:4803   */\n      add\n        /* \"#utility.yul\":4780:4807   */\n      mstore\n        /* \"#utility.yul\":4629:4813   */\n      pop\n        /* \"#utility.yul\":4567:4813   */\n      pop\n      pop\n      pop\n      jump\t// out\n        /* \"#utility.yul\":4819:4921   */\n    tag_141:\n        /* \"#utility.yul\":4860:4866   */\n      0x00\n        /* \"#utility.yul\":4911:4913   */\n      0x1f\n        /* \"#utility.yul\":4907:4914   */\n      not\n        /* \"#utility.yul\":4902:4904   */\n      0x1f\n        /* \"#utility.yul\":4895:4900   */\n      dup4\n        /* \"#utility.yul\":4891:4905   */\n      add\n        /* \"#utility.yul\":4887:4915   */\n      and\n        /* \"#utility.yul\":4877:4915   */\n      swap1\n      pop\n        /* \"#utility.yul\":4819:4921   */\n      swap2\n      swap1\n      pop\n      jump\t// out\n        /* \"#utility.yul\":4927:5304   */\n    tag_142:\n        /* \"#utility.yul\":5015:5018   */\n      0x00\n        /* \"#utility.yul\":5043:5082   */\n      tag_233\n        /* \"#utility.yul\":5076:5081   */\n      dup3\n        /* \"#utility.yul\":5043:5082   */\n      tag_138\n      jump\t// in\n    tag_233:\n        /* \"#utility.yul\":5098:5169   */\n      tag_234\n        /* \"#utility.yul\":5162:5168   */\n      dup2\n        /* \"#utility.yul\":5157:5160   */\n      dup6\n        /* \"#utility.yul\":5098:5169   */\n      tag_139\n      jump\t// in\n    tag_234:\n        /* \"#utility.yul\":5091:5169   */\n      swap4\n      pop\n        /* \"#utility.yul\":5178:5243   */\n      tag_235\n        /* \"#utility.yul\":5236:5242   */\n      dup2\n        /* \"#utility.yul\":5231:5234   */\n      dup6\n        /* \"#utility.yul\":5224:5228   */\n      0x20\n        /* \"#utility.yul\":5217:5222   */\n      dup7\n        /* \"#utility.yul\":5213:5229   */\n      add\n        /* \"#utility.yul\":5178:5243   */\n      tag_140\n      jump\t// in\n    tag_235:\n        /* \"#utility.yul\":5268:5297   */\n      tag_236\n        /* \"#utility.yul\":5290:5296   */\n      dup2\n        /* \"#utility.yul\":5268:5297   */\n      tag_141\n      jump\t// in\n    tag_236:\n        /* \"#utility.yul\":5263:5266   */\n      dup5\n        /* \"#utility.yul\":5259:5298   */\n      add\n        /* \"#utility.yul\":5252:5298   */\n      swap2\n      pop\n        /* \"#utility.yul\":5019:5304   */\n      pop\n        /* \"#utility.yul\":4927:5304   */\n      swap3\n      swap2\n      pop\n      pop\n      jump\t// out\n        /* \"#utility.yul\":5310:6045   */\n    tag_28:\n        /* \"#utility.yul\":5527:5531   */\n      0x00\n        /* \"#utility.yul\":5565:5568   */\n      0x80\n        /* \"#utility.yul\":5554:5563   */\n      dup3\n        /* \"#utility.yul\":5550:5569   */\n      add\n        /* \"#utility.yul\":5542:5569   */\n      swap1\n      pop\n        /* \"#utility.yul\":5579:5650   */\n      tag_238\n        /* \"#utility.yul\":5647:5648   */\n      0x00\n        /* \"#utility.yul\":5636:5645   */\n      dup4\n        /* \"#utility.yul\":5632:5649   */\n      add\n        /* \"#utility.yul\":5623:5629   */\n      dup8\n        /* \"#utility.yul\":5579:5650   */\n      tag_137\n      jump\t// in\n    tag_238:\n        /* \"#utility.yul\":5660:5732   */\n      tag_239\n        /* \"#utility.yul\":5728:5730   */\n      0x20\n        /* \"#utility.yul\":5717:5726   */\n      dup4\n        /* \"#utility.yul\":5713:5731   */\n      add\n        /* \"#utility.yul\":5704:5710   */\n      dup7\n        /* \"#utility.yul\":5660:5732   */\n      tag_137\n      jump\t// in\n    tag_239:\n        /* \"#utility.yul\":5779:5788   */\n      dup2\n        /* \"#utility.yul\":5773:5777   */\n      dup2\n        /* \"#utility.yul\":5769:5789   */\n      sub\n        /* \"#utility.yul\":5764:5766   */\n      0x40\n        /* \"#utility.yul\":5753:5762   */\n      dup4\n        /* \"#utility.yul\":5749:5767   */\n      add\n        /* \"#utility.yul\":5742:5790   */\n      mstore\n        /* \"#utility.yul\":5807:5885   */\n      tag_240\n        /* \"#utility.yul\":5880:5884   */\n      dup2\n        /* \"#utility.yul\":5871:5877   */\n      dup6\n        /* \"#utility.yul\":5807:5885   */\n      tag_142\n      jump\t// in\n    tag_240:\n        /* \"#utility.yul\":5799:5885   */\n      swap1\n      pop\n        /* \"#utility.yul\":5932:5941   */\n      dup2\n        /* \"#utility.yul\":5926:5930   */\n      dup2\n        /* \"#utility.yul\":5922:5942   */\n      sub\n        /* \"#utility.yul\":5917:5919   */\n      0x60\n        /* \"#utility.yul\":5906:5915   */\n      dup4\n        /* \"#utility.yul\":5902:5920   */\n      add\n        /* \"#utility.yul\":5895:5943   */\n      mstore\n        /* \"#utility.yul\":5960:6038   */\n      tag_241\n        /* \"#utility.yul\":6033:6037   */\n      dup2\n        /* \"#utility.yul\":6024:6030   */\n      dup5\n        /* \"#utility.yul\":5960:6038   */\n      tag_142\n      jump\t// in\n    tag_241:\n        /* \"#utility.yul\":5952:6038   */\n      swap1\n      pop\n        /* \"#utility.yul\":5310:6045   */\n      swap6\n      swap5\n      pop\n      pop\n      pop\n      pop\n      pop\n      jump\t// out\n        /* \"#utility.yul\":6051:6273   */\n    tag_33:\n        /* \"#utility.yul\":6144:6148   */\n      0x00\n        /* \"#utility.yul\":6182:6184   */\n      0x20\n        /* \"#utility.yul\":6171:6180   */\n      dup3\n        /* \"#utility.yul\":6167:6185   */\n      add\n        /* \"#utility.yul\":6159:6185   */\n      swap1\n      pop\n        /* \"#utility.yul\":6195:6266   */\n      tag_243\n        /* \"#utility.yul\":6263:6264   */\n      0x00\n        /* \"#utility.yul\":6252:6261   */\n      dup4\n        /* \"#utility.yul\":6248:6265   */\n      add\n        /* \"#utility.yul\":6239:6245   */\n      dup5\n        /* \"#utility.yul\":6195:6266   */\n      tag_137\n      jump\t// in\n    tag_243:\n        /* \"#utility.yul\":6051:6273   */\n      swap3\n      swap2\n      pop\n      pop\n      jump\t// out\n        /* \"#utility.yul\":6279:6369   */\n    tag_143:\n        /* \"#utility.yul\":6313:6320   */\n      0x00\n        /* \"#utility.yul\":6356:6361   */\n      dup2\n        /* \"#utility.yul\":6349:6362   */\n      iszero\n        /* \"#utility.yul\":6342:6363   */\n      iszero\n        /* \"#utility.yul\":6331:6363   */\n      swap1\n      pop\n        /* \"#utility.yul\":6279:6369   */\n      swap2\n      swap1\n      pop\n      jump\t// out\n        /* \"#utility.yul\":6375:6484   */\n    tag_144:\n        /* \"#utility.yul\":6456:6477   */\n      tag_246\n        /* \"#utility.yul\":6471:6476   */\n      dup2\n        /* \"#utility.yul\":6456:6477   */\n      tag_143\n      jump\t// in\n    tag_246:\n        /* \"#utility.yul\":6451:6454   */\n      dup3\n        /* \"#utility.yul\":6444:6478   */\n      mstore\n        /* \"#utility.yul\":6375:6484   */\n      pop\n      pop\n      jump\t// out\n        /* \"#utility.yul\":6490:6700   */\n    tag_41:\n        /* \"#utility.yul\":6577:6581   */\n      0x00\n        /* \"#utility.yul\":6615:6617   */\n      0x20\n        /* \"#utility.yul\":6604:6613   */\n      dup3\n        /* \"#utility.yul\":6600:6618   */\n      add\n        /* \"#utility.yul\":6592:6618   */\n      swap1\n      pop\n        /* \"#utility.yul\":6628:6693   */\n      tag_248\n        /* \"#utility.yul\":6690:6691   */\n      0x00\n        /* \"#utility.yul\":6679:6688   */\n      dup4\n        /* \"#utility.yul\":6675:6692   */\n      add\n        /* \"#utility.yul\":6666:6672   */\n      dup5\n        /* \"#utility.yul\":6628:6693   */\n      tag_144\n      jump\t// in\n    tag_248:\n        /* \"#utility.yul\":6490:6700   */\n      swap3\n      swap2\n      pop\n      pop\n      jump\t// out\n        /* \"#utility.yul\":6706:6832   */\n    tag_145:\n        /* \"#utility.yul\":6743:6750   */\n      0x00\n        /* \"#utility.yul\":6783:6825   */\n      0xffffffffffffffffffffffffffffffffffffffff\n        /* \"#utility.yul\":6776:6781   */\n      dup3\n        /* \"#utility.yul\":6772:6826   */\n      and\n        /* \"#utility.yul\":6761:6826   */\n      swap1\n      pop\n        /* \"#utility.yul\":6706:6832   */\n      swap2\n      swap1\n      pop\n      jump\t// out\n        /* \"#utility.yul\":6838:6934   */\n    tag_146:\n        /* \"#utility.yul\":6875:6882   */\n      0x00\n        /* \"#utility.yul\":6904:6928   */\n      tag_251\n        /* \"#utility.yul\":6922:6927   */\n      dup3\n        /* \"#utility.yul\":6904:6928   */\n      tag_145\n      jump\t// in\n    tag_251:\n        /* \"#utility.yul\":6893:6928   */\n      swap1\n      pop\n        /* \"#utility.yul\":6838:6934   */\n      swap2\n      swap1\n      pop\n      jump\t// out\n        /* \"#utility.yul\":6940:7058   */\n    tag_147:\n        /* \"#utility.yul\":7027:7051   */\n      tag_253\n        /* \"#utility.yul\":7045:7050   */\n      dup2\n        /* \"#utility.yul\":7027:7051   */\n      tag_146\n      jump\t// in\n    tag_253:\n        /* \"#utility.yul\":7022:7025   */\n      dup3\n        /* \"#utility.yul\":7015:7052   */\n      mstore\n        /* \"#utility.yul\":6940:7058   */\n      pop\n      pop\n      jump\t// out\n        /* \"#utility.yul\":7064:7286   */\n    tag_45:\n        /* \"#utility.yul\":7157:7161   */\n      0x00\n        /* \"#utility.yul\":7195:7197   */\n      0x20\n        /* \"#utility.yul\":7184:7193   */\n      dup3\n        /* \"#utility.yul\":7180:7198   */\n      add\n        /* \"#utility.yul\":7172:7198   */\n      swap1\n      pop\n        /* \"#utility.yul\":7208:7279   */\n      tag_255\n        /* \"#utility.yul\":7276:7277   */\n      0x00\n        /* \"#utility.yul\":7265:7274   */\n      dup4\n        /* \"#utility.yul\":7261:7278   */\n      add\n        /* \"#utility.yul\":7252:7258   */\n      dup5\n        /* \"#utility.yul\":7208:7279   */\n      tag_147\n      jump\t// in\n    tag_255:\n        /* \"#utility.yul\":7064:7286   */\n      swap3\n      swap2\n      pop\n      pop\n      jump\t// out\n        /* \"#utility.yul\":7292:7515   */\n    tag_148:\n        /* \"#utility.yul\":7432:7466   */\n      0x48616e79612061646d696e2079616e67206461706174206d656c616b756b616e\n        /* \"#utility.yul\":7428:7429   */\n      0x00\n        /* \"#utility.yul\":7420:7426   */\n      dup3\n        /* \"#utility.yul\":7416:7430   */\n      add\n        /* \"#utility.yul\":7409:7467   */\n      mstore\n        /* \"#utility.yul\":7501:7507   */\n      0x20696e6900000000000000000000000000000000000000000000000000000000\n        /* \"#utility.yul\":7496:7498   */\n      0x20\n        /* \"#utility.yul\":7488:7494   */\n      dup3\n        /* \"#utility.yul\":7484:7499   */\n      add\n        /* \"#utility.yul\":7477:7508   */\n      mstore\n        /* \"#utility.yul\":7292:7515   */\n      pop\n      jump\t// out\n        /* \"#utility.yul\":7521:7887   */\n    tag_149:\n        /* \"#utility.yul\":7663:7666   */\n      0x00\n        /* \"#utility.yul\":7684:7751   */\n      tag_258\n        /* \"#utility.yul\":7748:7750   */\n      0x24\n        /* \"#utility.yul\":7743:7746   */\n      dup4\n        /* \"#utility.yul\":7684:7751   */\n      tag_139\n      jump\t// in\n    tag_258:\n        /* \"#utility.yul\":7677:7751   */\n      swap2\n      pop\n        /* \"#utility.yul\":7760:7853   */\n      tag_259\n        /* \"#utility.yul\":7849:7852   */\n      dup3\n        /* \"#utility.yul\":7760:7853   */\n      tag_148\n      jump\t// in\n    tag_259:\n        /* \"#utility.yul\":7878:7880   */\n      0x40\n        /* \"#utility.yul\":7873:7876   */\n      dup3\n        /* \"#utility.yul\":7869:7881   */\n      add\n        /* \"#utility.yul\":7862:7881   */\n      swap1\n      pop\n        /* \"#utility.yul\":7521:7887   */\n      swap2\n      swap1\n      pop\n      jump\t// out\n        /* \"#utility.yul\":7893:8312   */\n    tag_49:\n        /* \"#utility.yul\":8059:8063   */\n      0x00\n        /* \"#utility.yul\":8097:8099   */\n      0x20\n        /* \"#utility.yul\":8086:8095   */\n      dup3\n        /* \"#utility.yul\":8082:8100   */\n      add\n        /* \"#utility.yul\":8074:8100   */\n      swap1\n      pop\n        /* \"#utility.yul\":8146:8155   */\n      dup2\n        /* \"#utility.yul\":8140:8144   */\n      dup2\n        /* \"#utility.yul\":8136:8156   */\n      sub\n        /* \"#utility.yul\":8132:8133   */\n      0x00\n        /* \"#utility.yul\":8121:8130   */\n      dup4\n        /* \"#utility.yul\":8117:8134   */\n      add\n        /* \"#utility.yul\":8110:8157   */\n      mstore\n        /* \"#utility.yul\":8174:8305   */\n      tag_261\n        /* \"#utility.yul\":8300:8304   */\n      dup2\n        /* \"#utility.yul\":8174:8305   */\n      tag_149\n      jump\t// in\n    tag_261:\n        /* \"#utility.yul\":8166:8305   */\n      swap1\n      pop\n        /* \"#utility.yul\":7893:8312   */\n      swap2\n      swap1\n      pop\n      jump\t// out\n        /* \"#utility.yul\":8318:8498   */\n    tag_150:\n        /* \"#utility.yul\":8366:8443   */\n      0x4e487b7100000000000000000000000000000000000000000000000000000000\n        /* \"#utility.yul\":8363:8364   */\n      0x00\n        /* \"#utility.yul\":8356:8444   */\n      mstore\n        /* \"#utility.yul\":8463:8467   */\n      0x41\n        /* \"#utility.yul\":8460:8461   */\n      0x04\n        /* \"#utility.yul\":8453:8468   */\n      mstore\n        /* \"#utility.yul\":8487:8491   */\n      0x24\n        /* \"#utility.yul\":8484:8485   */\n      0x00\n        /* \"#utility.yul\":8477:8492   */\n      revert\n        /* \"#utility.yul\":8504:8684   */\n    tag_151:\n        /* \"#utility.yul\":8552:8629   */\n      0x4e487b7100000000000000000000000000000000000000000000000000000000\n        /* \"#utility.yul\":8549:8550   */\n      0x00\n        /* \"#utility.yul\":8542:8630   */\n      mstore\n        /* \"#utility.yul\":8649:8653   */\n      0x22\n        /* \"#utility.yul\":8646:8647   */\n      0x04\n        /* \"#utility.yul\":8639:8654   */\n      mstore\n        /* \"#utility.yul\":8673:8677   */\n      0x24\n        /* \"#utility.yul\":8670:8671   */\n      0x00\n        /* \"#utility.yul\":8663:8678   */\n      revert\n        /* \"#utility.yul\":8690:9010   */\n    tag_100:\n        /* \"#utility.yul\":8734:8740   */\n      0x00\n        /* \"#utility.yul\":8771:8772   */\n      0x02\n        /* \"#utility.yul\":8765:8769   */\n      dup3\n        /* \"#utility.yul\":8761:8773   */\n      div\n        /* \"#utility.yul\":8751:8773   */\n      swap1\n      pop\n        /* \"#utility.yul\":8818:8819   */\n      0x01\n        /* \"#utility.yul\":8812:8816   */\n      dup3\n        /* \"#utility.yul\":8808:8820   */\n      and\n        /* \"#utility.yul\":8839:8857   */\n      dup1\n        /* \"#utility.yul\":8829:8910   */\n      tag_265\n      jumpi\n        /* \"#utility.yul\":8895:8899   */\n      0x7f\n        /* \"#utility.yul\":8887:8893   */\n      dup3\n        /* \"#utility.yul\":8883:8900   */\n      and\n        /* \"#utility.yul\":8873:8900   */\n      swap2\n      pop\n        /* \"#utility.yul\":8829:8910   */\n    tag_265:\n        /* \"#utility.yul\":8957:8959   */\n      0x20\n        /* \"#utility.yul\":8949:8955   */\n      dup3\n        /* \"#utility.yul\":8946:8960   */\n      lt\n        /* \"#utility.yul\":8926:8944   */\n      dup2\n        /* \"#utility.yul\":8923:8961   */\n      sub\n        /* \"#utility.yul\":8920:9004   */\n      tag_266\n      jumpi\n        /* \"#utility.yul\":8976:8994   */\n      tag_267\n      tag_151\n      jump\t// in\n    tag_267:\n        /* \"#utility.yul\":8920:9004   */\n    tag_266:\n        /* \"#utility.yul\":8741:9010   */\n      pop\n        /* \"#utility.yul\":8690:9010   */\n      swap2\n      swap1\n      pop\n      jump\t// out\n        /* \"#utility.yul\":9016:9157   */\n    tag_152:\n        /* \"#utility.yul\":9065:9069   */\n      0x00\n        /* \"#utility.yul\":9088:9091   */\n      dup2\n        /* \"#utility.yul\":9080:9091   */\n      swap1\n      pop\n        /* \"#utility.yul\":9111:9114   */\n      dup2\n        /* \"#utility.yul\":9108:9109   */\n      0x00\n        /* \"#utility.yul\":9101:9115   */\n      mstore\n        /* \"#utility.yul\":9145:9149   */\n      0x20\n        /* \"#utility.yul\":9142:9143   */\n      0x00\n        /* \"#utility.yul\":9132:9150   */\n      keccak256\n        /* \"#utility.yul\":9124:9150   */\n      swap1\n      pop\n        /* \"#utility.yul\":9016:9157   */\n      swap2\n      swap1\n      pop\n      jump\t// out\n        /* \"#utility.yul\":9163:9256   */\n    tag_153:\n        /* \"#utility.yul\":9200:9206   */\n      0x00\n        /* \"#utility.yul\":9247:9249   */\n      0x20\n        /* \"#utility.yul\":9242:9244   */\n      0x1f\n        /* \"#utility.yul\":9235:9240   */\n      dup4\n        /* \"#utility.yul\":9231:9245   */\n      add\n        /* \"#utility.yul\":9227:9250   */\n      div\n        /* \"#utility.yul\":9217:9250   */\n      swap1\n      pop\n        /* \"#utility.yul\":9163:9256   */\n      swap2\n      swap1\n      pop\n      jump\t// out\n        /* \"#utility.yul\":9262:9369   */\n    tag_154:\n        /* \"#utility.yul\":9306:9314   */\n      0x00\n        /* \"#utility.yul\":9356:9361   */\n      dup3\n        /* \"#utility.yul\":9350:9354   */\n      dup3\n        /* \"#utility.yul\":9346:9362   */\n      shl\n        /* \"#utility.yul\":9325:9362   */\n      swap1\n      pop\n        /* \"#utility.yul\":9262:9369   */\n      swap3\n      swap2\n      pop\n      pop\n      jump\t// out\n        /* \"#utility.yul\":9375:9768   */\n    tag_155:\n        /* \"#utility.yul\":9444:9450   */\n      0x00\n        /* \"#utility.yul\":9494:9495   */\n      0x08\n        /* \"#utility.yul\":9482:9492   */\n      dup4\n        /* \"#utility.yul\":9478:9496   */\n      mul\n        /* \"#utility.yul\":9517:9614   */\n      tag_272\n        /* \"#utility.yul\":9547:9613   */\n      0xffffffffffffffffffffffffffffffffffffffffffffffffffffffffffffffff\n        /* \"#utility.yul\":9536:9545   */\n      dup3\n        /* \"#utility.yul\":9517:9614   */\n      tag_154\n      jump\t// in\n    tag_272:\n        /* \"#utility.yul\":9635:9674   */\n      tag_273\n        /* \"#utility.yul\":9665:9673   */\n      dup7\n        /* \"#utility.yul\":9654:9663   */\n      dup4\n        /* \"#utility.yul\":9635:9674   */\n      tag_154\n      jump\t// in\n    tag_273:\n        /* \"#utility.yul\":9623:9674   */\n      swap6\n      pop\n        /* \"#utility.yul\":9707:9711   */\n      dup1\n        /* \"#utility.yul\":9703:9712   */\n      not\n        /* \"#utility.yul\":9696:9701   */\n      dup5\n        /* \"#utility.yul\":9692:9713   */\n      and\n        /* \"#utility.yul\":9683:9713   */\n      swap4\n      pop\n        /* \"#utility.yul\":9756:9760   */\n      dup1\n        /* \"#utility.yul\":9746:9754   */\n      dup7\n        /* \"#utility.yul\":9742:9761   */\n      and\n        /* \"#utility.yul\":9735:9740   */\n      dup5\n        /* \"#utility.yul\":9732:9762   */\n      or\n        /* \"#utility.yul\":9722:9762   */\n      swap3\n      pop\n        /* \"#utility.yul\":9451:9768   */\n      pop\n      pop\n        /* \"#utility.yul\":9375:9768   */\n      swap4\n      swap3\n      pop\n      pop\n      pop\n      jump\t// out\n        /* \"#utility.yul\":9774:9834   */\n    tag_156:\n        /* \"#utility.yul\":9802:9805   */\n      0x00\n        /* \"#utility.yul\":9823:9828   */\n      dup2\n        /* \"#utility.yul\":9816:9828   */\n      swap1\n      pop\n        /* \"#utility.yul\":9774:9834   */\n      swap2\n      swap1\n      pop\n      jump\t// out\n        /* \"#utility.yul\":9840:9982   */\n    tag_157:\n        /* \"#utility.yul\":9890:9899   */\n      0x00\n        /* \"#utility.yul\":9923:9976   */\n      tag_276\n        /* \"#utility.yul\":9941:9975   */\n      tag_277\n        /* \"#utility.yul\":9950:9974   */\n      tag_278\n        /* \"#utility.yul\":9968:9973   */\n      dup5\n        /* \"#utility.yul\":9950:9974   */\n      tag_130\n      jump\t// in\n    tag_278:\n        /* \"#utility.yul\":9941:9975   */\n      tag_156\n      jump\t// in\n    tag_277:\n        /* \"#utility.yul\":9923:9976   */\n      tag_130\n      jump\t// in\n    tag_276:\n        /* \"#utility.yul\":9910:9976   */\n      swap1\n      pop\n        /* \"#utility.yul\":9840:9982   */\n      swap2\n      swap1\n      pop\n      jump\t// out\n        /* \"#utility.yul\":9988:10063   */\n    tag_158:\n        /* \"#utility.yul\":10031:10034   */\n      0x00\n        /* \"#utility.yul\":10052:10057   */\n      dup2\n        /* \"#utility.yul\":10045:10057   */\n      swap1\n      pop\n        /* \"#utility.yul\":9988:10063   */\n      swap2\n      swap1\n      pop\n      jump\t// out\n        /* \"#utility.yul\":10069:10338   */\n    tag_159:\n        /* \"#utility.yul\":10179:10218   */\n      tag_281\n        /* \"#utility.yul\":10210:10217   */\n      dup4\n        /* \"#utility.yul\":10179:10218   */\n      tag_157\n      jump\t// in\n    tag_281:\n        /* \"#utility.yul\":10240:10331   */\n      tag_282\n        /* \"#utility.yul\":10289:10330   */\n      tag_283\n        /* \"#utility.yul\":10313:10329   */\n      dup3\n        /* \"#utility.yul\":10289:10330   */\n      tag_158\n      jump\t// in\n    tag_283:\n        /* \"#utility.yul\":10281:10287   */\n      dup5\n        /* \"#utility.yul\":10274:10278   */\n      dup5\n        /* \"#utility.yul\":10268:10279   */\n      sload\n        /* \"#utility.yul\":10240:10331   */\n      tag_155\n      jump\t// in\n    tag_282:\n        /* \"#utility.yul\":10234:10238   */\n      dup3\n        /* \"#utility.yul\":10227:10332   */\n      sstore\n        /* \"#utility.yul\":10145:10338   */\n      pop\n        /* \"#utility.yul\":10069:10338   */\n      pop\n      pop\n      pop\n      jump\t// out\n        /* \"#utility.yul\":10344:10417   */\n    tag_160:\n        /* \"#utility.yul\":10389:10392   */\n      0x00\n        /* \"#utility.yul\":10344:10417   */\n      swap1\n      jump\t// out\n        /* \"#utility.yul\":10423:10612   */\n    tag_161:\n        /* \"#utility.yul\":10500:10532   */\n      tag_286\n      tag_160\n      jump\t// in\n    tag_286:\n        /* \"#utility.yul\":10541:10606   */\n      tag_287\n        /* \"#utility.yul\":10599:10605   */\n      dup2\n        /* \"#utility.yul\":10591:10597   */\n      dup5\n        /* \"#utility.yul\":10585:10589   */\n      dup5\n        /* \"#utility.yul\":10541:10606   */\n      tag_159\n      jump\t// in\n    tag_287:\n        /* \"#utility.yul\":10476:10612   */\n      pop\n        /* \"#utility.yul\":10423:10612   */\n      pop\n      pop\n      jump\t// out\n        /* \"#utility.yul\":10618:10804   */\n    tag_162:\n        /* \"#utility.yul\":10678:10798   */\n    tag_289:\n        /* \"#utility.yul\":10695:10698   */\n      dup2\n        /* \"#utility.yul\":10688:10693   */\n      dup2\n        /* \"#utility.yul\":10685:10699   */\n      lt\n        /* \"#utility.yul\":10678:10798   */\n      iszero\n      tag_291\n      jumpi\n        /* \"#utility.yul\":10749:10788   */\n      tag_292\n        /* \"#utility.yul\":10786:10787   */\n      0x00\n        /* \"#utility.yul\":10779:10784   */\n      dup3\n        /* \"#utility.yul\":10749:10788   */\n      tag_161\n      jump\t// in\n    tag_292:\n        /* \"#utility.yul\":10722:10723   */\n      0x01\n        /* \"#utility.yul\":10715:10720   */\n      dup2\n        /* \"#utility.yul\":10711:10724   */\n      add\n        /* \"#utility.yul\":10702:10724   */\n      swap1\n      pop\n        /* \"#utility.yul\":10678:10798   */\n      jump(tag_289)\n    tag_291:\n        /* \"#utility.yul\":10618:10804   */\n      pop\n      pop\n      jump\t// out\n        /* \"#utility.yul\":10810:11353   */\n    tag_163:\n        /* \"#utility.yul\":10911:10913   */\n      0x1f\n        /* \"#utility.yul\":10906:10909   */\n      dup3\n        /* \"#utility.yul\":10903:10914   */\n      gt\n        /* \"#utility.yul\":10900:11346   */\n      iszero\n      tag_294\n      jumpi\n        /* \"#utility.yul\":10945:10983   */\n      tag_295\n        /* \"#utility.yul\":10977:10982   */\n      dup2\n        /* \"#utility.yul\":10945:10983   */\n      tag_152\n      jump\t// in\n    tag_295:\n        /* \"#utility.yul\":11029:11058   */\n      tag_296\n        /* \"#utility.yul\":11047:11057   */\n      dup5\n        /* \"#utility.yul\":11029:11058   */\n      tag_153\n      jump\t// in\n    tag_296:\n        /* \"#utility.yul\":11019:11027   */\n      dup2\n        /* \"#utility.yul\":11015:11059   */\n      add\n        /* \"#utility.yul\":11212:11214   */\n      0x20\n        /* \"#utility.yul\":11200:11210   */\n      dup6\n        /* \"#utility.yul\":11197:11215   */\n      lt\n        /* \"#utility.yul\":11194:11243   */\n      iszero\n      tag_297\n      jumpi\n        /* \"#utility.yul\":11233:11241   */\n      dup2\n        /* \"#utility.yul\":11218:11241   */\n      swap1\n      pop\n        /* \"#utility.yul\":11194:11243   */\n    tag_297:\n        /* \"#utility.yul\":11256:11336   */\n      tag_298\n        /* \"#utility.yul\":11312:11334   */\n      tag_299\n        /* \"#utility.yul\":11330:11333   */\n      dup6\n        /* \"#utility.yul\":11312:11334   */\n      tag_153\n      jump\t// in\n    tag_299:\n        /* \"#utility.yul\":11302:11310   */\n      dup4\n        /* \"#utility.yul\":11298:11335   */\n      add\n        /* \"#utility.yul\":11285:11296   */\n      dup3\n        /* \"#utility.yul\":11256:11336   */\n      tag_162\n      jump\t// in\n    tag_298:\n        /* \"#utility.yul\":10915:11346   */\n      pop\n      pop\n        /* \"#utility.yul\":10900:11346   */\n    tag_294:\n        /* \"#utility.yul\":10810:11353   */\n      pop\n      pop\n      pop\n      jump\t// out\n        /* \"#utility.yul\":11359:11476   */\n    tag_164:\n        /* \"#utility.yul\":11413:11421   */\n      0x00\n        /* \"#utility.yul\":11463:11468   */\n      dup3\n        /* \"#utility.yul\":11457:11461   */\n      dup3\n        /* \"#utility.yul\":11453:11469   */\n      shr\n        /* \"#utility.yul\":11432:11469   */\n      swap1\n      pop\n        /* \"#utility.yul\":11359:11476   */\n      swap3\n      swap2\n      pop\n      pop\n      jump\t// out\n        /* \"#utility.yul\":11482:11651   */\n    tag_165:\n        /* \"#utility.yul\":11526:11532   */\n      0x00\n        /* \"#utility.yul\":11559:11610   */\n      tag_302\n        /* \"#utility.yul\":11607:11608   */\n      0x00\n        /* \"#utility.yul\":11603:11609   */\n      not\n        /* \"#utility.yul\":11595:11600   */\n      dup5\n        /* \"#utility.yul\":11592:11593   */\n      0x08\n        /* \"#utility.yul\":11588:11601   */\n      mul\n        /* \"#utility.yul\":11559:11610   */\n      tag_164\n      jump\t// in\n    tag_302:\n        /* \"#utility.yul\":11555:11611   */\n      not\n        /* \"#utility.yul\":11640:11644   */\n      dup1\n        /* \"#utility.yul\":11634:11638   */\n      dup4\n        /* \"#utility.yul\":11630:11645   */\n      and\n        /* \"#utility.yul\":11620:11645   */\n      swap2\n      pop\n        /* \"#utility.yul\":11533:11651   */\n      pop\n        /* \"#utility.yul\":11482:11651   */\n      swap3\n      swap2\n      pop\n      pop\n      jump\t// out\n        /* \"#utility.yul\":11656:11951   */\n    tag_166:\n        /* \"#utility.yul\":11732:11736   */\n      0x00\n        /* \"#utility.yul\":11878:11907   */\n      tag_304\n        /* \"#utility.yul\":11903:11906   */\n      dup4\n        /* \"#utility.yul\":11897:11901   */\n      dup4\n        /* \"#utility.yul\":11878:11907   */\n      tag_165\n      jump\t// in\n    tag_304:\n        /* \"#utility.yul\":11870:11907   */\n      swap2\n      pop\n        /* \"#utility.yul\":11940:11943   */\n      dup3\n        /* \"#utility.yul\":11937:11938   */\n      0x02\n        /* \"#utility.yul\":11933:11944   */\n      mul\n        /* \"#utility.yul\":11927:11931   */\n      dup3\n        /* \"#utility.yul\":11924:11945   */\n      or\n        /* \"#utility.yul\":11916:11945   */\n      swap1\n      pop\n        /* \"#utility.yul\":11656:11951   */\n      swap3\n      swap2\n      pop\n      pop\n      jump\t// out\n        /* \"#utility.yul\":11956:13351   */\n    tag_53:\n        /* \"#utility.yul\":12073:12110   */\n      tag_306\n        /* \"#utility.yul\":12106:12109   */\n      dup3\n        /* \"#utility.yul\":12073:12110   */\n      tag_138\n      jump\t// in\n    tag_306:\n        /* \"#utility.yul\":12175:12193   */\n      0xffffffffffffffff\n        /* \"#utility.yul\":12167:12173   */\n      dup2\n        /* \"#utility.yul\":12164:12194   */\n      gt\n        /* \"#utility.yul\":12161:12217   */\n      iszero\n      tag_307\n      jumpi\n        /* \"#utility.yul\":12197:12215   */\n      tag_308\n      tag_150\n      jump\t// in\n    tag_308:\n        /* \"#utility.yul\":12161:12217   */\n    tag_307:\n        /* \"#utility.yul\":12241:12279   */\n      tag_309\n        /* \"#utility.yul\":12273:12277   */\n      dup3\n        /* \"#utility.yul\":12267:12278   */\n      sload\n        /* \"#utility.yul\":12241:12279   */\n      tag_100\n      jump\t// in\n    tag_309:\n        /* \"#utility.yul\":12326:12393   */\n      tag_310\n        /* \"#utility.yul\":12386:12392   */\n      dup3\n        /* \"#utility.yul\":12378:12384   */\n      dup3\n        /* \"#utility.yul\":12372:12376   */\n      dup6\n        /* \"#utility.yul\":12326:12393   */\n      tag_163\n      jump\t// in\n    tag_310:\n        /* \"#utility.yul\":12420:12421   */\n      0x00\n        /* \"#utility.yul\":12444:12448   */\n      0x20\n        /* \"#utility.yul\":12431:12448   */\n      swap1\n      pop\n        /* \"#utility.yul\":12476:12478   */\n      0x1f\n        /* \"#utility.yul\":12468:12474   */\n      dup4\n        /* \"#utility.yul\":12465:12479   */\n      gt\n        /* \"#utility.yul\":12493:12494   */\n      0x01\n        /* \"#utility.yul\":12488:13106   */\n      dup2\n      eq\n      tag_312\n      jumpi\n        /* \"#utility.yul\":13150:13151   */\n      0x00\n        /* \"#utility.yul\":13167:13173   */\n      dup5\n        /* \"#utility.yul\":13164:13241   */\n      iszero\n      tag_313\n      jumpi\n        /* \"#utility.yul\":13216:13225   */\n      dup3\n        /* \"#utility.yul\":13211:13214   */\n      dup8\n        /* \"#utility.yul\":13207:13226   */\n      add\n        /* \"#utility.yul\":13201:13227   */\n      mload\n        /* \"#utility.yul\":13192:13227   */\n      swap1\n      pop\n        /* \"#utility.yul\":13164:13241   */\n    tag_313:\n        /* \"#utility.yul\":13267:13334   */\n      tag_314\n        /* \"#utility.yul\":13327:13333   */\n      dup6\n        /* \"#utility.yul\":13320:13325   */\n      dup3\n        /* \"#utility.yul\":13267:13334   */\n      tag_166\n      jump\t// in\n    tag_314:\n        /* \"#utility.yul\":13261:13265   */\n      dup7\n        /* \"#utility.yul\":13254:13335   */\n      sstore\n        /* \"#utility.yul\":13123:13345   */\n      pop\n        /* \"#utility.yul\":12458:13345   */\n      jump(tag_311)\n        /* \"#utility.yul\":12488:13106   */\n    tag_312:\n        /* \"#utility.yul\":12540:12544   */\n      0x1f\n        /* \"#utility.yul\":12536:12545   */\n      not\n        /* \"#utility.yul\":12528:12534   */\n      dup5\n        /* \"#utility.yul\":12524:12546   */\n      and\n        /* \"#utility.yul\":12574:12611   */\n      tag_315\n        /* \"#utility.yul\":12606:12610   */\n      dup7\n        /* \"#utility.yul\":12574:12611   */\n      tag_152\n      jump\t// in\n    tag_315:\n        /* \"#utility.yul\":12633:12634   */\n      0x00\n        /* \"#utility.yul\":12647:12855   */\n    tag_316:\n        /* \"#utility.yul\":12661:12668   */\n      dup3\n        /* \"#utility.yul\":12658:12659   */\n      dup2\n        /* \"#utility.yul\":12655:12669   */\n      lt\n        /* \"#utility.yul\":12647:12855   */\n      iszero\n      tag_318\n      jumpi\n        /* \"#utility.yul\":12740:12749   */\n      dup5\n        /* \"#utility.yul\":12735:12738   */\n      dup10\n        /* \"#utility.yul\":12731:12750   */\n      add\n        /* \"#utility.yul\":12725:12751   */\n      mload\n        /* \"#utility.yul\":12717:12723   */\n      dup3\n        /* \"#utility.yul\":12710:12752   */\n      sstore\n        /* \"#utility.yul\":12791:12792   */\n      0x01\n        /* \"#utility.yul\":12783:12789   */\n      dup3\n        /* \"#utility.yul\":12779:12793   */\n      add\n        /* \"#utility.yul\":12769:12793   */\n      swap2\n      pop\n        /* \"#utility.yul\":12838:12840   */\n      0x20\n        /* \"#utility.yul\":12827:12836   */\n      dup6\n        /* \"#utility.yul\":12823:12841   */\n      add\n        /* \"#utility.yul\":12810:12841   */\n      swap5\n      pop\n        /* \"#utility.yul\":12684:12688   */\n      0x20\n        /* \"#utility.yul\":12681:12682   */\n      dup2\n        /* \"#utility.yul\":12677:12689   */\n      add\n        /* \"#utility.yul\":12672:12689   */\n      swap1\n      pop\n        /* \"#utility.yul\":12647:12855   */\n      jump(tag_316)\n    tag_318:\n        /* \"#utility.yul\":12883:12889   */\n      dup7\n        /* \"#utility.yul\":12874:12881   */\n      dup4\n        /* \"#utility.yul\":12871:12890   */\n      lt\n        /* \"#utility.yul\":12868:13047   */\n      iszero\n      tag_319\n      jumpi\n        /* \"#utility.yul\":12941:12950   */\n      dup5\n        /* \"#utility.yul\":12936:12939   */\n      dup10\n        /* \"#utility.yul\":12932:12951   */\n      add\n        /* \"#utility.yul\":12926:12952   */\n      mload\n        /* \"#utility.yul\":12984:13032   */\n      tag_320\n        /* \"#utility.yul\":13026:13030   */\n      0x1f\n        /* \"#utility.yul\":13018:13024   */\n      dup10\n        /* \"#utility.yul\":13014:13031   */\n      and\n        /* \"#utility.yul\":13003:13012   */\n      dup3\n        /* \"#utility.yul\":12984:13032   */\n      tag_165\n      jump\t// in\n    tag_320:\n        /* \"#utility.yul\":12976:12982   */\n      dup4\n        /* \"#utility.yul\":12969:13033   */\n      sstore\n        /* \"#utility.yul\":12891:13047   */\n      pop\n        /* \"#utility.yul\":12868:13047   */\n    tag_319:\n        /* \"#utility.yul\":13093:13094   */\n      0x01\n        /* \"#utility.yul\":13089:13090   */\n      0x02\n        /* \"#utility.yul\":13081:13087   */\n      dup9\n        /* \"#utility.yul\":13077:13091   */\n      mul\n        /* \"#utility.yul\":13073:13095   */\n      add\n        /* \"#utility.yul\":13067:13071   */\n      dup9\n        /* \"#utility.yul\":13060:13096   */\n      sstore\n        /* \"#utility.yul\":12495:13106   */\n      pop\n      pop\n      pop\n        /* \"#utility.yul\":12458:13345   */\n    tag_311:\n      pop\n        /* \"#utility.yul\":12048:13351   */\n      pop\n      pop\n      pop\n        /* \"#utility.yul\":11956:13351   */\n      pop\n      pop\n      jump\t// out\n        /* \"#utility.yul\":13357:13527   */\n    tag_167:\n        /* \"#utility.yul\":13497:13519   */\n      0x42756b7520746964616b20646974656d756b616e000000000000000000000000\n        /* \"#utility.yul\":13493:13494   */\n      0x00\n        /* \"#utility.yul\":13485:13491   */\n      dup3\n        /* \"#utility.yul\":13481:13495   */\n      add\n        /* \"#utility.yul\":13474:13520   */\n      mstore\n        /* \"#utility.yul\":13357:13527   */\n      pop\n      jump\t// out\n        /* \"#utility.yul\":13533:13899   */\n    tag_168:\n        /* \"#utility.yul\":13675:13678   */\n      0x00\n        /* \"#utility.yul\":13696:13763   */\n      tag_323\n        /* \"#utility.yul\":13760:13762   */\n      0x14\n        /* \"#utility.yul\":13755:13758   */\n      dup4\n        /* \"#utility.yul\":13696:13763   */\n      tag_139\n      jump\t// in\n    tag_323:\n        /* \"#utility.yul\":13689:13763   */\n      swap2\n      pop\n        /* \"#utility.yul\":13772:13865   */\n      tag_324\n        /* \"#utility.yul\":13861:13864   */\n      dup3\n        /* \"#utility.yul\":13772:13865   */\n      tag_167\n      jump\t// in\n    tag_324:\n        /* \"#utility.yul\":13890:13892   */\n      0x20\n        /* \"#utility.yul\":13885:13888   */\n      dup3\n        /* \"#utility.yul\":13881:13893   */\n      add\n        /* \"#utility.yul\":13874:13893   */\n      swap1\n      pop\n        /* \"#utility.yul\":13533:13899   */\n      swap2\n      swap1\n      pop\n      jump\t// out\n        /* \"#utility.yul\":13905:14324   */\n    tag_62:\n        /* \"#utility.yul\":14071:14075   */\n      0x00\n        /* \"#utility.yul\":14109:14111   */\n      0x20\n        /* \"#utility.yul\":14098:14107   */\n      dup3\n        /* \"#utility.yul\":14094:14112   */\n      add\n        /* \"#utility.yul\":14086:14112   */\n      swap1\n      pop\n        /* \"#utility.yul\":14158:14167   */\n      dup2\n        /* \"#utility.yul\":14152:14156   */\n      dup2\n        /* \"#utility.yul\":14148:14168   */\n      sub\n        /* \"#utility.yul\":14144:14145   */\n      0x00\n        /* \"#utility.yul\":14133:14142   */\n      dup4\n        /* \"#utility.yul\":14129:14146   */\n      add\n        /* \"#utility.yul\":14122:14169   */\n      mstore\n        /* \"#utility.yul\":14186:14317   */\n      tag_326\n        /* \"#utility.yul\":14312:14316   */\n      dup2\n        /* \"#utility.yul\":14186:14317   */\n      tag_168\n      jump\t// in\n    tag_326:\n        /* \"#utility.yul\":14178:14317   */\n      swap1\n      pop\n        /* \"#utility.yul\":13905:14324   */\n      swap2\n      swap1\n      pop\n      jump\t// out\n        /* \"#utility.yul\":14330:14510   */\n    tag_71:\n        /* \"#utility.yul\":14378:14455   */\n      0x4e487b7100000000000000000000000000000000000000000000000000000000\n        /* \"#utility.yul\":14375:14376   */\n      0x00\n        /* \"#utility.yul\":14368:14456   */\n      mstore\n        /* \"#utility.yul\":14475:14479   */\n      0x32\n        /* \"#utility.yul\":14472:14473   */\n      0x04\n        /* \"#utility.yul\":14465:14480   */\n      mstore\n        /* \"#utility.yul\":14499:14503   */\n      0x24\n        /* \"#utility.yul\":14496:14497   */\n      0x00\n        /* \"#utility.yul\":14489:14504   */\n      revert\n        /* \"#utility.yul\":14516:14696   */\n    tag_169:\n        /* \"#utility.yul\":14564:14641   */\n      0x4e487b7100000000000000000000000000000000000000000000000000000000\n        /* \"#utility.yul\":14561:14562   */\n      0x00\n        /* \"#utility.yul\":14554:14642   */\n      mstore\n        /* \"#utility.yul\":14661:14665   */\n      0x11\n        /* \"#utility.yul\":14658:14659   */\n      0x04\n        /* \"#utility.yul\":14651:14666   */\n      mstore\n        /* \"#utility.yul\":14685:14689   */\n      0x24\n        /* \"#utility.yul\":14682:14683   */\n      0x00\n        /* \"#utility.yul\":14675:14690   */\n      revert\n        /* \"#utility.yul\":14702:14935   */\n    tag_75:\n        /* \"#utility.yul\":14741:14744   */\n      0x00\n        /* \"#utility.yul\":14764:14788   */\n      tag_330\n        /* \"#utility.yul\":14782:14787   */\n      dup3\n        /* \"#utility.yul\":14764:14788   */\n      tag_130\n      jump\t// in\n    tag_330:\n        /* \"#utility.yul\":14755:14788   */\n      swap2\n      pop\n        /* \"#utility.yul\":14810:14876   */\n      0xffffffffffffffffffffffffffffffffffffffffffffffffffffffffffffffff\n        /* \"#utility.yul\":14803:14808   */\n      dup3\n        /* \"#utility.yul\":14800:14877   */\n      sub\n        /* \"#utility.yul\":14797:14900   */\n      tag_331\n      jumpi\n        /* \"#utility.yul\":14880:14898   */\n      tag_332\n      tag_169\n      jump\t// in\n    tag_332:\n        /* \"#utility.yul\":14797:14900   */\n    tag_331:\n        /* \"#utility.yul\":14927:14928   */\n      0x01\n        /* \"#utility.yul\":14920:14925   */\n      dup3\n        /* \"#utility.yul\":14916:14929   */\n      add\n        /* \"#utility.yul\":14909:14929   */\n      swap1\n      pop\n        /* \"#utility.yul\":14702:14935   */\n      swap2\n      swap1\n      pop\n      jump\t// out\n        /* \"#utility.yul\":14941:15118   */\n    tag_170:\n        /* \"#utility.yul\":15081:15110   */\n      0x496e64656b732062756b7520746964616b20646974656d756b616e0000000000\n        /* \"#utility.yul\":15077:15078   */\n      0x00\n        /* \"#utility.yul\":15069:15075   */\n      dup3\n        /* \"#utility.yul\":15065:15079   */\n      add\n        /* \"#utility.yul\":15058:15111   */\n      mstore\n        /* \"#utility.yul\":14941:15118   */\n      pop\n      jump\t// out\n        /* \"#utility.yul\":15124:15490   */\n    tag_171:\n        /* \"#utility.yul\":15266:15269   */\n      0x00\n        /* \"#utility.yul\":15287:15354   */\n      tag_335\n        /* \"#utility.yul\":15351:15353   */\n      0x1b\n        /* \"#utility.yul\":15346:15349   */\n      dup4\n        /* \"#utility.yul\":15287:15354   */\n      tag_139\n      jump\t// in\n    tag_335:\n        /* \"#utility.yul\":15280:15354   */\n      swap2\n      pop\n        /* \"#utility.yul\":15363:15456   */\n      tag_336\n        /* \"#utility.yul\":15452:15455   */\n      dup3\n        /* \"#utility.yul\":15363:15456   */\n      tag_170\n      jump\t// in\n    tag_336:\n        /* \"#utility.yul\":15481:15483   */\n      0x20\n        /* \"#utility.yul\":15476:15479   */\n      dup3\n        /* \"#utility.yul\":15472:15484   */\n      add\n        /* \"#utility.yul\":15465:15484   */\n      swap1\n      pop\n        /* \"#utility.yul\":15124:15490   */\n      swap2\n      swap1\n      pop\n      jump\t// out\n        /* \"#utility.yul\":15496:15915   */\n    tag_78:\n        /* \"#utility.yul\":15662:15666   */\n      0x00\n        /* \"#utility.yul\":15700:15702   */\n      0x20\n        /* \"#utility.yul\":15689:15698   */\n      dup3\n        /* \"#utility.yul\":15685:15703   */\n      add\n        /* \"#utility.yul\":15677:15703   */\n      swap1\n      pop\n        /* \"#utility.yul\":15749:15758   */\n      dup2\n        /* \"#utility.yul\":15743:15747   */\n      dup2\n        /* \"#utility.yul\":15739:15759   */\n      sub\n        /* \"#utility.yul\":15735:15736   */\n      0x00\n        /* \"#utility.yul\":15724:15733   */\n      dup4\n        /* \"#utility.yul\":15720:15737   */\n      add\n        /* \"#utility.yul\":15713:15760   */\n      mstore\n        /* \"#utility.yul\":15777:15908   */\n      tag_338\n        /* \"#utility.yul\":15903:15907   */\n      dup2\n        /* \"#utility.yul\":15777:15908   */\n      tag_171\n      jump\t// in\n    tag_338:\n        /* \"#utility.yul\":15769:15908   */\n      swap1\n      pop\n        /* \"#utility.yul\":15496:15915   */\n      swap2\n      swap1\n      pop\n      jump\t// out\n        /* \"#utility.yul\":15921:16115   */\n    tag_80:\n        /* \"#utility.yul\":15961:15965   */\n      0x00\n        /* \"#utility.yul\":15981:16001   */\n      tag_340\n        /* \"#utility.yul\":15999:16000   */\n      dup3\n        /* \"#utility.yul\":15981:16001   */\n      tag_130\n      jump\t// in\n    tag_340:\n        /* \"#utility.yul\":15976:16001   */\n      swap2\n      pop\n        /* \"#utility.yul\":16015:16035   */\n      tag_341\n        /* \"#utility.yul\":16033:16034   */\n      dup4\n        /* \"#utility.yul\":16015:16035   */\n      tag_130\n      jump\t// in\n    tag_341:\n        /* \"#utility.yul\":16010:16035   */\n      swap3\n      pop\n        /* \"#utility.yul\":16059:16060   */\n      dup3\n        /* \"#utility.yul\":16056:16057   */\n      dup3\n        /* \"#utility.yul\":16052:16061   */\n      sub\n        /* \"#utility.yul\":16044:16061   */\n      swap1\n      pop\n        /* \"#utility.yul\":16083:16084   */\n      dup2\n        /* \"#utility.yul\":16077:16081   */\n      dup2\n        /* \"#utility.yul\":16074:16085   */\n      gt\n        /* \"#utility.yul\":16071:16108   */\n      iszero\n      tag_342\n      jumpi\n        /* \"#utility.yul\":16088:16106   */\n      tag_343\n      tag_169\n      jump\t// in\n    tag_343:\n        /* \"#utility.yul\":16071:16108   */\n    tag_342:\n        /* \"#utility.yul\":15921:16115   */\n      swap3\n      swap2\n      pop\n      pop\n      jump\t// out\n        /* \"#utility.yul\":16121:16301   */\n    tag_89:\n        /* \"#utility.yul\":16169:16246   */\n      0x4e487b7100000000000000000000000000000000000000000000000000000000\n        /* \"#utility.yul\":16166:16167   */\n      0x00\n        /* \"#utility.yul\":16159:16247   */\n      mstore\n        /* \"#utility.yul\":16266:16270   */\n      0x31\n        /* \"#utility.yul\":16263:16264   */\n      0x04\n        /* \"#utility.yul\":16256:16271   */\n      mstore\n        /* \"#utility.yul\":16290:16294   */\n      0x24\n        /* \"#utility.yul\":16287:16288   */\n      0x00\n        /* \"#utility.yul\":16280:16295   */\n      revert\n        /* \"#utility.yul\":16307:16455   */\n    tag_172:\n        /* \"#utility.yul\":16409:16420   */\n      0x00\n        /* \"#utility.yul\":16446:16449   */\n      dup2\n        /* \"#utility.yul\":16431:16449   */\n      swap1\n      pop\n        /* \"#utility.yul\":16307:16455   */\n      swap3\n      swap2\n      pop\n      pop\n      jump\t// out\n        /* \"#utility.yul\":16461:16575   */\n    tag_173:\n      pop\n      jump\t// out\n        /* \"#utility.yul\":16581:16981   */\n    tag_174:\n        /* \"#utility.yul\":16741:16744   */\n      0x00\n        /* \"#utility.yul\":16762:16846   */\n      tag_348\n        /* \"#utility.yul\":16844:16845   */\n      0x00\n        /* \"#utility.yul\":16839:16842   */\n      dup4\n        /* \"#utility.yul\":16762:16846   */\n      tag_172\n      jump\t// in\n    tag_348:\n        /* \"#utility.yul\":16755:16846   */\n      swap2\n      pop\n        /* \"#utility.yul\":16855:16948   */\n      tag_349\n        /* \"#utility.yul\":16944:16947   */\n      dup3\n        /* \"#utility.yul\":16855:16948   */\n      tag_173\n      jump\t// in\n    tag_349:\n        /* \"#utility.yul\":16973:16974   */\n      0x00\n        /* \"#utility.yul\":16968:16971   */\n      dup3\n        /* \"#utility.yul\":16964:16975   */\n      add\n        /* \"#utility.yul\":16957:16975   */\n      swap1\n      pop\n        /* \"#utility.yul\":16581:16981   */\n      swap2\n      swap1\n      pop\n      jump\t// out\n        /* \"#utility.yul\":16987:17066   */\n    tag_175:\n        /* \"#utility.yul\":17026:17033   */\n      0x00\n        /* \"#utility.yul\":17055:17060   */\n      dup2\n        /* \"#utility.yul\":17044:17060   */\n      swap1\n      pop\n        /* \"#utility.yul\":16987:17066   */\n      swap2\n      swap1\n      pop\n      jump\t// out\n        /* \"#utility.yul\":17072:17229   */\n    tag_176:\n        /* \"#utility.yul\":17177:17222   */\n      tag_352\n        /* \"#utility.yul\":17197:17221   */\n      tag_353\n        /* \"#utility.yul\":17215:17220   */\n      dup3\n        /* \"#utility.yul\":17197:17221   */\n      tag_130\n      jump\t// in\n    tag_353:\n        /* \"#utility.yul\":17177:17222   */\n      tag_175\n      jump\t// in\n    tag_352:\n        /* \"#utility.yul\":17172:17175   */\n      dup3\n        /* \"#utility.yul\":17165:17223   */\n      mstore\n        /* \"#utility.yul\":17072:17229   */\n      pop\n      pop\n      jump\t// out\n        /* \"#utility.yul\":17235:17757   */\n    tag_115:\n        /* \"#utility.yul\":17448:17451   */\n      0x00\n        /* \"#utility.yul\":17470:17618   */\n      tag_355\n        /* \"#utility.yul\":17614:17617   */\n      dup3\n        /* \"#utility.yul\":17470:17618   */\n      tag_174\n      jump\t// in\n    tag_355:\n        /* \"#utility.yul\":17463:17618   */\n      swap2\n      pop\n        /* \"#utility.yul\":17628:17703   */\n      tag_356\n        /* \"#utility.yul\":17699:17702   */\n      dup3\n        /* \"#utility.yul\":17690:17696   */\n      dup5\n        /* \"#utility.yul\":17628:17703   */\n      tag_176\n      jump\t// in\n    tag_356:\n        /* \"#utility.yul\":17728:17730   */\n      0x20\n        /* \"#utility.yul\":17723:17726   */\n      dup3\n        /* \"#utility.yul\":17719:17731   */\n      add\n        /* \"#utility.yul\":17712:17731   */\n      swap2\n      pop\n        /* \"#utility.yul\":17748:17751   */\n      dup2\n        /* \"#utility.yul\":17741:17751   */\n      swap1\n      pop\n        /* \"#utility.yul\":17235:17757   */\n      swap3\n      swap2\n      pop\n      pop\n      jump\t// out\n        /* \"#utility.yul\":17763:17943   */\n    tag_177:\n        /* \"#utility.yul\":17811:17888   */\n      0x4e487b7100000000000000000000000000000000000000000000000000000000\n        /* \"#utility.yul\":17808:17809   */\n      0x00\n        /* \"#utility.yul\":17801:17889   */\n      mstore\n        /* \"#utility.yul\":17908:17912   */\n      0x12\n        /* \"#utility.yul\":17905:17906   */\n      0x04\n        /* \"#utility.yul\":17898:17913   */\n      mstore\n        /* \"#utility.yul\":17932:17936   */\n      0x24\n        /* \"#utility.yul\":17929:17930   */\n      0x00\n        /* \"#utility.yul\":17922:17937   */\n      revert\n        /* \"#utility.yul\":17949:18125   */\n    tag_117:\n        /* \"#utility.yul\":17981:17982   */\n      0x00\n        /* \"#utility.yul\":17998:18018   */\n      tag_359\n        /* \"#utility.yul\":18016:18017   */\n      dup3\n        /* \"#utility.yul\":17998:18018   */\n      tag_130\n      jump\t// in\n    tag_359:\n        /* \"#utility.yul\":17993:18018   */\n      swap2\n      pop\n        /* \"#utility.yul\":18032:18052   */\n      tag_360\n        /* \"#utility.yul\":18050:18051   */\n      dup4\n        /* \"#utility.yul\":18032:18052   */\n      tag_130\n      jump\t// in\n    tag_360:\n        /* \"#utility.yul\":18027:18052   */\n      swap3\n      pop\n        /* \"#utility.yul\":18071:18072   */\n      dup3\n        /* \"#utility.yul\":18061:18096   */\n      tag_361\n      jumpi\n        /* \"#utility.yul\":18076:18094   */\n      tag_362\n      tag_177\n      jump\t// in\n    tag_362:\n        /* \"#utility.yul\":18061:18096   */\n    tag_361:\n        /* \"#utility.yul\":18117:18118   */\n      dup3\n        /* \"#utility.yul\":18114:18115   */\n      dup3\n        /* \"#utility.yul\":18110:18119   */\n      mod\n        /* \"#utility.yul\":18105:18119   */\n      swap1\n      pop\n        /* \"#utility.yul\":17949:18125   */\n      swap3\n      swap2\n      pop\n      pop\n      jump\t// out\n\n    auxdata: 0xa264697066735822122085a0649c1272700956dde501c3c63f0f43510b7a9d92051869a558e1a5e72bdb64736f6c63430008120033\n}\n",
				"bytecode": {
					"linkReferences": {},
					"object": "608060405234801561001057600080fd5b5033600360006101000a81548173ffffffffffffffffffffffffffffffffffffffff021916908373ffffffffffffffffffffffffffffffffffffffff160217905550611474806100616000396000f3fe608060405234801561001057600080fd5b50600436106100885760003560e01c80638c6e43441161005b5780638c6e4344146101145780639542835c14610144578063e0ff5b8b14610162578063f851a4401461019257610088565b8063028414f21461008d5780632151fb38146100a957806341e7a262146100c557806368744046146100e1575b600080fd5b6100a760048036038101906100a29190610ade565b6101b0565b005b6100c360048036038101906100be9190610b73565b61037c565b005b6100df60048036038101906100da9190610ba0565b6105cb565b005b6100fb60048036038101906100f69190610b73565b6107ba565b60405161010b9493929190610ce6565b60405180910390f35b61012e60048036038101906101299190610b73565b6108fa565b60405161013b9190610d39565b60405180910390f35b61014c61091e565b6040516101599190610d39565b60405180910390f35b61017c60048036038101906101779190610b73565b610984565b6040516101899190610d6f565b60405180910390f35b61019a6109b6565b6040516101a79190610dcb565b60405180910390f35b600360009054906101000a900473ffffffffffffffffffffffffffffffffffffffff1673ffffffffffffffffffffffffffffffffffffffff163373ffffffffffffffffffffffffffffffffffffffff1614610240576040517f08c379a000000000000000000000000000000000000000000000000000000000815260040161023790610e58565b60405180910390fd5b600061024a61091e565b9050604051806080016040528082815260200187815260200186868080601f016020809104026020016040519081016040528093929190818152602001838380828437600081840152601f19601f82011690508083019250505050505050815260200184848080601f016020809104026020016040519081016040528093929190818152602001838380828437600081840152601f19601f82011690508083019250505050505050815250600160008381526020019081526020016000206000820151816000015560208201518160010155604082015181600201908161033191906110b3565b50606082015181600301908161034791906110b3565b509050506002819080600181540180825580915050600190039060005260206000200160009091909190915055505050505050565b600360009054906101000a900473ffffffffffffffffffffffffffffffffffffffff1673ffffffffffffffffffffffffffffffffffffffff163373ffffffffffffffffffffffffffffffffffffffff161461040c576040517f08c379a000000000000000000000000000000000000000000000000000000000815260040161040390610e58565b60405180910390fd5b80600160008381526020019081526020016000206000015414610464576040517f08c379a000000000000000000000000000000000000000000000000000000000815260040161045b906111d1565b60405180910390fd5b60016000828152602001908152602001600020600080820160009055600182016000905560028201600061049891906109dc565b6003820160006104a891906109dc565b5050600080600090505b6002805490508110156104ff5782600282815481106104d4576104d36111f1565b5b9060005260206000200154036104ec578091506104ff565b80806104f79061124f565b9150506104b2565b506002805490508110610547576040517f08c379a000000000000000000000000000000000000000000000000000000000815260040161053e906112e3565b60405180910390fd5b6000600160028054905061055b9190611303565b905060028181548110610571576105706111f1565b5b9060005260206000200154600283815481106105905761058f6111f1565b5b906000526020600020018190555060028054806105b0576105af611337565b5b60019003818190600052602060002001600090559055505050565b600360009054906101000a900473ffffffffffffffffffffffffffffffffffffffff1673ffffffffffffffffffffffffffffffffffffffff163373ffffffffffffffffffffffffffffffffffffffff161461065b576040517f08c379a000000000000000000000000000000000000000000000000000000000815260040161065290610e58565b60405180910390fd5b856001600088815260200190815260200160002060000154146106b3576040517f08c379a00000000000000000000000000000000000000000000000000000000081526004016106aa906111d1565b60405180910390fd5b604051806080016040528087815260200186815260200185858080601f016020809104026020016040519081016040528093929190818152602001838380828437600081840152601f19601f82011690508083019250505050505050815260200183838080601f016020809104026020016040519081016040528093929190818152602001838380828437600081840152601f19601f82011690508083019250505050505050815250600160008881526020019081526020016000206000820151816000015560208201518160010155604082015181600201908161079891906110b3565b5060608201518160030190816107ae91906110b3565b50905050505050505050565b60016020528060005260406000206000915090508060000154908060010154908060020180546107e990610ed6565b80601f016020809104026020016040519081016040528092919081815260200182805461081590610ed6565b80156108625780601f1061083757610100808354040283529160200191610862565b820191906000526020600020905b81548152906001019060200180831161084557829003601f168201915b50505050509080600301805461087790610ed6565b80601f01602080910402602001604051908101604052809291908181526020018280546108a390610ed6565b80156108f05780601f106108c5576101008083540402835291602001916108f0565b820191906000526020600020905b8154815290600101906020018083116108d357829003601f168201915b5050505050905084565b6002818154811061090a57600080fd5b906000526020600020016000915090505481565b60008060008154809291906109329061124f565b91905055506000805460405160200161094b91906113b8565b60405160208183030381529060405280519060200120905060006509184e72a0008260001c61097a919061140d565b9050809250505090565b6000806001600084815260200190815260200160002060000154036109ac57600090506109b1565b600190505b919050565b600360009054906101000a900473ffffffffffffffffffffffffffffffffffffffff1681565b5080546109e890610ed6565b6000825580601f106109fa5750610a19565b601f016020900490600052602060002090810190610a189190610a1c565b5b50565b5b80821115610a35576000816000905550600101610a1d565b5090565b600080fd5b600080fd5b6000819050919050565b610a5681610a43565b8114610a6157600080fd5b50565b600081359050610a7381610a4d565b92915050565b600080fd5b600080fd5b600080fd5b60008083601f840112610a9e57610a9d610a79565b5b8235905067ffffffffffffffff811115610abb57610aba610a7e565b5b602083019150836001820283011115610ad757610ad6610a83565b5b9250929050565b600080600080600060608688031215610afa57610af9610a39565b5b6000610b0888828901610a64565b955050602086013567ffffffffffffffff811115610b2957610b28610a3e565b5b610b3588828901610a88565b9450945050604086013567ffffffffffffffff811115610b5857610b57610a3e565b5b610b6488828901610a88565b92509250509295509295909350565b600060208284031215610b8957610b88610a39565b5b6000610b9784828501610a64565b91505092915050565b60008060008060008060808789031215610bbd57610bbc610a39565b5b6000610bcb89828a01610a64565b9650506020610bdc89828a01610a64565b955050604087013567ffffffffffffffff811115610bfd57610bfc610a3e565b5b610c0989828a01610a88565b9450945050606087013567ffffffffffffffff811115610c2c57610c2b610a3e565b5b610c3889828a01610a88565b92509250509295509295509295565b610c5081610a43565b82525050565b600081519050919050565b600082825260208201905092915050565b60005b83811015610c90578082015181840152602081019050610c75565b60008484015250505050565b6000601f19601f8301169050919050565b6000610cb882610c56565b610cc28185610c61565b9350610cd2818560208601610c72565b610cdb81610c9c565b840191505092915050565b6000608082019050610cfb6000830187610c47565b610d086020830186610c47565b8181036040830152610d1a8185610cad565b90508181036060830152610d2e8184610cad565b905095945050505050565b6000602082019050610d4e6000830184610c47565b92915050565b60008115159050919050565b610d6981610d54565b82525050565b6000602082019050610d846000830184610d60565b92915050565b600073ffffffffffffffffffffffffffffffffffffffff82169050919050565b6000610db582610d8a565b9050919050565b610dc581610daa565b82525050565b6000602082019050610de06000830184610dbc565b92915050565b7f48616e79612061646d696e2079616e67206461706174206d656c616b756b616e60008201527f20696e6900000000000000000000000000000000000000000000000000000000602082015250565b6000610e42602483610c61565b9150610e4d82610de6565b604082019050919050565b60006020820190508181036000830152610e7181610e35565b9050919050565b7f4e487b7100000000000000000000000000000000000000000000000000000000600052604160045260246000fd5b7f4e487b7100000000000000000000000000000000000000000000000000000000600052602260045260246000fd5b60006002820490506001821680610eee57607f821691505b602082108103610f0157610f00610ea7565b5b50919050565b60008190508160005260206000209050919050565b60006020601f8301049050919050565b600082821b905092915050565b600060088302610f697fffffffffffffffffffffffffffffffffffffffffffffffffffffffffffffffff82610f2c565b610f738683610f2c565b95508019841693508086168417925050509392505050565b6000819050919050565b6000610fb0610fab610fa684610a43565b610f8b565b610a43565b9050919050565b6000819050919050565b610fca83610f95565b610fde610fd682610fb7565b848454610f39565b825550505050565b600090565b610ff3610fe6565b610ffe818484610fc1565b505050565b5b8181101561102257611017600082610feb565b600181019050611004565b5050565b601f8211156110675761103881610f07565b61104184610f1c565b81016020851015611050578190505b61106461105c85610f1c565b830182611003565b50505b505050565b600082821c905092915050565b600061108a6000198460080261106c565b1980831691505092915050565b60006110a38383611079565b9150826002028217905092915050565b6110bc82610c56565b67ffffffffffffffff8111156110d5576110d4610e78565b5b6110df8254610ed6565b6110ea828285611026565b600060209050601f83116001811461111d576000841561110b578287015190505b6111158582611097565b86555061117d565b601f19841661112b86610f07565b60005b828110156111535784890151825560018201915060208501945060208101905061112e565b86831015611170578489015161116c601f891682611079565b8355505b6001600288020188555050505b505050505050565b7f42756b7520746964616b20646974656d756b616e000000000000000000000000600082015250565b60006111bb601483610c61565b91506111c682611185565b602082019050919050565b600060208201905081810360008301526111ea816111ae565b9050919050565b7f4e487b7100000000000000000000000000000000000000000000000000000000600052603260045260246000fd5b7f4e487b7100000000000000000000000000000000000000000000000000000000600052601160045260246000fd5b600061125a82610a43565b91507fffffffffffffffffffffffffffffffffffffffffffffffffffffffffffffffff820361128c5761128b611220565b5b600182019050919050565b7f496e64656b732062756b7520746964616b20646974656d756b616e0000000000600082015250565b60006112cd601b83610c61565b91506112d882611297565b602082019050919050565b600060208201905081810360008301526112fc816112c0565b9050919050565b600061130e82610a43565b915061131983610a43565b925082820390508181111561133157611330611220565b5b92915050565b7f4e487b7100000000000000000000000000000000000000000000000000000000600052603160045260246000fd5b600081905092915050565b50565b6000611381600083611366565b915061138c82611371565b600082019050919050565b6000819050919050565b6113b26113ad82610a43565b611397565b82525050565b60006113c382611374565b91506113cf82846113a1565b60208201915081905092915050565b7f4e487b7100000000000000000000000000000000000000000000000000000000600052601260045260246000fd5b600061141882610a43565b915061142383610a43565b925082611433576114326113de565b5b82820690509291505056fea264697066735822122085a0649c1272700956dde501c3c63f0f43510b7a9d92051869a558e1a5e72bdb64736f6c63430008120033",
					"opcodes": "PUSH1 0x80 PUSH1 0x40 MSTORE CALLVALUE DUP1 ISZERO PUSH2 0x10 JUMPI PUSH1 0x0 DUP1 REVERT JUMPDEST POP CALLER PUSH1 0x3 PUSH1 0x0 PUSH2 0x100 EXP DUP2 SLOAD DUP2 PUSH20 0xFFFFFFFFFFFFFFFFFFFFFFFFFFFFFFFFFFFFFFFF MUL NOT AND SWAP1 DUP4 PUSH20 0xFFFFFFFFFFFFFFFFFFFFFFFFFFFFFFFFFFFFFFFF AND MUL OR SWAP1 SSTORE POP PUSH2 0x1474 DUP1 PUSH2 0x61 PUSH1 0x0 CODECOPY PUSH1 0x0 RETURN INVALID PUSH1 0x80 PUSH1 0x40 MSTORE CALLVALUE DUP1 ISZERO PUSH2 0x10 JUMPI PUSH1 0x0 DUP1 REVERT JUMPDEST POP PUSH1 0x4 CALLDATASIZE LT PUSH2 0x88 JUMPI PUSH1 0x0 CALLDATALOAD PUSH1 0xE0 SHR DUP1 PUSH4 0x8C6E4344 GT PUSH2 0x5B JUMPI DUP1 PUSH4 0x8C6E4344 EQ PUSH2 0x114 JUMPI DUP1 PUSH4 0x9542835C EQ PUSH2 0x144 JUMPI DUP1 PUSH4 0xE0FF5B8B EQ PUSH2 0x162 JUMPI DUP1 PUSH4 0xF851A440 EQ PUSH2 0x192 JUMPI PUSH2 0x88 JUMP JUMPDEST DUP1 PUSH4 0x28414F2 EQ PUSH2 0x8D JUMPI DUP1 PUSH4 0x2151FB38 EQ PUSH2 0xA9 JUMPI DUP1 PUSH4 0x41E7A262 EQ PUSH2 0xC5 JUMPI DUP1 PUSH4 0x68744046 EQ PUSH2 0xE1 JUMPI JUMPDEST PUSH1 0x0 DUP1 REVERT JUMPDEST PUSH2 0xA7 PUSH1 0x4 DUP1 CALLDATASIZE SUB DUP2 ADD SWAP1 PUSH2 0xA2 SWAP2 SWAP1 PUSH2 0xADE JUMP JUMPDEST PUSH2 0x1B0 JUMP JUMPDEST STOP JUMPDEST PUSH2 0xC3 PUSH1 0x4 DUP1 CALLDATASIZE SUB DUP2 ADD SWAP1 PUSH2 0xBE SWAP2 SWAP1 PUSH2 0xB73 JUMP JUMPDEST PUSH2 0x37C JUMP JUMPDEST STOP JUMPDEST PUSH2 0xDF PUSH1 0x4 DUP1 CALLDATASIZE SUB DUP2 ADD SWAP1 PUSH2 0xDA SWAP2 SWAP1 PUSH2 0xBA0 JUMP JUMPDEST PUSH2 0x5CB JUMP JUMPDEST STOP JUMPDEST PUSH2 0xFB PUSH1 0x4 DUP1 CALLDATASIZE SUB DUP2 ADD SWAP1 PUSH2 0xF6 SWAP2 SWAP1 PUSH2 0xB73 JUMP JUMPDEST PUSH2 0x7BA JUMP JUMPDEST PUSH1 0x40 MLOAD PUSH2 0x10B SWAP5 SWAP4 SWAP3 SWAP2 SWAP1 PUSH2 0xCE6 JUMP JUMPDEST PUSH1 0x40 MLOAD DUP1 SWAP2 SUB SWAP1 RETURN JUMPDEST PUSH2 0x12E PUSH1 0x4 DUP1 CALLDATASIZE SUB DUP2 ADD SWAP1 PUSH2 0x129 SWAP2 SWAP1 PUSH2 0xB73 JUMP JUMPDEST PUSH2 0x8FA JUMP JUMPDEST PUSH1 0x40 MLOAD PUSH2 0x13B SWAP2 SWAP1 PUSH2 0xD39 JUMP JUMPDEST PUSH1 0x40 MLOAD DUP1 SWAP2 SUB SWAP1 RETURN JUMPDEST PUSH2 0x14C PUSH2 0x91E JUMP JUMPDEST PUSH1 0x40 MLOAD PUSH2 0x159 SWAP2 SWAP1 PUSH2 0xD39 JUMP JUMPDEST PUSH1 0x40 MLOAD DUP1 SWAP2 SUB SWAP1 RETURN JUMPDEST PUSH2 0x17C PUSH1 0x4 DUP1 CALLDATASIZE SUB DUP2 ADD SWAP1 PUSH2 0x177 SWAP2 SWAP1 PUSH2 0xB73 JUMP JUMPDEST PUSH2 0x984 JUMP JUMPDEST PUSH1 0x40 MLOAD PUSH2 0x189 SWAP2 SWAP1 PUSH2 0xD6F JUMP JUMPDEST PUSH1 0x40 MLOAD DUP1 SWAP2 SUB SWAP1 RETURN JUMPDEST PUSH2 0x19A PUSH2 0x9B6 JUMP JUMPDEST PUSH1 0x40 MLOAD PUSH2 0x1A7 SWAP2 SWAP1 PUSH2 0xDCB JUMP JUMPDEST PUSH1 0x40 MLOAD DUP1 SWAP2 SUB SWAP1 RETURN JUMPDEST PUSH1 0x3 PUSH1 0x0 SWAP1 SLOAD SWAP1 PUSH2 0x100 EXP SWAP1 DIV PUSH20 0xFFFFFFFFFFFFFFFFFFFFFFFFFFFFFFFFFFFFFFFF AND PUSH20 0xFFFFFFFFFFFFFFFFFFFFFFFFFFFFFFFFFFFFFFFF AND CALLER PUSH20 0xFFFFFFFFFFFFFFFFFFFFFFFFFFFFFFFFFFFFFFFF AND EQ PUSH2 0x240 JUMPI PUSH1 0x40 MLOAD PUSH32 0x8C379A000000000000000000000000000000000000000000000000000000000 DUP2 MSTORE PUSH1 0x4 ADD PUSH2 0x237 SWAP1 PUSH2 0xE58 JUMP JUMPDEST PUSH1 0x40 MLOAD DUP1 SWAP2 SUB SWAP1 REVERT JUMPDEST PUSH1 0x0 PUSH2 0x24A PUSH2 0x91E JUMP JUMPDEST SWAP1 POP PUSH1 0x40 MLOAD DUP1 PUSH1 0x80 ADD PUSH1 0x40 MSTORE DUP1 DUP3 DUP2 MSTORE PUSH1 0x20 ADD DUP8 DUP2 MSTORE PUSH1 0x20 ADD DUP7 DUP7 DUP1 DUP1 PUSH1 0x1F ADD PUSH1 0x20 DUP1 SWAP2 DIV MUL PUSH1 0x20 ADD PUSH1 0x40 MLOAD SWAP1 DUP2 ADD PUSH1 0x40 MSTORE DUP1 SWAP4 SWAP3 SWAP2 SWAP1 DUP2 DUP2 MSTORE PUSH1 0x20 ADD DUP4 DUP4 DUP1 DUP3 DUP5 CALLDATACOPY PUSH1 0x0 DUP2 DUP5 ADD MSTORE PUSH1 0x1F NOT PUSH1 0x1F DUP3 ADD AND SWAP1 POP DUP1 DUP4 ADD SWAP3 POP POP POP POP POP POP POP DUP2 MSTORE PUSH1 0x20 ADD DUP5 DUP5 DUP1 DUP1 PUSH1 0x1F ADD PUSH1 0x20 DUP1 SWAP2 DIV MUL PUSH1 0x20 ADD PUSH1 0x40 MLOAD SWAP1 DUP2 ADD PUSH1 0x40 MSTORE DUP1 SWAP4 SWAP3 SWAP2 SWAP1 DUP2 DUP2 MSTORE PUSH1 0x20 ADD DUP4 DUP4 DUP1 DUP3 DUP5 CALLDATACOPY PUSH1 0x0 DUP2 DUP5 ADD MSTORE PUSH1 0x1F NOT PUSH1 0x1F DUP3 ADD AND SWAP1 POP DUP1 DUP4 ADD SWAP3 POP POP POP POP POP POP POP DUP2 MSTORE POP PUSH1 0x1 PUSH1 0x0 DUP4 DUP2 MSTORE PUSH1 0x20 ADD SWAP1 DUP2 MSTORE PUSH1 0x20 ADD PUSH1 0x0 KECCAK256 PUSH1 0x0 DUP3 ADD MLOAD DUP2 PUSH1 0x0 ADD SSTORE PUSH1 0x20 DUP3 ADD MLOAD DUP2 PUSH1 0x1 ADD SSTORE PUSH1 0x40 DUP3 ADD MLOAD DUP2 PUSH1 0x2 ADD SWAP1 DUP2 PUSH2 0x331 SWAP2 SWAP1 PUSH2 0x10B3 JUMP JUMPDEST POP PUSH1 0x60 DUP3 ADD MLOAD DUP2 PUSH1 0x3 ADD SWAP1 DUP2 PUSH2 0x347 SWAP2 SWAP1 PUSH2 0x10B3 JUMP JUMPDEST POP SWAP1 POP POP PUSH1 0x2 DUP2 SWAP1 DUP1 PUSH1 0x1 DUP2 SLOAD ADD DUP1 DUP3 SSTORE DUP1 SWAP2 POP POP PUSH1 0x1 SWAP1 SUB SWAP1 PUSH1 0x0 MSTORE PUSH1 0x20 PUSH1 0x0 KECCAK256 ADD PUSH1 0x0 SWAP1 SWAP2 SWAP1 SWAP2 SWAP1 SWAP2 POP SSTORE POP POP POP POP POP POP JUMP JUMPDEST PUSH1 0x3 PUSH1 0x0 SWAP1 SLOAD SWAP1 PUSH2 0x100 EXP SWAP1 DIV PUSH20 0xFFFFFFFFFFFFFFFFFFFFFFFFFFFFFFFFFFFFFFFF AND PUSH20 0xFFFFFFFFFFFFFFFFFFFFFFFFFFFFFFFFFFFFFFFF AND CALLER PUSH20 0xFFFFFFFFFFFFFFFFFFFFFFFFFFFFFFFFFFFFFFFF AND EQ PUSH2 0x40C JUMPI PUSH1 0x40 MLOAD PUSH32 0x8C379A000000000000000000000000000000000000000000000000000000000 DUP2 MSTORE PUSH1 0x4 ADD PUSH2 0x403 SWAP1 PUSH2 0xE58 JUMP JUMPDEST PUSH1 0x40 MLOAD DUP1 SWAP2 SUB SWAP1 REVERT JUMPDEST DUP1 PUSH1 0x1 PUSH1 0x0 DUP4 DUP2 MSTORE PUSH1 0x20 ADD SWAP1 DUP2 MSTORE PUSH1 0x20 ADD PUSH1 0x0 KECCAK256 PUSH1 0x0 ADD SLOAD EQ PUSH2 0x464 JUMPI PUSH1 0x40 MLOAD PUSH32 0x8C379A000000000000000000000000000000000000000000000000000000000 DUP2 MSTORE PUSH1 0x4 ADD PUSH2 0x45B SWAP1 PUSH2 0x11D1 JUMP JUMPDEST PUSH1 0x40 MLOAD DUP1 SWAP2 SUB SWAP1 REVERT JUMPDEST PUSH1 0x1 PUSH1 0x0 DUP3 DUP2 MSTORE PUSH1 0x20 ADD SWAP1 DUP2 MSTORE PUSH1 0x20 ADD PUSH1 0x0 KECCAK256 PUSH1 0x0 DUP1 DUP3 ADD PUSH1 0x0 SWAP1 SSTORE PUSH1 0x1 DUP3 ADD PUSH1 0x0 SWAP1 SSTORE PUSH1 0x2 DUP3 ADD PUSH1 0x0 PUSH2 0x498 SWAP2 SWAP1 PUSH2 0x9DC JUMP JUMPDEST PUSH1 0x3 DUP3 ADD PUSH1 0x0 PUSH2 0x4A8 SWAP2 SWAP1 PUSH2 0x9DC JUMP JUMPDEST POP POP PUSH1 0x0 DUP1 PUSH1 0x0 SWAP1 POP JUMPDEST PUSH1 0x2 DUP1 SLOAD SWAP1 POP DUP2 LT ISZERO PUSH2 0x4FF JUMPI DUP3 PUSH1 0x2 DUP3 DUP2 SLOAD DUP2 LT PUSH2 0x4D4 JUMPI PUSH2 0x4D3 PUSH2 0x11F1 JUMP JUMPDEST JUMPDEST SWAP1 PUSH1 0x0 MSTORE PUSH1 0x20 PUSH1 0x0 KECCAK256 ADD SLOAD SUB PUSH2 0x4EC JUMPI DUP1 SWAP2 POP PUSH2 0x4FF JUMP JUMPDEST DUP1 DUP1 PUSH2 0x4F7 SWAP1 PUSH2 0x124F JUMP JUMPDEST SWAP2 POP POP PUSH2 0x4B2 JUMP JUMPDEST POP PUSH1 0x2 DUP1 SLOAD SWAP1 POP DUP2 LT PUSH2 0x547 JUMPI PUSH1 0x40 MLOAD PUSH32 0x8C379A000000000000000000000000000000000000000000000000000000000 DUP2 MSTORE PUSH1 0x4 ADD PUSH2 0x53E SWAP1 PUSH2 0x12E3 JUMP JUMPDEST PUSH1 0x40 MLOAD DUP1 SWAP2 SUB SWAP1 REVERT JUMPDEST PUSH1 0x0 PUSH1 0x1 PUSH1 0x2 DUP1 SLOAD SWAP1 POP PUSH2 0x55B SWAP2 SWAP1 PUSH2 0x1303 JUMP JUMPDEST SWAP1 POP PUSH1 0x2 DUP2 DUP2 SLOAD DUP2 LT PUSH2 0x571 JUMPI PUSH2 0x570 PUSH2 0x11F1 JUMP JUMPDEST JUMPDEST SWAP1 PUSH1 0x0 MSTORE PUSH1 0x20 PUSH1 0x0 KECCAK256 ADD SLOAD PUSH1 0x2 DUP4 DUP2 SLOAD DUP2 LT PUSH2 0x590 JUMPI PUSH2 0x58F PUSH2 0x11F1 JUMP JUMPDEST JUMPDEST SWAP1 PUSH1 0x0 MSTORE PUSH1 0x20 PUSH1 0x0 KECCAK256 ADD DUP2 SWAP1 SSTORE POP PUSH1 0x2 DUP1 SLOAD DUP1 PUSH2 0x5B0 JUMPI PUSH2 0x5AF PUSH2 0x1337 JUMP JUMPDEST JUMPDEST PUSH1 0x1 SWAP1 SUB DUP2 DUP2 SWAP1 PUSH1 0x0 MSTORE PUSH1 0x20 PUSH1 0x0 KECCAK256 ADD PUSH1 0x0 SWAP1 SSTORE SWAP1 SSTORE POP POP POP JUMP JUMPDEST PUSH1 0x3 PUSH1 0x0 SWAP1 SLOAD SWAP1 PUSH2 0x100 EXP SWAP1 DIV PUSH20 0xFFFFFFFFFFFFFFFFFFFFFFFFFFFFFFFFFFFFFFFF AND PUSH20 0xFFFFFFFFFFFFFFFFFFFFFFFFFFFFFFFFFFFFFFFF AND CALLER PUSH20 0xFFFFFFFFFFFFFFFFFFFFFFFFFFFFFFFFFFFFFFFF AND EQ PUSH2 0x65B JUMPI PUSH1 0x40 MLOAD PUSH32 0x8C379A000000000000000000000000000000000000000000000000000000000 DUP2 MSTORE PUSH1 0x4 ADD PUSH2 0x652 SWAP1 PUSH2 0xE58 JUMP JUMPDEST PUSH1 0x40 MLOAD DUP1 SWAP2 SUB SWAP1 REVERT JUMPDEST DUP6 PUSH1 0x1 PUSH1 0x0 DUP9 DUP2 MSTORE PUSH1 0x20 ADD SWAP1 DUP2 MSTORE PUSH1 0x20 ADD PUSH1 0x0 KECCAK256 PUSH1 0x0 ADD SLOAD EQ PUSH2 0x6B3 JUMPI PUSH1 0x40 MLOAD PUSH32 0x8C379A000000000000000000000000000000000000000000000000000000000 DUP2 MSTORE PUSH1 0x4 ADD PUSH2 0x6AA SWAP1 PUSH2 0x11D1 JUMP JUMPDEST PUSH1 0x40 MLOAD DUP1 SWAP2 SUB SWAP1 REVERT JUMPDEST PUSH1 0x40 MLOAD DUP1 PUSH1 0x80 ADD PUSH1 0x40 MSTORE DUP1 DUP8 DUP2 MSTORE PUSH1 0x20 ADD DUP7 DUP2 MSTORE PUSH1 0x20 ADD DUP6 DUP6 DUP1 DUP1 PUSH1 0x1F ADD PUSH1 0x20 DUP1 SWAP2 DIV MUL PUSH1 0x20 ADD PUSH1 0x40 MLOAD SWAP1 DUP2 ADD PUSH1 0x40 MSTORE DUP1 SWAP4 SWAP3 SWAP2 SWAP1 DUP2 DUP2 MSTORE PUSH1 0x20 ADD DUP4 DUP4 DUP1 DUP3 DUP5 CALLDATACOPY PUSH1 0x0 DUP2 DUP5 ADD MSTORE PUSH1 0x1F NOT PUSH1 0x1F DUP3 ADD AND SWAP1 POP DUP1 DUP4 ADD SWAP3 POP POP POP POP POP POP POP DUP2 MSTORE PUSH1 0x20 ADD DUP4 DUP4 DUP1 DUP1 PUSH1 0x1F ADD PUSH1 0x20 DUP1 SWAP2 DIV MUL PUSH1 0x20 ADD PUSH1 0x40 MLOAD SWAP1 DUP2 ADD PUSH1 0x40 MSTORE DUP1 SWAP4 SWAP3 SWAP2 SWAP1 DUP2 DUP2 MSTORE PUSH1 0x20 ADD DUP4 DUP4 DUP1 DUP3 DUP5 CALLDATACOPY PUSH1 0x0 DUP2 DUP5 ADD MSTORE PUSH1 0x1F NOT PUSH1 0x1F DUP3 ADD AND SWAP1 POP DUP1 DUP4 ADD SWAP3 POP POP POP POP POP POP POP DUP2 MSTORE POP PUSH1 0x1 PUSH1 0x0 DUP9 DUP2 MSTORE PUSH1 0x20 ADD SWAP1 DUP2 MSTORE PUSH1 0x20 ADD PUSH1 0x0 KECCAK256 PUSH1 0x0 DUP3 ADD MLOAD DUP2 PUSH1 0x0 ADD SSTORE PUSH1 0x20 DUP3 ADD MLOAD DUP2 PUSH1 0x1 ADD SSTORE PUSH1 0x40 DUP3 ADD MLOAD DUP2 PUSH1 0x2 ADD SWAP1 DUP2 PUSH2 0x798 SWAP2 SWAP1 PUSH2 0x10B3 JUMP JUMPDEST POP PUSH1 0x60 DUP3 ADD MLOAD DUP2 PUSH1 0x3 ADD SWAP1 DUP2 PUSH2 0x7AE SWAP2 SWAP1 PUSH2 0x10B3 JUMP JUMPDEST POP SWAP1 POP POP POP POP POP POP POP POP JUMP JUMPDEST PUSH1 0x1 PUSH1 0x20 MSTORE DUP1 PUSH1 0x0 MSTORE PUSH1 0x40 PUSH1 0x0 KECCAK256 PUSH1 0x0 SWAP2 POP SWAP1 POP DUP1 PUSH1 0x0 ADD SLOAD SWAP1 DUP1 PUSH1 0x1 ADD SLOAD SWAP1 DUP1 PUSH1 0x2 ADD DUP1 SLOAD PUSH2 0x7E9 SWAP1 PUSH2 0xED6 JUMP JUMPDEST DUP1 PUSH1 0x1F ADD PUSH1 0x20 DUP1 SWAP2 DIV MUL PUSH1 0x20 ADD PUSH1 0x40 MLOAD SWAP1 DUP2 ADD PUSH1 0x40 MSTORE DUP1 SWAP3 SWAP2 SWAP1 DUP2 DUP2 MSTORE PUSH1 0x20 ADD DUP3 DUP1 SLOAD PUSH2 0x815 SWAP1 PUSH2 0xED6 JUMP JUMPDEST DUP1 ISZERO PUSH2 0x862 JUMPI DUP1 PUSH1 0x1F LT PUSH2 0x837 JUMPI PUSH2 0x100 DUP1 DUP4 SLOAD DIV MUL DUP4 MSTORE SWAP2 PUSH1 0x20 ADD SWAP2 PUSH2 0x862 JUMP JUMPDEST DUP3 ADD SWAP2 SWAP1 PUSH1 0x0 MSTORE PUSH1 0x20 PUSH1 0x0 KECCAK256 SWAP1 JUMPDEST DUP2 SLOAD DUP2 MSTORE SWAP1 PUSH1 0x1 ADD SWAP1 PUSH1 0x20 ADD DUP1 DUP4 GT PUSH2 0x845 JUMPI DUP3 SWAP1 SUB PUSH1 0x1F AND DUP3 ADD SWAP2 JUMPDEST POP POP POP POP POP SWAP1 DUP1 PUSH1 0x3 ADD DUP1 SLOAD PUSH2 0x877 SWAP1 PUSH2 0xED6 JUMP JUMPDEST DUP1 PUSH1 0x1F ADD PUSH1 0x20 DUP1 SWAP2 DIV MUL PUSH1 0x20 ADD PUSH1 0x40 MLOAD SWAP1 DUP2 ADD PUSH1 0x40 MSTORE DUP1 SWAP3 SWAP2 SWAP1 DUP2 DUP2 MSTORE PUSH1 0x20 ADD DUP3 DUP1 SLOAD PUSH2 0x8A3 SWAP1 PUSH2 0xED6 JUMP JUMPDEST DUP1 ISZERO PUSH2 0x8F0 JUMPI DUP1 PUSH1 0x1F LT PUSH2 0x8C5 JUMPI PUSH2 0x100 DUP1 DUP4 SLOAD DIV MUL DUP4 MSTORE SWAP2 PUSH1 0x20 ADD SWAP2 PUSH2 0x8F0 JUMP JUMPDEST DUP3 ADD SWAP2 SWAP1 PUSH1 0x0 MSTORE PUSH1 0x20 PUSH1 0x0 KECCAK256 SWAP1 JUMPDEST DUP2 SLOAD DUP2 MSTORE SWAP1 PUSH1 0x1 ADD SWAP1 PUSH1 0x20 ADD DUP1 DUP4 GT PUSH2 0x8D3 JUMPI DUP3 SWAP1 SUB PUSH1 0x1F AND DUP3 ADD SWAP2 JUMPDEST POP POP POP POP POP SWAP1 POP DUP5 JUMP JUMPDEST PUSH1 0x2 DUP2 DUP2 SLOAD DUP2 LT PUSH2 0x90A JUMPI PUSH1 0x0 DUP1 REVERT JUMPDEST SWAP1 PUSH1 0x0 MSTORE PUSH1 0x20 PUSH1 0x0 KECCAK256 ADD PUSH1 0x0 SWAP2 POP SWAP1 POP SLOAD DUP2 JUMP JUMPDEST PUSH1 0x0 DUP1 PUSH1 0x0 DUP2 SLOAD DUP1 SWAP3 SWAP2 SWAP1 PUSH2 0x932 SWAP1 PUSH2 0x124F JUMP JUMPDEST SWAP2 SWAP1 POP SSTORE POP PUSH1 0x0 DUP1 SLOAD PUSH1 0x40 MLOAD PUSH1 0x20 ADD PUSH2 0x94B SWAP2 SWAP1 PUSH2 0x13B8 JUMP JUMPDEST PUSH1 0x40 MLOAD PUSH1 0x20 DUP2 DUP4 SUB SUB DUP2 MSTORE SWAP1 PUSH1 0x40 MSTORE DUP1 MLOAD SWAP1 PUSH1 0x20 ADD KECCAK256 SWAP1 POP PUSH1 0x0 PUSH6 0x9184E72A000 DUP3 PUSH1 0x0 SHR PUSH2 0x97A SWAP2 SWAP1 PUSH2 0x140D JUMP JUMPDEST SWAP1 POP DUP1 SWAP3 POP POP POP SWAP1 JUMP JUMPDEST PUSH1 0x0 DUP1 PUSH1 0x1 PUSH1 0x0 DUP5 DUP2 MSTORE PUSH1 0x20 ADD SWAP1 DUP2 MSTORE PUSH1 0x20 ADD PUSH1 0x0 KECCAK256 PUSH1 0x0 ADD SLOAD SUB PUSH2 0x9AC JUMPI PUSH1 0x0 SWAP1 POP PUSH2 0x9B1 JUMP JUMPDEST PUSH1 0x1 SWAP1 POP JUMPDEST SWAP2 SWAP1 POP JUMP JUMPDEST PUSH1 0x3 PUSH1 0x0 SWAP1 SLOAD SWAP1 PUSH2 0x100 EXP SWAP1 DIV PUSH20 0xFFFFFFFFFFFFFFFFFFFFFFFFFFFFFFFFFFFFFFFF AND DUP2 JUMP JUMPDEST POP DUP1 SLOAD PUSH2 0x9E8 SWAP1 PUSH2 0xED6 JUMP JUMPDEST PUSH1 0x0 DUP3 SSTORE DUP1 PUSH1 0x1F LT PUSH2 0x9FA JUMPI POP PUSH2 0xA19 JUMP JUMPDEST PUSH1 0x1F ADD PUSH1 0x20 SWAP1 DIV SWAP1 PUSH1 0x0 MSTORE PUSH1 0x20 PUSH1 0x0 KECCAK256 SWAP1 DUP2 ADD SWAP1 PUSH2 0xA18 SWAP2 SWAP1 PUSH2 0xA1C JUMP JUMPDEST JUMPDEST POP JUMP JUMPDEST JUMPDEST DUP1 DUP3 GT ISZERO PUSH2 0xA35 JUMPI PUSH1 0x0 DUP2 PUSH1 0x0 SWAP1 SSTORE POP PUSH1 0x1 ADD PUSH2 0xA1D JUMP JUMPDEST POP SWAP1 JUMP JUMPDEST PUSH1 0x0 DUP1 REVERT JUMPDEST PUSH1 0x0 DUP1 REVERT JUMPDEST PUSH1 0x0 DUP2 SWAP1 POP SWAP2 SWAP1 POP JUMP JUMPDEST PUSH2 0xA56 DUP2 PUSH2 0xA43 JUMP JUMPDEST DUP2 EQ PUSH2 0xA61 JUMPI PUSH1 0x0 DUP1 REVERT JUMPDEST POP JUMP JUMPDEST PUSH1 0x0 DUP2 CALLDATALOAD SWAP1 POP PUSH2 0xA73 DUP2 PUSH2 0xA4D JUMP JUMPDEST SWAP3 SWAP2 POP POP JUMP JUMPDEST PUSH1 0x0 DUP1 REVERT JUMPDEST PUSH1 0x0 DUP1 REVERT JUMPDEST PUSH1 0x0 DUP1 REVERT JUMPDEST PUSH1 0x0 DUP1 DUP4 PUSH1 0x1F DUP5 ADD SLT PUSH2 0xA9E JUMPI PUSH2 0xA9D PUSH2 0xA79 JUMP JUMPDEST JUMPDEST DUP3 CALLDATALOAD SWAP1 POP PUSH8 0xFFFFFFFFFFFFFFFF DUP2 GT ISZERO PUSH2 0xABB JUMPI PUSH2 0xABA PUSH2 0xA7E JUMP JUMPDEST JUMPDEST PUSH1 0x20 DUP4 ADD SWAP2 POP DUP4 PUSH1 0x1 DUP3 MUL DUP4 ADD GT ISZERO PUSH2 0xAD7 JUMPI PUSH2 0xAD6 PUSH2 0xA83 JUMP JUMPDEST JUMPDEST SWAP3 POP SWAP3 SWAP1 POP JUMP JUMPDEST PUSH1 0x0 DUP1 PUSH1 0x0 DUP1 PUSH1 0x0 PUSH1 0x60 DUP7 DUP9 SUB SLT ISZERO PUSH2 0xAFA JUMPI PUSH2 0xAF9 PUSH2 0xA39 JUMP JUMPDEST JUMPDEST PUSH1 0x0 PUSH2 0xB08 DUP9 DUP3 DUP10 ADD PUSH2 0xA64 JUMP JUMPDEST SWAP6 POP POP PUSH1 0x20 DUP7 ADD CALLDATALOAD PUSH8 0xFFFFFFFFFFFFFFFF DUP2 GT ISZERO PUSH2 0xB29 JUMPI PUSH2 0xB28 PUSH2 0xA3E JUMP JUMPDEST JUMPDEST PUSH2 0xB35 DUP9 DUP3 DUP10 ADD PUSH2 0xA88 JUMP JUMPDEST SWAP5 POP SWAP5 POP POP PUSH1 0x40 DUP7 ADD CALLDATALOAD PUSH8 0xFFFFFFFFFFFFFFFF DUP2 GT ISZERO PUSH2 0xB58 JUMPI PUSH2 0xB57 PUSH2 0xA3E JUMP JUMPDEST JUMPDEST PUSH2 0xB64 DUP9 DUP3 DUP10 ADD PUSH2 0xA88 JUMP JUMPDEST SWAP3 POP SWAP3 POP POP SWAP3 SWAP6 POP SWAP3 SWAP6 SWAP1 SWAP4 POP JUMP JUMPDEST PUSH1 0x0 PUSH1 0x20 DUP3 DUP5 SUB SLT ISZERO PUSH2 0xB89 JUMPI PUSH2 0xB88 PUSH2 0xA39 JUMP JUMPDEST JUMPDEST PUSH1 0x0 PUSH2 0xB97 DUP5 DUP3 DUP6 ADD PUSH2 0xA64 JUMP JUMPDEST SWAP2 POP POP SWAP3 SWAP2 POP POP JUMP JUMPDEST PUSH1 0x0 DUP1 PUSH1 0x0 DUP1 PUSH1 0x0 DUP1 PUSH1 0x80 DUP8 DUP10 SUB SLT ISZERO PUSH2 0xBBD JUMPI PUSH2 0xBBC PUSH2 0xA39 JUMP JUMPDEST JUMPDEST PUSH1 0x0 PUSH2 0xBCB DUP10 DUP3 DUP11 ADD PUSH2 0xA64 JUMP JUMPDEST SWAP7 POP POP PUSH1 0x20 PUSH2 0xBDC DUP10 DUP3 DUP11 ADD PUSH2 0xA64 JUMP JUMPDEST SWAP6 POP POP PUSH1 0x40 DUP8 ADD CALLDATALOAD PUSH8 0xFFFFFFFFFFFFFFFF DUP2 GT ISZERO PUSH2 0xBFD JUMPI PUSH2 0xBFC PUSH2 0xA3E JUMP JUMPDEST JUMPDEST PUSH2 0xC09 DUP10 DUP3 DUP11 ADD PUSH2 0xA88 JUMP JUMPDEST SWAP5 POP SWAP5 POP POP PUSH1 0x60 DUP8 ADD CALLDATALOAD PUSH8 0xFFFFFFFFFFFFFFFF DUP2 GT ISZERO PUSH2 0xC2C JUMPI PUSH2 0xC2B PUSH2 0xA3E JUMP JUMPDEST JUMPDEST PUSH2 0xC38 DUP10 DUP3 DUP11 ADD PUSH2 0xA88 JUMP JUMPDEST SWAP3 POP SWAP3 POP POP SWAP3 SWAP6 POP SWAP3 SWAP6 POP SWAP3 SWAP6 JUMP JUMPDEST PUSH2 0xC50 DUP2 PUSH2 0xA43 JUMP JUMPDEST DUP3 MSTORE POP POP JUMP JUMPDEST PUSH1 0x0 DUP2 MLOAD SWAP1 POP SWAP2 SWAP1 POP JUMP JUMPDEST PUSH1 0x0 DUP3 DUP3 MSTORE PUSH1 0x20 DUP3 ADD SWAP1 POP SWAP3 SWAP2 POP POP JUMP JUMPDEST PUSH1 0x0 JUMPDEST DUP4 DUP2 LT ISZERO PUSH2 0xC90 JUMPI DUP1 DUP3 ADD MLOAD DUP2 DUP5 ADD MSTORE PUSH1 0x20 DUP2 ADD SWAP1 POP PUSH2 0xC75 JUMP JUMPDEST PUSH1 0x0 DUP5 DUP5 ADD MSTORE POP POP POP POP JUMP JUMPDEST PUSH1 0x0 PUSH1 0x1F NOT PUSH1 0x1F DUP4 ADD AND SWAP1 POP SWAP2 SWAP1 POP JUMP JUMPDEST PUSH1 0x0 PUSH2 0xCB8 DUP3 PUSH2 0xC56 JUMP JUMPDEST PUSH2 0xCC2 DUP2 DUP6 PUSH2 0xC61 JUMP JUMPDEST SWAP4 POP PUSH2 0xCD2 DUP2 DUP6 PUSH1 0x20 DUP7 ADD PUSH2 0xC72 JUMP JUMPDEST PUSH2 0xCDB DUP2 PUSH2 0xC9C JUMP JUMPDEST DUP5 ADD SWAP2 POP POP SWAP3 SWAP2 POP POP JUMP JUMPDEST PUSH1 0x0 PUSH1 0x80 DUP3 ADD SWAP1 POP PUSH2 0xCFB PUSH1 0x0 DUP4 ADD DUP8 PUSH2 0xC47 JUMP JUMPDEST PUSH2 0xD08 PUSH1 0x20 DUP4 ADD DUP7 PUSH2 0xC47 JUMP JUMPDEST DUP2 DUP2 SUB PUSH1 0x40 DUP4 ADD MSTORE PUSH2 0xD1A DUP2 DUP6 PUSH2 0xCAD JUMP JUMPDEST SWAP1 POP DUP2 DUP2 SUB PUSH1 0x60 DUP4 ADD MSTORE PUSH2 0xD2E DUP2 DUP5 PUSH2 0xCAD JUMP JUMPDEST SWAP1 POP SWAP6 SWAP5 POP POP POP POP POP JUMP JUMPDEST PUSH1 0x0 PUSH1 0x20 DUP3 ADD SWAP1 POP PUSH2 0xD4E PUSH1 0x0 DUP4 ADD DUP5 PUSH2 0xC47 JUMP JUMPDEST SWAP3 SWAP2 POP POP JUMP JUMPDEST PUSH1 0x0 DUP2 ISZERO ISZERO SWAP1 POP SWAP2 SWAP1 POP JUMP JUMPDEST PUSH2 0xD69 DUP2 PUSH2 0xD54 JUMP JUMPDEST DUP3 MSTORE POP POP JUMP JUMPDEST PUSH1 0x0 PUSH1 0x20 DUP3 ADD SWAP1 POP PUSH2 0xD84 PUSH1 0x0 DUP4 ADD DUP5 PUSH2 0xD60 JUMP JUMPDEST SWAP3 SWAP2 POP POP JUMP JUMPDEST PUSH1 0x0 PUSH20 0xFFFFFFFFFFFFFFFFFFFFFFFFFFFFFFFFFFFFFFFF DUP3 AND SWAP1 POP SWAP2 SWAP1 POP JUMP JUMPDEST PUSH1 0x0 PUSH2 0xDB5 DUP3 PUSH2 0xD8A JUMP JUMPDEST SWAP1 POP SWAP2 SWAP1 POP JUMP JUMPDEST PUSH2 0xDC5 DUP2 PUSH2 0xDAA JUMP JUMPDEST DUP3 MSTORE POP POP JUMP JUMPDEST PUSH1 0x0 PUSH1 0x20 DUP3 ADD SWAP1 POP PUSH2 0xDE0 PUSH1 0x0 DUP4 ADD DUP5 PUSH2 0xDBC JUMP JUMPDEST SWAP3 SWAP2 POP POP JUMP JUMPDEST PUSH32 0x48616E79612061646D696E2079616E67206461706174206D656C616B756B616E PUSH1 0x0 DUP3 ADD MSTORE PUSH32 0x20696E6900000000000000000000000000000000000000000000000000000000 PUSH1 0x20 DUP3 ADD MSTORE POP JUMP JUMPDEST PUSH1 0x0 PUSH2 0xE42 PUSH1 0x24 DUP4 PUSH2 0xC61 JUMP JUMPDEST SWAP2 POP PUSH2 0xE4D DUP3 PUSH2 0xDE6 JUMP JUMPDEST PUSH1 0x40 DUP3 ADD SWAP1 POP SWAP2 SWAP1 POP JUMP JUMPDEST PUSH1 0x0 PUSH1 0x20 DUP3 ADD SWAP1 POP DUP2 DUP2 SUB PUSH1 0x0 DUP4 ADD MSTORE PUSH2 0xE71 DUP2 PUSH2 0xE35 JUMP JUMPDEST SWAP1 POP SWAP2 SWAP1 POP JUMP JUMPDEST PUSH32 0x4E487B7100000000000000000000000000000000000000000000000000000000 PUSH1 0x0 MSTORE PUSH1 0x41 PUSH1 0x4 MSTORE PUSH1 0x24 PUSH1 0x0 REVERT JUMPDEST PUSH32 0x4E487B7100000000000000000000000000000000000000000000000000000000 PUSH1 0x0 MSTORE PUSH1 0x22 PUSH1 0x4 MSTORE PUSH1 0x24 PUSH1 0x0 REVERT JUMPDEST PUSH1 0x0 PUSH1 0x2 DUP3 DIV SWAP1 POP PUSH1 0x1 DUP3 AND DUP1 PUSH2 0xEEE JUMPI PUSH1 0x7F DUP3 AND SWAP2 POP JUMPDEST PUSH1 0x20 DUP3 LT DUP2 SUB PUSH2 0xF01 JUMPI PUSH2 0xF00 PUSH2 0xEA7 JUMP JUMPDEST JUMPDEST POP SWAP2 SWAP1 POP JUMP JUMPDEST PUSH1 0x0 DUP2 SWAP1 POP DUP2 PUSH1 0x0 MSTORE PUSH1 0x20 PUSH1 0x0 KECCAK256 SWAP1 POP SWAP2 SWAP1 POP JUMP JUMPDEST PUSH1 0x0 PUSH1 0x20 PUSH1 0x1F DUP4 ADD DIV SWAP1 POP SWAP2 SWAP1 POP JUMP JUMPDEST PUSH1 0x0 DUP3 DUP3 SHL SWAP1 POP SWAP3 SWAP2 POP POP JUMP JUMPDEST PUSH1 0x0 PUSH1 0x8 DUP4 MUL PUSH2 0xF69 PUSH32 0xFFFFFFFFFFFFFFFFFFFFFFFFFFFFFFFFFFFFFFFFFFFFFFFFFFFFFFFFFFFFFFFF DUP3 PUSH2 0xF2C JUMP JUMPDEST PUSH2 0xF73 DUP7 DUP4 PUSH2 0xF2C JUMP JUMPDEST SWAP6 POP DUP1 NOT DUP5 AND SWAP4 POP DUP1 DUP7 AND DUP5 OR SWAP3 POP POP POP SWAP4 SWAP3 POP POP POP JUMP JUMPDEST PUSH1 0x0 DUP2 SWAP1 POP SWAP2 SWAP1 POP JUMP JUMPDEST PUSH1 0x0 PUSH2 0xFB0 PUSH2 0xFAB PUSH2 0xFA6 DUP5 PUSH2 0xA43 JUMP JUMPDEST PUSH2 0xF8B JUMP JUMPDEST PUSH2 0xA43 JUMP JUMPDEST SWAP1 POP SWAP2 SWAP1 POP JUMP JUMPDEST PUSH1 0x0 DUP2 SWAP1 POP SWAP2 SWAP1 POP JUMP JUMPDEST PUSH2 0xFCA DUP4 PUSH2 0xF95 JUMP JUMPDEST PUSH2 0xFDE PUSH2 0xFD6 DUP3 PUSH2 0xFB7 JUMP JUMPDEST DUP5 DUP5 SLOAD PUSH2 0xF39 JUMP JUMPDEST DUP3 SSTORE POP POP POP POP JUMP JUMPDEST PUSH1 0x0 SWAP1 JUMP JUMPDEST PUSH2 0xFF3 PUSH2 0xFE6 JUMP JUMPDEST PUSH2 0xFFE DUP2 DUP5 DUP5 PUSH2 0xFC1 JUMP JUMPDEST POP POP POP JUMP JUMPDEST JUMPDEST DUP2 DUP2 LT ISZERO PUSH2 0x1022 JUMPI PUSH2 0x1017 PUSH1 0x0 DUP3 PUSH2 0xFEB JUMP JUMPDEST PUSH1 0x1 DUP2 ADD SWAP1 POP PUSH2 0x1004 JUMP JUMPDEST POP POP JUMP JUMPDEST PUSH1 0x1F DUP3 GT ISZERO PUSH2 0x1067 JUMPI PUSH2 0x1038 DUP2 PUSH2 0xF07 JUMP JUMPDEST PUSH2 0x1041 DUP5 PUSH2 0xF1C JUMP JUMPDEST DUP2 ADD PUSH1 0x20 DUP6 LT ISZERO PUSH2 0x1050 JUMPI DUP2 SWAP1 POP JUMPDEST PUSH2 0x1064 PUSH2 0x105C DUP6 PUSH2 0xF1C JUMP JUMPDEST DUP4 ADD DUP3 PUSH2 0x1003 JUMP JUMPDEST POP POP JUMPDEST POP POP POP JUMP JUMPDEST PUSH1 0x0 DUP3 DUP3 SHR SWAP1 POP SWAP3 SWAP2 POP POP JUMP JUMPDEST PUSH1 0x0 PUSH2 0x108A PUSH1 0x0 NOT DUP5 PUSH1 0x8 MUL PUSH2 0x106C JUMP JUMPDEST NOT DUP1 DUP4 AND SWAP2 POP POP SWAP3 SWAP2 POP POP JUMP JUMPDEST PUSH1 0x0 PUSH2 0x10A3 DUP4 DUP4 PUSH2 0x1079 JUMP JUMPDEST SWAP2 POP DUP3 PUSH1 0x2 MUL DUP3 OR SWAP1 POP SWAP3 SWAP2 POP POP JUMP JUMPDEST PUSH2 0x10BC DUP3 PUSH2 0xC56 JUMP JUMPDEST PUSH8 0xFFFFFFFFFFFFFFFF DUP2 GT ISZERO PUSH2 0x10D5 JUMPI PUSH2 0x10D4 PUSH2 0xE78 JUMP JUMPDEST JUMPDEST PUSH2 0x10DF DUP3 SLOAD PUSH2 0xED6 JUMP JUMPDEST PUSH2 0x10EA DUP3 DUP3 DUP6 PUSH2 0x1026 JUMP JUMPDEST PUSH1 0x0 PUSH1 0x20 SWAP1 POP PUSH1 0x1F DUP4 GT PUSH1 0x1 DUP2 EQ PUSH2 0x111D JUMPI PUSH1 0x0 DUP5 ISZERO PUSH2 0x110B JUMPI DUP3 DUP8 ADD MLOAD SWAP1 POP JUMPDEST PUSH2 0x1115 DUP6 DUP3 PUSH2 0x1097 JUMP JUMPDEST DUP7 SSTORE POP PUSH2 0x117D JUMP JUMPDEST PUSH1 0x1F NOT DUP5 AND PUSH2 0x112B DUP7 PUSH2 0xF07 JUMP JUMPDEST PUSH1 0x0 JUMPDEST DUP3 DUP2 LT ISZERO PUSH2 0x1153 JUMPI DUP5 DUP10 ADD MLOAD DUP3 SSTORE PUSH1 0x1 DUP3 ADD SWAP2 POP PUSH1 0x20 DUP6 ADD SWAP5 POP PUSH1 0x20 DUP2 ADD SWAP1 POP PUSH2 0x112E JUMP JUMPDEST DUP7 DUP4 LT ISZERO PUSH2 0x1170 JUMPI DUP5 DUP10 ADD MLOAD PUSH2 0x116C PUSH1 0x1F DUP10 AND DUP3 PUSH2 0x1079 JUMP JUMPDEST DUP4 SSTORE POP JUMPDEST PUSH1 0x1 PUSH1 0x2 DUP9 MUL ADD DUP9 SSTORE POP POP POP JUMPDEST POP POP POP POP POP POP JUMP JUMPDEST PUSH32 0x42756B7520746964616B20646974656D756B616E000000000000000000000000 PUSH1 0x0 DUP3 ADD MSTORE POP JUMP JUMPDEST PUSH1 0x0 PUSH2 0x11BB PUSH1 0x14 DUP4 PUSH2 0xC61 JUMP JUMPDEST SWAP2 POP PUSH2 0x11C6 DUP3 PUSH2 0x1185 JUMP JUMPDEST PUSH1 0x20 DUP3 ADD SWAP1 POP SWAP2 SWAP1 POP JUMP JUMPDEST PUSH1 0x0 PUSH1 0x20 DUP3 ADD SWAP1 POP DUP2 DUP2 SUB PUSH1 0x0 DUP4 ADD MSTORE PUSH2 0x11EA DUP2 PUSH2 0x11AE JUMP JUMPDEST SWAP1 POP SWAP2 SWAP1 POP JUMP JUMPDEST PUSH32 0x4E487B7100000000000000000000000000000000000000000000000000000000 PUSH1 0x0 MSTORE PUSH1 0x32 PUSH1 0x4 MSTORE PUSH1 0x24 PUSH1 0x0 REVERT JUMPDEST PUSH32 0x4E487B7100000000000000000000000000000000000000000000000000000000 PUSH1 0x0 MSTORE PUSH1 0x11 PUSH1 0x4 MSTORE PUSH1 0x24 PUSH1 0x0 REVERT JUMPDEST PUSH1 0x0 PUSH2 0x125A DUP3 PUSH2 0xA43 JUMP JUMPDEST SWAP2 POP PUSH32 0xFFFFFFFFFFFFFFFFFFFFFFFFFFFFFFFFFFFFFFFFFFFFFFFFFFFFFFFFFFFFFFFF DUP3 SUB PUSH2 0x128C JUMPI PUSH2 0x128B PUSH2 0x1220 JUMP JUMPDEST JUMPDEST PUSH1 0x1 DUP3 ADD SWAP1 POP SWAP2 SWAP1 POP JUMP JUMPDEST PUSH32 0x496E64656B732062756B7520746964616B20646974656D756B616E0000000000 PUSH1 0x0 DUP3 ADD MSTORE POP JUMP JUMPDEST PUSH1 0x0 PUSH2 0x12CD PUSH1 0x1B DUP4 PUSH2 0xC61 JUMP JUMPDEST SWAP2 POP PUSH2 0x12D8 DUP3 PUSH2 0x1297 JUMP JUMPDEST PUSH1 0x20 DUP3 ADD SWAP1 POP SWAP2 SWAP1 POP JUMP JUMPDEST PUSH1 0x0 PUSH1 0x20 DUP3 ADD SWAP1 POP DUP2 DUP2 SUB PUSH1 0x0 DUP4 ADD MSTORE PUSH2 0x12FC DUP2 PUSH2 0x12C0 JUMP JUMPDEST SWAP1 POP SWAP2 SWAP1 POP JUMP JUMPDEST PUSH1 0x0 PUSH2 0x130E DUP3 PUSH2 0xA43 JUMP JUMPDEST SWAP2 POP PUSH2 0x1319 DUP4 PUSH2 0xA43 JUMP JUMPDEST SWAP3 POP DUP3 DUP3 SUB SWAP1 POP DUP2 DUP2 GT ISZERO PUSH2 0x1331 JUMPI PUSH2 0x1330 PUSH2 0x1220 JUMP JUMPDEST JUMPDEST SWAP3 SWAP2 POP POP JUMP JUMPDEST PUSH32 0x4E487B7100000000000000000000000000000000000000000000000000000000 PUSH1 0x0 MSTORE PUSH1 0x31 PUSH1 0x4 MSTORE PUSH1 0x24 PUSH1 0x0 REVERT JUMPDEST PUSH1 0x0 DUP2 SWAP1 POP SWAP3 SWAP2 POP POP JUMP JUMPDEST POP JUMP JUMPDEST PUSH1 0x0 PUSH2 0x1381 PUSH1 0x0 DUP4 PUSH2 0x1366 JUMP JUMPDEST SWAP2 POP PUSH2 0x138C DUP3 PUSH2 0x1371 JUMP JUMPDEST PUSH1 0x0 DUP3 ADD SWAP1 POP SWAP2 SWAP1 POP JUMP JUMPDEST PUSH1 0x0 DUP2 SWAP1 POP SWAP2 SWAP1 POP JUMP JUMPDEST PUSH2 0x13B2 PUSH2 0x13AD DUP3 PUSH2 0xA43 JUMP JUMPDEST PUSH2 0x1397 JUMP JUMPDEST DUP3 MSTORE POP POP JUMP JUMPDEST PUSH1 0x0 PUSH2 0x13C3 DUP3 PUSH2 0x1374 JUMP JUMPDEST SWAP2 POP PUSH2 0x13CF DUP3 DUP5 PUSH2 0x13A1 JUMP JUMPDEST PUSH1 0x20 DUP3 ADD SWAP2 POP DUP2 SWAP1 POP SWAP3 SWAP2 POP POP JUMP JUMPDEST PUSH32 0x4E487B7100000000000000000000000000000000000000000000000000000000 PUSH1 0x0 MSTORE PUSH1 0x12 PUSH1 0x4 MSTORE PUSH1 0x24 PUSH1 0x0 REVERT JUMPDEST PUSH1 0x0 PUSH2 0x1418 DUP3 PUSH2 0xA43 JUMP JUMPDEST SWAP2 POP PUSH2 0x1423 DUP4 PUSH2 0xA43 JUMP JUMPDEST SWAP3 POP DUP3 PUSH2 0x1433 JUMPI PUSH2 0x1432 PUSH2 0x13DE JUMP JUMPDEST JUMPDEST DUP3 DUP3 MOD SWAP1 POP SWAP3 SWAP2 POP POP JUMP INVALID LOG2 PUSH5 0x6970667358 0x22 SLT KECCAK256 DUP6 LOG0 PUSH5 0x9C12727009 JUMP 0xDD 0xE5 ADD 0xC3 0xC6 EXTCODEHASH 0xF NUMBER MLOAD SIGNEXTEND PUSH27 0x9D92051869A558E1A5E72BDB64736F6C6343000812003300000000 "
				},
				"gasEstimates": {
					"creation": {
						"codeDepositCost": "1047200",
						"executionCost": "25353",
						"totalCost": "1072553"
					},
					"external": {
						"addBook(uint256,string,string)": "infinite",
						"admin()": "2580",
						"bookISBNs(uint256)": "infinite",
						"books(uint256)": "infinite",
						"deleteBook(uint256)": "infinite",
						"generateRandomIsbn()": "infinite",
						"getBook(uint256)": "2870",
						"updateBook(uint256,uint256,string,string)": "infinite"
					}
				},
				"methodIdentifiers": {
					"addBook(uint256,string,string)": "028414f2",
					"admin()": "f851a440",
					"bookISBNs(uint256)": "8c6e4344",
					"books(uint256)": "68744046",
					"deleteBook(uint256)": "2151fb38",
					"generateRandomIsbn()": "9542835c",
					"getBook(uint256)": "e0ff5b8b",
					"updateBook(uint256,uint256,string,string)": "41e7a262"
				}
			},
			"storageLayout": {
				"storage": [
					{
						"astId": 3,
						"contract": "contracts/Perpustakaan.sol:Perpustakaan",
						"label": "nonce",
						"offset": 0,
						"slot": "0",
						"type": "t_uint256"
					},
					{
						"astId": 17,
						"contract": "contracts/Perpustakaan.sol:Perpustakaan",
						"label": "books",
						"offset": 0,
						"slot": "1",
						"type": "t_mapping(t_uint256,t_struct(Book)12_storage)"
					},
					{
						"astId": 20,
						"contract": "contracts/Perpustakaan.sol:Perpustakaan",
						"label": "bookISBNs",
						"offset": 0,
						"slot": "2",
						"type": "t_array(t_uint256)dyn_storage"
					},
					{
						"astId": 22,
						"contract": "contracts/Perpustakaan.sol:Perpustakaan",
						"label": "admin",
						"offset": 0,
						"slot": "3",
						"type": "t_address"
					}
				],
				"types": {
					"t_address": {
						"encoding": "inplace",
						"label": "address",
						"numberOfBytes": "20"
					},
					"t_array(t_uint256)dyn_storage": {
						"base": "t_uint256",
						"encoding": "dynamic_array",
						"label": "uint256[]",
						"numberOfBytes": "32"
					},
					"t_mapping(t_uint256,t_struct(Book)12_storage)": {
						"encoding": "mapping",
						"key": "t_uint256",
						"label": "mapping(uint256 => struct Perpustakaan.Book)",
						"numberOfBytes": "32",
						"value": "t_struct(Book)12_storage"
					},
					"t_string_storage": {
						"encoding": "bytes",
						"label": "string",
						"numberOfBytes": "32"
					},
					"t_struct(Book)12_storage": {
						"encoding": "inplace",
						"label": "struct Perpustakaan.Book",
						"members": [
							{
								"astId": 5,
								"contract": "contracts/Perpustakaan.sol:Perpustakaan",
								"label": "isbn",
								"offset": 0,
								"slot": "0",
								"type": "t_uint256"
							},
							{
								"astId": 7,
								"contract": "contracts/Perpustakaan.sol:Perpustakaan",
								"label": "tahunBuat",
								"offset": 0,
								"slot": "1",
								"type": "t_uint256"
							},
							{
								"astId": 9,
								"contract": "contracts/Perpustakaan.sol:Perpustakaan",
								"label": "judul",
								"offset": 0,
								"slot": "2",
								"type": "t_string_storage"
							},
							{
								"astId": 11,
								"contract": "contracts/Perpustakaan.sol:Perpustakaan",
								"label": "penulis",
								"offset": 0,
								"slot": "3",
								"type": "t_string_storage"
							}
						],
						"numberOfBytes": "128"
					},
					"t_uint256": {
						"encoding": "inplace",
						"label": "uint256",
						"numberOfBytes": "32"
					}
				}
			},
			"userdoc": {
				"kind": "user",
				"methods": {},
				"version": 1
			}
		}
	}
}